{
	"format": "sphinx-sol-ct-artifact-1",
	"merkleRoot": "0x948b5063b043c4f0632a523280a323cc157913fa9652234d2e94ee89a8f8059f",
	"address": "0x2ca27bde7e7d33e353b44c27acfcf6c78dde251d",
	"sourceName": "src/REVDeployer.sol",
	"contractName": "REVDeployer",
	"chainId": "0x14a34",
	"abi": [
		{
			"inputs": [
				{
					"internalType": "contract IJBController",
					"name": "controller",
					"type": "address"
				},
				{
					"internalType": "contract IJBSuckerRegistry",
					"name": "suckerRegistry",
					"type": "address"
				},
				{
					"internalType": "uint256",
					"name": "feeRevnetId",
					"type": "uint256"
				},
				{
					"internalType": "contract IJB721TiersHookDeployer",
					"name": "hookDeployer",
					"type": "address"
				},
				{
					"internalType": "contract CTPublisher",
					"name": "publisher",
					"type": "address"
				},
				{
					"internalType": "address",
					"name": "trustedForwarder",
					"type": "address"
				}
			],
			"stateMutability": "nonpayable",
			"type": "constructor"
		},
		{
			"inputs": [],
			"name": "CASH_OUT_DELAY",
			"outputs": [
				{
					"internalType": "uint256",
					"name": "",
					"type": "uint256"
				}
			],
			"stateMutability": "view",
			"type": "function"
		},
		{
			"inputs": [],
			"name": "CONTROLLER",
			"outputs": [
				{
					"internalType": "contract IJBController",
					"name": "",
					"type": "address"
				}
			],
			"stateMutability": "view",
			"type": "function"
		},
		{
			"inputs": [],
			"name": "DIRECTORY",
			"outputs": [
				{
					"internalType": "contract IJBDirectory",
					"name": "",
					"type": "address"
				}
			],
			"stateMutability": "view",
			"type": "function"
		},
		{
			"inputs": [],
			"name": "FEE",
			"outputs": [
				{
					"internalType": "uint256",
					"name": "",
					"type": "uint256"
				}
			],
			"stateMutability": "view",
			"type": "function"
		},
		{
			"inputs": [],
			"name": "FEE_REVNET_ID",
			"outputs": [
				{
					"internalType": "uint256",
					"name": "",
					"type": "uint256"
				}
			],
			"stateMutability": "view",
			"type": "function"
		},
		{
			"inputs": [],
			"name": "HOOK_DEPLOYER",
			"outputs": [
				{
					"internalType": "contract IJB721TiersHookDeployer",
					"name": "",
					"type": "address"
				}
			],
			"stateMutability": "view",
			"type": "function"
		},
		{
			"inputs": [],
			"name": "PERMISSIONS",
			"outputs": [
				{
					"internalType": "contract IJBPermissions",
					"name": "",
					"type": "address"
				}
			],
			"stateMutability": "view",
			"type": "function"
		},
		{
			"inputs": [],
			"name": "PROJECTS",
			"outputs": [
				{
					"internalType": "contract IJBProjects",
					"name": "",
					"type": "address"
				}
			],
			"stateMutability": "view",
			"type": "function"
		},
		{
			"inputs": [],
			"name": "PUBLISHER",
			"outputs": [
				{
					"internalType": "contract CTPublisher",
					"name": "",
					"type": "address"
				}
			],
			"stateMutability": "view",
			"type": "function"
		},
		{
			"inputs": [],
			"name": "SUCKER_REGISTRY",
			"outputs": [
				{
					"internalType": "contract IJBSuckerRegistry",
					"name": "",
					"type": "address"
				}
			],
			"stateMutability": "view",
			"type": "function"
		},
		{
			"inputs": [
				{
					"components": [
						{
							"internalType": "address",
							"name": "holder",
							"type": "address"
						},
						{
							"internalType": "uint256",
							"name": "projectId",
							"type": "uint256"
						},
						{
							"internalType": "uint256",
							"name": "rulesetId",
							"type": "uint256"
						},
						{
							"internalType": "uint256",
							"name": "cashOutCount",
							"type": "uint256"
						},
						{
							"components": [
								{
									"internalType": "address",
									"name": "token",
									"type": "address"
								},
								{
									"internalType": "uint8",
									"name": "decimals",
									"type": "uint8"
								},
								{
									"internalType": "uint32",
									"name": "currency",
									"type": "uint32"
								},
								{
									"internalType": "uint256",
									"name": "value",
									"type": "uint256"
								}
							],
							"internalType": "struct JBTokenAmount",
							"name": "reclaimedAmount",
							"type": "tuple"
						},
						{
							"components": [
								{
									"internalType": "address",
									"name": "token",
									"type": "address"
								},
								{
									"internalType": "uint8",
									"name": "decimals",
									"type": "uint8"
								},
								{
									"internalType": "uint32",
									"name": "currency",
									"type": "uint32"
								},
								{
									"internalType": "uint256",
									"name": "value",
									"type": "uint256"
								}
							],
							"internalType": "struct JBTokenAmount",
							"name": "forwardedAmount",
							"type": "tuple"
						},
						{
							"internalType": "uint256",
							"name": "cashOutTaxRate",
							"type": "uint256"
						},
						{
							"internalType": "address payable",
							"name": "beneficiary",
							"type": "address"
						},
						{
							"internalType": "bytes",
							"name": "hookMetadata",
							"type": "bytes"
						},
						{
							"internalType": "bytes",
							"name": "cashOutMetadata",
							"type": "bytes"
						}
					],
					"internalType": "struct JBAfterCashOutRecordedContext",
					"name": "context",
					"type": "tuple"
				}
			],
			"name": "afterCashOutRecordedWith",
			"outputs": [],
			"stateMutability": "payable",
			"type": "function"
		},
		{
			"inputs": [
				{
					"internalType": "uint256",
					"name": "revnetId",
					"type": "uint256"
				},
				{
					"internalType": "uint256",
					"name": "stageId",
					"type": "uint256"
				},
				{
					"internalType": "address",
					"name": "beneficiary",
					"type": "address"
				}
			],
			"name": "amountToAutoIssue",
			"outputs": [
				{
					"internalType": "uint256",
					"name": "",
					"type": "uint256"
				}
			],
			"stateMutability": "view",
			"type": "function"
		},
		{
			"inputs": [
				{
					"internalType": "uint256",
					"name": "revnetId",
					"type": "uint256"
				},
				{
					"internalType": "uint256",
					"name": "stageId",
					"type": "uint256"
				},
				{
					"internalType": "address",
					"name": "beneficiary",
					"type": "address"
				}
			],
			"name": "autoIssueFor",
			"outputs": [],
			"stateMutability": "nonpayable",
			"type": "function"
		},
		{
			"inputs": [
				{
					"components": [
						{
							"internalType": "address",
							"name": "terminal",
							"type": "address"
						},
						{
							"internalType": "address",
							"name": "holder",
							"type": "address"
						},
						{
							"internalType": "uint256",
							"name": "projectId",
							"type": "uint256"
						},
						{
							"internalType": "uint256",
							"name": "rulesetId",
							"type": "uint256"
						},
						{
							"internalType": "uint256",
							"name": "cashOutCount",
							"type": "uint256"
						},
						{
							"internalType": "uint256",
							"name": "totalSupply",
							"type": "uint256"
						},
						{
							"components": [
								{
									"internalType": "address",
									"name": "token",
									"type": "address"
								},
								{
									"internalType": "uint8",
									"name": "decimals",
									"type": "uint8"
								},
								{
									"internalType": "uint32",
									"name": "currency",
									"type": "uint32"
								},
								{
									"internalType": "uint256",
									"name": "value",
									"type": "uint256"
								}
							],
							"internalType": "struct JBTokenAmount",
							"name": "surplus",
							"type": "tuple"
						},
						{
							"internalType": "bool",
							"name": "useTotalSurplus",
							"type": "bool"
						},
						{
							"internalType": "uint256",
							"name": "cashOutTaxRate",
							"type": "uint256"
						},
						{
							"internalType": "bytes",
							"name": "metadata",
							"type": "bytes"
						}
					],
					"internalType": "struct JBBeforeCashOutRecordedContext",
					"name": "context",
					"type": "tuple"
				}
			],
			"name": "beforeCashOutRecordedWith",
			"outputs": [
				{
					"internalType": "uint256",
					"name": "cashOutTaxRate",
					"type": "uint256"
				},
				{
					"internalType": "uint256",
					"name": "cashOutCount",
					"type": "uint256"
				},
				{
					"internalType": "uint256",
					"name": "totalSupply",
					"type": "uint256"
				},
				{
					"components": [
						{
							"internalType": "contract IJBCashOutHook",
							"name": "hook",
							"type": "address"
						},
						{
							"internalType": "uint256",
							"name": "amount",
							"type": "uint256"
						},
						{
							"internalType": "bytes",
							"name": "metadata",
							"type": "bytes"
						}
					],
					"internalType": "struct JBCashOutHookSpecification[]",
					"name": "hookSpecifications",
					"type": "tuple[]"
				}
			],
			"stateMutability": "view",
			"type": "function"
		},
		{
			"inputs": [
				{
					"components": [
						{
							"internalType": "address",
							"name": "terminal",
							"type": "address"
						},
						{
							"internalType": "address",
							"name": "payer",
							"type": "address"
						},
						{
							"components": [
								{
									"internalType": "address",
									"name": "token",
									"type": "address"
								},
								{
									"internalType": "uint8",
									"name": "decimals",
									"type": "uint8"
								},
								{
									"internalType": "uint32",
									"name": "currency",
									"type": "uint32"
								},
								{
									"internalType": "uint256",
									"name": "value",
									"type": "uint256"
								}
							],
							"internalType": "struct JBTokenAmount",
							"name": "amount",
							"type": "tuple"
						},
						{
							"internalType": "uint256",
							"name": "projectId",
							"type": "uint256"
						},
						{
							"internalType": "uint256",
							"name": "rulesetId",
							"type": "uint256"
						},
						{
							"internalType": "address",
							"name": "beneficiary",
							"type": "address"
						},
						{
							"internalType": "uint256",
							"name": "weight",
							"type": "uint256"
						},
						{
							"internalType": "uint256",
							"name": "reservedPercent",
							"type": "uint256"
						},
						{
							"internalType": "bytes",
							"name": "metadata",
							"type": "bytes"
						}
					],
					"internalType": "struct JBBeforePayRecordedContext",
					"name": "context",
					"type": "tuple"
				}
			],
			"name": "beforePayRecordedWith",
			"outputs": [
				{
					"internalType": "uint256",
					"name": "weight",
					"type": "uint256"
				},
				{
					"components": [
						{
							"internalType": "contract IJBPayHook",
							"name": "hook",
							"type": "address"
						},
						{
							"internalType": "uint256",
							"name": "amount",
							"type": "uint256"
						},
						{
							"internalType": "bytes",
							"name": "metadata",
							"type": "bytes"
						}
					],
					"internalType": "struct JBPayHookSpecification[]",
					"name": "hookSpecifications",
					"type": "tuple[]"
				}
			],
			"stateMutability": "view",
			"type": "function"
		},
		{
			"inputs": [
				{
					"internalType": "uint256",
					"name": "revnetId",
					"type": "uint256"
				}
			],
			"name": "buybackHookOf",
			"outputs": [
				{
					"internalType": "contract IJBRulesetDataHook",
					"name": "buybackHook",
					"type": "address"
				}
			],
			"stateMutability": "view",
			"type": "function"
		},
		{
			"inputs": [
				{
					"internalType": "uint256",
					"name": "revnetId",
					"type": "uint256"
				}
			],
			"name": "cashOutDelayOf",
			"outputs": [
				{
					"internalType": "uint256",
					"name": "cashOutDelay",
					"type": "uint256"
				}
			],
			"stateMutability": "view",
			"type": "function"
		},
		{
			"inputs": [
				{
					"internalType": "uint256",
					"name": "revnetId",
					"type": "uint256"
				},
				{
					"components": [
						{
							"components": [
								{
									"internalType": "string",
									"name": "name",
									"type": "string"
								},
								{
									"internalType": "string",
									"name": "ticker",
									"type": "string"
								},
								{
									"internalType": "string",
									"name": "uri",
									"type": "string"
								},
								{
									"internalType": "bytes32",
									"name": "salt",
									"type": "bytes32"
								}
							],
							"internalType": "struct REVDescription",
							"name": "description",
							"type": "tuple"
						},
						{
							"internalType": "uint32",
							"name": "baseCurrency",
							"type": "uint32"
						},
						{
							"internalType": "address",
							"name": "splitOperator",
							"type": "address"
						},
						{
							"components": [
								{
									"internalType": "uint48",
									"name": "startsAtOrAfter",
									"type": "uint48"
								},
								{
									"components": [
										{
											"internalType": "uint32",
											"name": "chainId",
											"type": "uint32"
										},
										{
											"internalType": "uint104",
											"name": "count",
											"type": "uint104"
										},
										{
											"internalType": "address",
											"name": "beneficiary",
											"type": "address"
										}
									],
									"internalType": "struct REVAutoIssuance[]",
									"name": "autoIssuances",
									"type": "tuple[]"
								},
								{
									"internalType": "uint16",
									"name": "splitPercent",
									"type": "uint16"
								},
								{
									"components": [
										{
											"internalType": "uint32",
											"name": "percent",
											"type": "uint32"
										},
										{
											"internalType": "uint64",
											"name": "projectId",
											"type": "uint64"
										},
										{
											"internalType": "address payable",
											"name": "beneficiary",
											"type": "address"
										},
										{
											"internalType": "bool",
											"name": "preferAddToBalance",
											"type": "bool"
										},
										{
											"internalType": "uint48",
											"name": "lockedUntil",
											"type": "uint48"
										},
										{
											"internalType": "contract IJBSplitHook",
											"name": "hook",
											"type": "address"
										}
									],
									"internalType": "struct JBSplit[]",
									"name": "splits",
									"type": "tuple[]"
								},
								{
									"internalType": "uint112",
									"name": "initialIssuance",
									"type": "uint112"
								},
								{
									"internalType": "uint32",
									"name": "issuanceCutFrequency",
									"type": "uint32"
								},
								{
									"internalType": "uint32",
									"name": "issuanceCutPercent",
									"type": "uint32"
								},
								{
									"internalType": "uint16",
									"name": "cashOutTaxRate",
									"type": "uint16"
								},
								{
									"internalType": "uint16",
									"name": "extraMetadata",
									"type": "uint16"
								}
							],
							"internalType": "struct REVStageConfig[]",
							"name": "stageConfigurations",
							"type": "tuple[]"
						},
						{
							"components": [
								{
									"internalType": "address",
									"name": "token",
									"type": "address"
								},
								{
									"internalType": "contract IJBPayoutTerminal",
									"name": "terminal",
									"type": "address"
								}
							],
							"internalType": "struct REVLoanSource[]",
							"name": "loanSources",
							"type": "tuple[]"
						},
						{
							"internalType": "address",
							"name": "loans",
							"type": "address"
						}
					],
					"internalType": "struct REVConfig",
					"name": "configuration",
					"type": "tuple"
				},
				{
					"components": [
						{
							"internalType": "contract IJBTerminal",
							"name": "terminal",
							"type": "address"
						},
						{
							"components": [
								{
									"internalType": "address",
									"name": "token",
									"type": "address"
								},
								{
									"internalType": "uint8",
									"name": "decimals",
									"type": "uint8"
								},
								{
									"internalType": "uint32",
									"name": "currency",
									"type": "uint32"
								}
							],
							"internalType": "struct JBAccountingContext[]",
							"name": "accountingContextsToAccept",
							"type": "tuple[]"
						}
					],
					"internalType": "struct JBTerminalConfig[]",
					"name": "terminalConfigurations",
					"type": "tuple[]"
				},
				{
					"components": [
						{
							"internalType": "contract IJBRulesetDataHook",
							"name": "dataHook",
							"type": "address"
						},
						{
							"internalType": "contract IJBBuybackHook",
							"name": "hookToConfigure",
							"type": "address"
						},
						{
							"components": [
								{
									"internalType": "address",
									"name": "token",
									"type": "address"
								},
								{
									"internalType": "uint24",
									"name": "fee",
									"type": "uint24"
								},
								{
									"internalType": "uint32",
									"name": "twapWindow",
									"type": "uint32"
								}
							],
							"internalType": "struct REVBuybackPoolConfig[]",
							"name": "poolConfigurations",
							"type": "tuple[]"
						}
					],
					"internalType": "struct REVBuybackHookConfig",
					"name": "buybackHookConfiguration",
					"type": "tuple"
				},
				{
					"components": [
						{
							"components": [
								{
									"internalType": "contract IJBSuckerDeployer",
									"name": "deployer",
									"type": "address"
								},
								{
									"components": [
										{
											"internalType": "address",
											"name": "localToken",
											"type": "address"
										},
										{
											"internalType": "uint32",
											"name": "minGas",
											"type": "uint32"
										},
										{
											"internalType": "address",
											"name": "remoteToken",
											"type": "address"
										},
										{
											"internalType": "uint256",
											"name": "minBridgeAmount",
											"type": "uint256"
										}
									],
									"internalType": "struct JBTokenMapping[]",
									"name": "mappings",
									"type": "tuple[]"
								}
							],
							"internalType": "struct JBSuckerDeployerConfig[]",
							"name": "deployerConfigurations",
							"type": "tuple[]"
						},
						{
							"internalType": "bytes32",
							"name": "salt",
							"type": "bytes32"
						}
					],
					"internalType": "struct REVSuckerDeploymentConfig",
					"name": "suckerDeploymentConfiguration",
					"type": "tuple"
				}
			],
			"name": "deployFor",
			"outputs": [
				{
					"internalType": "uint256",
					"name": "",
					"type": "uint256"
				}
			],
			"stateMutability": "nonpayable",
			"type": "function"
		},
		{
			"inputs": [
				{
					"internalType": "uint256",
					"name": "revnetId",
					"type": "uint256"
				},
				{
					"components": [
						{
							"components": [
								{
									"internalType": "contract IJBSuckerDeployer",
									"name": "deployer",
									"type": "address"
								},
								{
									"components": [
										{
											"internalType": "address",
											"name": "localToken",
											"type": "address"
										},
										{
											"internalType": "uint32",
											"name": "minGas",
											"type": "uint32"
										},
										{
											"internalType": "address",
											"name": "remoteToken",
											"type": "address"
										},
										{
											"internalType": "uint256",
											"name": "minBridgeAmount",
											"type": "uint256"
										}
									],
									"internalType": "struct JBTokenMapping[]",
									"name": "mappings",
									"type": "tuple[]"
								}
							],
							"internalType": "struct JBSuckerDeployerConfig[]",
							"name": "deployerConfigurations",
							"type": "tuple[]"
						},
						{
							"internalType": "bytes32",
							"name": "salt",
							"type": "bytes32"
						}
					],
					"internalType": "struct REVSuckerDeploymentConfig",
					"name": "suckerDeploymentConfiguration",
					"type": "tuple"
				}
			],
			"name": "deploySuckersFor",
			"outputs": [
				{
					"internalType": "address[]",
					"name": "suckers",
					"type": "address[]"
				}
			],
			"stateMutability": "nonpayable",
			"type": "function"
		},
		{
			"inputs": [
				{
					"internalType": "uint256",
					"name": "revnetId",
					"type": "uint256"
				},
				{
					"components": [
						{
							"components": [
								{
									"internalType": "string",
									"name": "name",
									"type": "string"
								},
								{
									"internalType": "string",
									"name": "ticker",
									"type": "string"
								},
								{
									"internalType": "string",
									"name": "uri",
									"type": "string"
								},
								{
									"internalType": "bytes32",
									"name": "salt",
									"type": "bytes32"
								}
							],
							"internalType": "struct REVDescription",
							"name": "description",
							"type": "tuple"
						},
						{
							"internalType": "uint32",
							"name": "baseCurrency",
							"type": "uint32"
						},
						{
							"internalType": "address",
							"name": "splitOperator",
							"type": "address"
						},
						{
							"components": [
								{
									"internalType": "uint48",
									"name": "startsAtOrAfter",
									"type": "uint48"
								},
								{
									"components": [
										{
											"internalType": "uint32",
											"name": "chainId",
											"type": "uint32"
										},
										{
											"internalType": "uint104",
											"name": "count",
											"type": "uint104"
										},
										{
											"internalType": "address",
											"name": "beneficiary",
											"type": "address"
										}
									],
									"internalType": "struct REVAutoIssuance[]",
									"name": "autoIssuances",
									"type": "tuple[]"
								},
								{
									"internalType": "uint16",
									"name": "splitPercent",
									"type": "uint16"
								},
								{
									"components": [
										{
											"internalType": "uint32",
											"name": "percent",
											"type": "uint32"
										},
										{
											"internalType": "uint64",
											"name": "projectId",
											"type": "uint64"
										},
										{
											"internalType": "address payable",
											"name": "beneficiary",
											"type": "address"
										},
										{
											"internalType": "bool",
											"name": "preferAddToBalance",
											"type": "bool"
										},
										{
											"internalType": "uint48",
											"name": "lockedUntil",
											"type": "uint48"
										},
										{
											"internalType": "contract IJBSplitHook",
											"name": "hook",
											"type": "address"
										}
									],
									"internalType": "struct JBSplit[]",
									"name": "splits",
									"type": "tuple[]"
								},
								{
									"internalType": "uint112",
									"name": "initialIssuance",
									"type": "uint112"
								},
								{
									"internalType": "uint32",
									"name": "issuanceCutFrequency",
									"type": "uint32"
								},
								{
									"internalType": "uint32",
									"name": "issuanceCutPercent",
									"type": "uint32"
								},
								{
									"internalType": "uint16",
									"name": "cashOutTaxRate",
									"type": "uint16"
								},
								{
									"internalType": "uint16",
									"name": "extraMetadata",
									"type": "uint16"
								}
							],
							"internalType": "struct REVStageConfig[]",
							"name": "stageConfigurations",
							"type": "tuple[]"
						},
						{
							"components": [
								{
									"internalType": "address",
									"name": "token",
									"type": "address"
								},
								{
									"internalType": "contract IJBPayoutTerminal",
									"name": "terminal",
									"type": "address"
								}
							],
							"internalType": "struct REVLoanSource[]",
							"name": "loanSources",
							"type": "tuple[]"
						},
						{
							"internalType": "address",
							"name": "loans",
							"type": "address"
						}
					],
					"internalType": "struct REVConfig",
					"name": "configuration",
					"type": "tuple"
				},
				{
					"components": [
						{
							"internalType": "contract IJBTerminal",
							"name": "terminal",
							"type": "address"
						},
						{
							"components": [
								{
									"internalType": "address",
									"name": "token",
									"type": "address"
								},
								{
									"internalType": "uint8",
									"name": "decimals",
									"type": "uint8"
								},
								{
									"internalType": "uint32",
									"name": "currency",
									"type": "uint32"
								}
							],
							"internalType": "struct JBAccountingContext[]",
							"name": "accountingContextsToAccept",
							"type": "tuple[]"
						}
					],
					"internalType": "struct JBTerminalConfig[]",
					"name": "terminalConfigurations",
					"type": "tuple[]"
				},
				{
					"components": [
						{
							"internalType": "contract IJBRulesetDataHook",
							"name": "dataHook",
							"type": "address"
						},
						{
							"internalType": "contract IJBBuybackHook",
							"name": "hookToConfigure",
							"type": "address"
						},
						{
							"components": [
								{
									"internalType": "address",
									"name": "token",
									"type": "address"
								},
								{
									"internalType": "uint24",
									"name": "fee",
									"type": "uint24"
								},
								{
									"internalType": "uint32",
									"name": "twapWindow",
									"type": "uint32"
								}
							],
							"internalType": "struct REVBuybackPoolConfig[]",
							"name": "poolConfigurations",
							"type": "tuple[]"
						}
					],
					"internalType": "struct REVBuybackHookConfig",
					"name": "buybackHookConfiguration",
					"type": "tuple"
				},
				{
					"components": [
						{
							"components": [
								{
									"internalType": "contract IJBSuckerDeployer",
									"name": "deployer",
									"type": "address"
								},
								{
									"components": [
										{
											"internalType": "address",
											"name": "localToken",
											"type": "address"
										},
										{
											"internalType": "uint32",
											"name": "minGas",
											"type": "uint32"
										},
										{
											"internalType": "address",
											"name": "remoteToken",
											"type": "address"
										},
										{
											"internalType": "uint256",
											"name": "minBridgeAmount",
											"type": "uint256"
										}
									],
									"internalType": "struct JBTokenMapping[]",
									"name": "mappings",
									"type": "tuple[]"
								}
							],
							"internalType": "struct JBSuckerDeployerConfig[]",
							"name": "deployerConfigurations",
							"type": "tuple[]"
						},
						{
							"internalType": "bytes32",
							"name": "salt",
							"type": "bytes32"
						}
					],
					"internalType": "struct REVSuckerDeploymentConfig",
					"name": "suckerDeploymentConfiguration",
					"type": "tuple"
				},
				{
					"components": [
						{
							"components": [
								{
									"internalType": "string",
									"name": "name",
									"type": "string"
								},
								{
									"internalType": "string",
									"name": "symbol",
									"type": "string"
								},
								{
									"internalType": "string",
									"name": "baseUri",
									"type": "string"
								},
								{
									"internalType": "contract IJB721TokenUriResolver",
									"name": "tokenUriResolver",
									"type": "address"
								},
								{
									"internalType": "string",
									"name": "contractUri",
									"type": "string"
								},
								{
									"components": [
										{
											"components": [
												{
													"internalType": "uint104",
													"name": "price",
													"type": "uint104"
												},
												{
													"internalType": "uint32",
													"name": "initialSupply",
													"type": "uint32"
												},
												{
													"internalType": "uint32",
													"name": "votingUnits",
													"type": "uint32"
												},
												{
													"internalType": "uint16",
													"name": "reserveFrequency",
													"type": "uint16"
												},
												{
													"internalType": "address",
													"name": "reserveBeneficiary",
													"type": "address"
												},
												{
													"internalType": "bytes32",
													"name": "encodedIPFSUri",
													"type": "bytes32"
												},
												{
													"internalType": "uint24",
													"name": "category",
													"type": "uint24"
												},
												{
													"internalType": "uint8",
													"name": "discountPercent",
													"type": "uint8"
												},
												{
													"internalType": "bool",
													"name": "allowOwnerMint",
													"type": "bool"
												},
												{
													"internalType": "bool",
													"name": "useReserveBeneficiaryAsDefault",
													"type": "bool"
												},
												{
													"internalType": "bool",
													"name": "transfersPausable",
													"type": "bool"
												},
												{
													"internalType": "bool",
													"name": "useVotingUnits",
													"type": "bool"
												},
												{
													"internalType": "bool",
													"name": "cannotBeRemoved",
													"type": "bool"
												},
												{
													"internalType": "bool",
													"name": "cannotIncreaseDiscountPercent",
													"type": "bool"
												}
											],
											"internalType": "struct JB721TierConfig[]",
											"name": "tiers",
											"type": "tuple[]"
										},
										{
											"internalType": "uint32",
											"name": "currency",
											"type": "uint32"
										},
										{
											"internalType": "uint8",
											"name": "decimals",
											"type": "uint8"
										},
										{
											"internalType": "contract IJBPrices",
											"name": "prices",
											"type": "address"
										}
									],
									"internalType": "struct JB721InitTiersConfig",
									"name": "tiersConfig",
									"type": "tuple"
								},
								{
									"internalType": "address",
									"name": "reserveBeneficiary",
									"type": "address"
								},
								{
									"components": [
										{
											"internalType": "bool",
											"name": "noNewTiersWithReserves",
											"type": "bool"
										},
										{
											"internalType": "bool",
											"name": "noNewTiersWithVotes",
											"type": "bool"
										},
										{
											"internalType": "bool",
											"name": "noNewTiersWithOwnerMinting",
											"type": "bool"
										},
										{
											"internalType": "bool",
											"name": "preventOverspending",
											"type": "bool"
										}
									],
									"internalType": "struct JB721TiersHookFlags",
									"name": "flags",
									"type": "tuple"
								}
							],
							"internalType": "struct JBDeploy721TiersHookConfig",
							"name": "baseline721HookConfiguration",
							"type": "tuple"
						},
						{
							"internalType": "bytes32",
							"name": "salt",
							"type": "bytes32"
						},
						{
							"internalType": "bool",
							"name": "splitOperatorCanAdjustTiers",
							"type": "bool"
						},
						{
							"internalType": "bool",
							"name": "splitOperatorCanUpdateMetadata",
							"type": "bool"
						},
						{
							"internalType": "bool",
							"name": "splitOperatorCanMint",
							"type": "bool"
						},
						{
							"internalType": "bool",
							"name": "splitOperatorCanIncreaseDiscountPercent",
							"type": "bool"
						}
					],
					"internalType": "struct REVDeploy721TiersHookConfig",
					"name": "tiered721HookConfiguration",
					"type": "tuple"
				},
				{
					"components": [
						{
							"internalType": "uint24",
							"name": "category",
							"type": "uint24"
						},
						{
							"internalType": "uint104",
							"name": "minimumPrice",
							"type": "uint104"
						},
						{
							"internalType": "uint32",
							"name": "minimumTotalSupply",
							"type": "uint32"
						},
						{
							"internalType": "uint32",
							"name": "maximumTotalSupply",
							"type": "uint32"
						},
						{
							"internalType": "address[]",
							"name": "allowedAddresses",
							"type": "address[]"
						}
					],
					"internalType": "struct REVCroptopAllowedPost[]",
					"name": "allowedPosts",
					"type": "tuple[]"
				}
			],
			"name": "deployWith721sFor",
			"outputs": [
				{
					"internalType": "uint256",
					"name": "",
					"type": "uint256"
				},
				{
					"internalType": "contract IJB721TiersHook",
					"name": "hook",
					"type": "address"
				}
			],
			"stateMutability": "nonpayable",
			"type": "function"
		},
		{
			"inputs": [
				{
					"internalType": "uint256",
					"name": "revnetId",
					"type": "uint256"
				},
				{
					"components": [
						{
							"internalType": "uint48",
							"name": "cycleNumber",
							"type": "uint48"
						},
						{
							"internalType": "uint48",
							"name": "id",
							"type": "uint48"
						},
						{
							"internalType": "uint48",
							"name": "basedOnId",
							"type": "uint48"
						},
						{
							"internalType": "uint48",
							"name": "start",
							"type": "uint48"
						},
						{
							"internalType": "uint32",
							"name": "duration",
							"type": "uint32"
						},
						{
							"internalType": "uint112",
							"name": "weight",
							"type": "uint112"
						},
						{
							"internalType": "uint32",
							"name": "weightCutPercent",
							"type": "uint32"
						},
						{
							"internalType": "contract IJBRulesetApprovalHook",
							"name": "approvalHook",
							"type": "address"
						},
						{
							"internalType": "uint256",
							"name": "metadata",
							"type": "uint256"
						}
					],
					"internalType": "struct JBRuleset",
					"name": "ruleset",
					"type": "tuple"
				},
				{
					"internalType": "address",
					"name": "addr",
					"type": "address"
				}
			],
			"name": "hasMintPermissionFor",
			"outputs": [
				{
					"internalType": "bool",
					"name": "",
					"type": "bool"
				}
			],
			"stateMutability": "view",
			"type": "function"
		},
		{
			"inputs": [
				{
					"internalType": "uint256",
					"name": "revnetId",
					"type": "uint256"
				}
			],
			"name": "hashedEncodedConfigurationOf",
			"outputs": [
				{
					"internalType": "bytes32",
					"name": "hashedEncodedConfiguration",
					"type": "bytes32"
				}
			],
			"stateMutability": "view",
			"type": "function"
		},
		{
			"inputs": [
				{
					"internalType": "uint256",
					"name": "revnetId",
					"type": "uint256"
				},
				{
					"internalType": "address",
					"name": "addr",
					"type": "address"
				}
			],
			"name": "isSplitOperatorOf",
			"outputs": [
				{
					"internalType": "bool",
					"name": "",
					"type": "bool"
				}
			],
			"stateMutability": "view",
			"type": "function"
		},
		{
			"inputs": [
				{
					"internalType": "address",
					"name": "forwarder",
					"type": "address"
				}
			],
			"name": "isTrustedForwarder",
			"outputs": [
				{
					"internalType": "bool",
					"name": "",
					"type": "bool"
				}
			],
			"stateMutability": "view",
			"type": "function"
		},
		{
			"inputs": [
				{
					"internalType": "uint256",
					"name": "revnetId",
					"type": "uint256"
				}
			],
			"name": "loansOf",
			"outputs": [
				{
					"internalType": "address",
					"name": "",
					"type": "address"
				}
			],
			"stateMutability": "view",
			"type": "function"
		},
		{
			"inputs": [
				{
					"internalType": "address",
					"name": "",
					"type": "address"
				},
				{
					"internalType": "address",
					"name": "",
					"type": "address"
				},
				{
					"internalType": "uint256",
					"name": "",
					"type": "uint256"
				},
				{
					"internalType": "bytes",
					"name": "",
					"type": "bytes"
				}
			],
			"name": "onERC721Received",
			"outputs": [
				{
					"internalType": "bytes4",
					"name": "",
					"type": "bytes4"
				}
			],
			"stateMutability": "view",
			"type": "function"
		},
		{
			"inputs": [
				{
					"internalType": "uint256",
					"name": "revnetId",
					"type": "uint256"
				},
				{
					"internalType": "address",
					"name": "newSplitOperator",
					"type": "address"
				}
			],
			"name": "setSplitOperatorOf",
			"outputs": [],
			"stateMutability": "nonpayable",
			"type": "function"
		},
		{
			"inputs": [
				{
					"internalType": "bytes4",
					"name": "interfaceId",
					"type": "bytes4"
				}
			],
			"name": "supportsInterface",
			"outputs": [
				{
					"internalType": "bool",
					"name": "",
					"type": "bool"
				}
			],
			"stateMutability": "view",
			"type": "function"
		},
		{
			"inputs": [
				{
					"internalType": "uint256",
					"name": "revnetId",
					"type": "uint256"
				}
			],
			"name": "tiered721HookOf",
			"outputs": [
				{
					"internalType": "contract IJB721TiersHook",
					"name": "tiered721Hook",
					"type": "address"
				}
			],
			"stateMutability": "view",
			"type": "function"
		},
		{
			"inputs": [],
			"name": "trustedForwarder",
			"outputs": [
				{
					"internalType": "address",
					"name": "",
					"type": "address"
				}
			],
			"stateMutability": "view",
			"type": "function"
		},
		{
			"anonymous": false,
			"inputs": [
				{
					"indexed": true,
					"internalType": "uint256",
					"name": "revnetId",
					"type": "uint256"
				},
				{
					"indexed": true,
					"internalType": "uint256",
					"name": "stageId",
					"type": "uint256"
				},
				{
					"indexed": true,
					"internalType": "address",
					"name": "beneficiary",
					"type": "address"
				},
				{
					"indexed": false,
					"internalType": "uint256",
					"name": "count",
					"type": "uint256"
				},
				{
					"indexed": false,
					"internalType": "address",
					"name": "caller",
					"type": "address"
				}
			],
			"name": "AutoIssue",
			"type": "event"
		},
		{
			"anonymous": false,
			"inputs": [
				{
					"indexed": true,
					"internalType": "uint256",
					"name": "revnetId",
					"type": "uint256"
				},
				{
					"components": [
						{
							"components": [
								{
									"internalType": "string",
									"name": "name",
									"type": "string"
								},
								{
									"internalType": "string",
									"name": "ticker",
									"type": "string"
								},
								{
									"internalType": "string",
									"name": "uri",
									"type": "string"
								},
								{
									"internalType": "bytes32",
									"name": "salt",
									"type": "bytes32"
								}
							],
							"internalType": "struct REVDescription",
							"name": "description",
							"type": "tuple"
						},
						{
							"internalType": "uint32",
							"name": "baseCurrency",
							"type": "uint32"
						},
						{
							"internalType": "address",
							"name": "splitOperator",
							"type": "address"
						},
						{
							"components": [
								{
									"internalType": "uint48",
									"name": "startsAtOrAfter",
									"type": "uint48"
								},
								{
									"components": [
										{
											"internalType": "uint32",
											"name": "chainId",
											"type": "uint32"
										},
										{
											"internalType": "uint104",
											"name": "count",
											"type": "uint104"
										},
										{
											"internalType": "address",
											"name": "beneficiary",
											"type": "address"
										}
									],
									"internalType": "struct REVAutoIssuance[]",
									"name": "autoIssuances",
									"type": "tuple[]"
								},
								{
									"internalType": "uint16",
									"name": "splitPercent",
									"type": "uint16"
								},
								{
									"components": [
										{
											"internalType": "uint32",
											"name": "percent",
											"type": "uint32"
										},
										{
											"internalType": "uint64",
											"name": "projectId",
											"type": "uint64"
										},
										{
											"internalType": "address payable",
											"name": "beneficiary",
											"type": "address"
										},
										{
											"internalType": "bool",
											"name": "preferAddToBalance",
											"type": "bool"
										},
										{
											"internalType": "uint48",
											"name": "lockedUntil",
											"type": "uint48"
										},
										{
											"internalType": "contract IJBSplitHook",
											"name": "hook",
											"type": "address"
										}
									],
									"internalType": "struct JBSplit[]",
									"name": "splits",
									"type": "tuple[]"
								},
								{
									"internalType": "uint112",
									"name": "initialIssuance",
									"type": "uint112"
								},
								{
									"internalType": "uint32",
									"name": "issuanceCutFrequency",
									"type": "uint32"
								},
								{
									"internalType": "uint32",
									"name": "issuanceCutPercent",
									"type": "uint32"
								},
								{
									"internalType": "uint16",
									"name": "cashOutTaxRate",
									"type": "uint16"
								},
								{
									"internalType": "uint16",
									"name": "extraMetadata",
									"type": "uint16"
								}
							],
							"internalType": "struct REVStageConfig[]",
							"name": "stageConfigurations",
							"type": "tuple[]"
						},
						{
							"components": [
								{
									"internalType": "address",
									"name": "token",
									"type": "address"
								},
								{
									"internalType": "contract IJBPayoutTerminal",
									"name": "terminal",
									"type": "address"
								}
							],
							"internalType": "struct REVLoanSource[]",
							"name": "loanSources",
							"type": "tuple[]"
						},
						{
							"internalType": "address",
							"name": "loans",
							"type": "address"
						}
					],
					"indexed": false,
					"internalType": "struct REVConfig",
					"name": "configuration",
					"type": "tuple"
				},
				{
					"components": [
						{
							"internalType": "contract IJBTerminal",
							"name": "terminal",
							"type": "address"
						},
						{
							"components": [
								{
									"internalType": "address",
									"name": "token",
									"type": "address"
								},
								{
									"internalType": "uint8",
									"name": "decimals",
									"type": "uint8"
								},
								{
									"internalType": "uint32",
									"name": "currency",
									"type": "uint32"
								}
							],
							"internalType": "struct JBAccountingContext[]",
							"name": "accountingContextsToAccept",
							"type": "tuple[]"
						}
					],
					"indexed": false,
					"internalType": "struct JBTerminalConfig[]",
					"name": "terminalConfigurations",
					"type": "tuple[]"
				},
				{
					"components": [
						{
							"internalType": "contract IJBRulesetDataHook",
							"name": "dataHook",
							"type": "address"
						},
						{
							"internalType": "contract IJBBuybackHook",
							"name": "hookToConfigure",
							"type": "address"
						},
						{
							"components": [
								{
									"internalType": "address",
									"name": "token",
									"type": "address"
								},
								{
									"internalType": "uint24",
									"name": "fee",
									"type": "uint24"
								},
								{
									"internalType": "uint32",
									"name": "twapWindow",
									"type": "uint32"
								}
							],
							"internalType": "struct REVBuybackPoolConfig[]",
							"name": "poolConfigurations",
							"type": "tuple[]"
						}
					],
					"indexed": false,
					"internalType": "struct REVBuybackHookConfig",
					"name": "buybackHookConfiguration",
					"type": "tuple"
				},
				{
					"components": [
						{
							"components": [
								{
									"internalType": "contract IJBSuckerDeployer",
									"name": "deployer",
									"type": "address"
								},
								{
									"components": [
										{
											"internalType": "address",
											"name": "localToken",
											"type": "address"
										},
										{
											"internalType": "uint32",
											"name": "minGas",
											"type": "uint32"
										},
										{
											"internalType": "address",
											"name": "remoteToken",
											"type": "address"
										},
										{
											"internalType": "uint256",
											"name": "minBridgeAmount",
											"type": "uint256"
										}
									],
									"internalType": "struct JBTokenMapping[]",
									"name": "mappings",
									"type": "tuple[]"
								}
							],
							"internalType": "struct JBSuckerDeployerConfig[]",
							"name": "deployerConfigurations",
							"type": "tuple[]"
						},
						{
							"internalType": "bytes32",
							"name": "salt",
							"type": "bytes32"
						}
					],
					"indexed": false,
					"internalType": "struct REVSuckerDeploymentConfig",
					"name": "suckerDeploymentConfiguration",
					"type": "tuple"
				},
				{
					"components": [
						{
							"internalType": "uint48",
							"name": "mustStartAtOrAfter",
							"type": "uint48"
						},
						{
							"internalType": "uint32",
							"name": "duration",
							"type": "uint32"
						},
						{
							"internalType": "uint112",
							"name": "weight",
							"type": "uint112"
						},
						{
							"internalType": "uint32",
							"name": "weightCutPercent",
							"type": "uint32"
						},
						{
							"internalType": "contract IJBRulesetApprovalHook",
							"name": "approvalHook",
							"type": "address"
						},
						{
							"components": [
								{
									"internalType": "uint16",
									"name": "reservedPercent",
									"type": "uint16"
								},
								{
									"internalType": "uint16",
									"name": "cashOutTaxRate",
									"type": "uint16"
								},
								{
									"internalType": "uint32",
									"name": "baseCurrency",
									"type": "uint32"
								},
								{
									"internalType": "bool",
									"name": "pausePay",
									"type": "bool"
								},
								{
									"internalType": "bool",
									"name": "pauseCreditTransfers",
									"type": "bool"
								},
								{
									"internalType": "bool",
									"name": "allowOwnerMinting",
									"type": "bool"
								},
								{
									"internalType": "bool",
									"name": "allowSetCustomToken",
									"type": "bool"
								},
								{
									"internalType": "bool",
									"name": "allowTerminalMigration",
									"type": "bool"
								},
								{
									"internalType": "bool",
									"name": "allowSetTerminals",
									"type": "bool"
								},
								{
									"internalType": "bool",
									"name": "allowSetController",
									"type": "bool"
								},
								{
									"internalType": "bool",
									"name": "allowAddAccountingContext",
									"type": "bool"
								},
								{
									"internalType": "bool",
									"name": "allowAddPriceFeed",
									"type": "bool"
								},
								{
									"internalType": "bool",
									"name": "ownerMustSendPayouts",
									"type": "bool"
								},
								{
									"internalType": "bool",
									"name": "holdFees",
									"type": "bool"
								},
								{
									"internalType": "bool",
									"name": "useTotalSurplusForCashOuts",
									"type": "bool"
								},
								{
									"internalType": "bool",
									"name": "useDataHookForPay",
									"type": "bool"
								},
								{
									"internalType": "bool",
									"name": "useDataHookForCashOut",
									"type": "bool"
								},
								{
									"internalType": "address",
									"name": "dataHook",
									"type": "address"
								},
								{
									"internalType": "uint16",
									"name": "metadata",
									"type": "uint16"
								}
							],
							"internalType": "struct JBRulesetMetadata",
							"name": "metadata",
							"type": "tuple"
						},
						{
							"components": [
								{
									"internalType": "uint256",
									"name": "groupId",
									"type": "uint256"
								},
								{
									"components": [
										{
											"internalType": "uint32",
											"name": "percent",
											"type": "uint32"
										},
										{
											"internalType": "uint64",
											"name": "projectId",
											"type": "uint64"
										},
										{
											"internalType": "address payable",
											"name": "beneficiary",
											"type": "address"
										},
										{
											"internalType": "bool",
											"name": "preferAddToBalance",
											"type": "bool"
										},
										{
											"internalType": "uint48",
											"name": "lockedUntil",
											"type": "uint48"
										},
										{
											"internalType": "contract IJBSplitHook",
											"name": "hook",
											"type": "address"
										}
									],
									"internalType": "struct JBSplit[]",
									"name": "splits",
									"type": "tuple[]"
								}
							],
							"internalType": "struct JBSplitGroup[]",
							"name": "splitGroups",
							"type": "tuple[]"
						},
						{
							"components": [
								{
									"internalType": "address",
									"name": "terminal",
									"type": "address"
								},
								{
									"internalType": "address",
									"name": "token",
									"type": "address"
								},
								{
									"components": [
										{
											"internalType": "uint224",
											"name": "amount",
											"type": "uint224"
										},
										{
											"internalType": "uint32",
											"name": "currency",
											"type": "uint32"
										}
									],
									"internalType": "struct JBCurrencyAmount[]",
									"name": "payoutLimits",
									"type": "tuple[]"
								},
								{
									"components": [
										{
											"internalType": "uint224",
											"name": "amount",
											"type": "uint224"
										},
										{
											"internalType": "uint32",
											"name": "currency",
											"type": "uint32"
										}
									],
									"internalType": "struct JBCurrencyAmount[]",
									"name": "surplusAllowances",
									"type": "tuple[]"
								}
							],
							"internalType": "struct JBFundAccessLimitGroup[]",
							"name": "fundAccessLimitGroups",
							"type": "tuple[]"
						}
					],
					"indexed": false,
					"internalType": "struct JBRulesetConfig[]",
					"name": "rulesetConfigurations",
					"type": "tuple[]"
				},
				{
					"indexed": false,
					"internalType": "bytes32",
					"name": "encodedConfigurationHash",
					"type": "bytes32"
				},
				{
					"indexed": false,
					"internalType": "address",
					"name": "caller",
					"type": "address"
				}
			],
			"name": "DeployRevnet",
			"type": "event"
		},
		{
			"anonymous": false,
			"inputs": [
				{
					"indexed": true,
					"internalType": "uint256",
					"name": "revnetId",
					"type": "uint256"
				},
				{
					"indexed": false,
					"internalType": "bytes32",
					"name": "encodedConfigurationHash",
					"type": "bytes32"
				},
				{
					"components": [
						{
							"components": [
								{
									"internalType": "contract IJBSuckerDeployer",
									"name": "deployer",
									"type": "address"
								},
								{
									"components": [
										{
											"internalType": "address",
											"name": "localToken",
											"type": "address"
										},
										{
											"internalType": "uint32",
											"name": "minGas",
											"type": "uint32"
										},
										{
											"internalType": "address",
											"name": "remoteToken",
											"type": "address"
										},
										{
											"internalType": "uint256",
											"name": "minBridgeAmount",
											"type": "uint256"
										}
									],
									"internalType": "struct JBTokenMapping[]",
									"name": "mappings",
									"type": "tuple[]"
								}
							],
							"internalType": "struct JBSuckerDeployerConfig[]",
							"name": "deployerConfigurations",
							"type": "tuple[]"
						},
						{
							"internalType": "bytes32",
							"name": "salt",
							"type": "bytes32"
						}
					],
					"indexed": false,
					"internalType": "struct REVSuckerDeploymentConfig",
					"name": "suckerDeploymentConfiguration",
					"type": "tuple"
				},
				{
					"indexed": false,
					"internalType": "address",
					"name": "caller",
					"type": "address"
				}
			],
			"name": "DeploySuckers",
			"type": "event"
		},
		{
			"anonymous": false,
			"inputs": [
				{
					"indexed": true,
					"internalType": "uint256",
					"name": "revnetId",
					"type": "uint256"
				},
				{
					"indexed": true,
					"internalType": "address",
					"name": "newSplitOperator",
					"type": "address"
				},
				{
					"indexed": false,
					"internalType": "address",
					"name": "caller",
					"type": "address"
				}
			],
			"name": "ReplaceSplitOperator",
			"type": "event"
		},
		{
			"anonymous": false,
			"inputs": [
				{
					"indexed": false,
					"internalType": "uint256",
					"name": "revnetId",
					"type": "uint256"
				},
				{
					"indexed": false,
					"internalType": "address",
					"name": "additionalOperator",
					"type": "address"
				},
				{
					"indexed": false,
					"internalType": "uint256[]",
					"name": "permissionIds",
					"type": "uint256[]"
				},
				{
					"indexed": false,
					"internalType": "address",
					"name": "caller",
					"type": "address"
				}
			],
			"name": "SetAdditionalOperator",
			"type": "event"
		},
		{
			"anonymous": false,
			"inputs": [
				{
					"indexed": true,
					"internalType": "uint256",
					"name": "revnetId",
					"type": "uint256"
				},
				{
					"indexed": false,
					"internalType": "uint256",
					"name": "cashOutDelay",
					"type": "uint256"
				},
				{
					"indexed": false,
					"internalType": "address",
					"name": "caller",
					"type": "address"
				}
			],
			"name": "SetCashOutDelay",
			"type": "event"
		},
		{
			"anonymous": false,
			"inputs": [
				{
					"indexed": true,
					"internalType": "uint256",
					"name": "revnetId",
					"type": "uint256"
				},
				{
					"indexed": true,
					"internalType": "uint256",
					"name": "stageId",
					"type": "uint256"
				},
				{
					"indexed": true,
					"internalType": "address",
					"name": "beneficiary",
					"type": "address"
				},
				{
					"indexed": false,
					"internalType": "uint256",
					"name": "count",
					"type": "uint256"
				},
				{
					"indexed": false,
					"internalType": "address",
					"name": "caller",
					"type": "address"
				}
			],
			"name": "StoreAutoIssuanceAmount",
			"type": "event"
		},
		{
			"inputs": [
				{
					"internalType": "uint256",
					"name": "x",
					"type": "uint256"
				},
				{
					"internalType": "uint256",
					"name": "y",
					"type": "uint256"
				},
				{
					"internalType": "uint256",
					"name": "denominator",
					"type": "uint256"
				}
			],
			"name": "PRBMath_MulDiv_Overflow",
			"type": "error"
		},
		{
			"inputs": [],
			"name": "REVDeployer_AutoIssuanceBeneficiaryZeroAddress",
			"type": "error"
		},
		{
			"inputs": [
				{
					"internalType": "uint256",
					"name": "cashOutDelay",
					"type": "uint256"
				},
				{
					"internalType": "uint256",
					"name": "blockTimestamp",
					"type": "uint256"
				}
			],
			"name": "REVDeployer_CashOutDelayNotFinished",
			"type": "error"
		},
		{
			"inputs": [
				{
					"internalType": "uint256",
					"name": "cashOutTaxRate",
					"type": "uint256"
				},
				{
					"internalType": "uint256",
					"name": "maxCashOutTaxRate",
					"type": "uint256"
				}
			],
			"name": "REVDeployer_CashOutsCantBeTurnedOffCompletely",
			"type": "error"
		},
		{
			"inputs": [
				{
					"internalType": "address",
					"name": "token",
					"type": "address"
				},
				{
					"internalType": "address",
					"name": "terminal",
					"type": "address"
				}
			],
			"name": "REVDeployer_LoanSourceDoesntMatchTerminalConfigurations",
			"type": "error"
		},
		{
			"inputs": [],
			"name": "REVDeployer_MustHaveSplits",
			"type": "error"
		},
		{
			"inputs": [],
			"name": "REVDeployer_NothingToAutoIssue",
			"type": "error"
		},
		{
			"inputs": [],
			"name": "REVDeployer_RulesetDoesNotAllowDeployingSuckers",
			"type": "error"
		},
		{
			"inputs": [
				{
					"internalType": "uint256",
					"name": "stageId",
					"type": "uint256"
				}
			],
			"name": "REVDeployer_StageNotStarted",
			"type": "error"
		},
		{
			"inputs": [],
			"name": "REVDeployer_StageTimesMustIncrease",
			"type": "error"
		},
		{
			"inputs": [],
			"name": "REVDeployer_StagesRequired",
			"type": "error"
		},
		{
			"inputs": [
				{
					"internalType": "uint256",
					"name": "revnetId",
					"type": "uint256"
				},
				{
					"internalType": "address",
					"name": "caller",
					"type": "address"
				}
			],
			"name": "REVDeployer_Unauthorized",
			"type": "error"
		},
		{
			"inputs": [
				{
					"internalType": "address",
					"name": "spender",
					"type": "address"
				},
				{
					"internalType": "uint256",
					"name": "currentAllowance",
					"type": "uint256"
				},
				{
					"internalType": "uint256",
					"name": "requestedDecrease",
					"type": "uint256"
				}
			],
			"name": "SafeERC20FailedDecreaseAllowance",
			"type": "error"
		},
		{
			"inputs": [
				{
					"internalType": "address",
					"name": "token",
					"type": "address"
				}
			],
			"name": "SafeERC20FailedOperation",
			"type": "error"
		}
	],
	"args": [],
	"solcInputHash": "f71d3fc8ea9b29896a8a303357115199",
	"bytecode": "0x6101a060405234801562000011575f80fd5b506040516200651c3803806200651c8339810160408190526200003491620002ec565b6001600160a01b03808216608052861660a0819052604080516388bc2ef360e01b815290516388bc2ef3916004808201926020929091908290030181865afa15801562000083573d5f803e3d5ffd5b505050506040513d601f19601f82011682018060405250810190620000a9919062000370565b6001600160a01b031660c0816001600160a01b031681525050856001600160a01b031663293c49996040518163ffffffff1660e01b8152600401602060405180830381865afa158015620000ff573d5f803e3d5ffd5b505050506040513d601f19601f8201168201806040525081019062000125919062000370565b6001600160a01b0316610140816001600160a01b03168152505060a0516001600160a01b031663f434c9146040518163ffffffff1660e01b8152600401602060405180830381865afa1580156200017e573d5f803e3d5ffd5b505050506040513d601f19601f82011682018060405250810190620001a4919062000370565b6001600160a01b039081166101205285811661018081905260e08690528482166101005290831661016052620001dd905f601c620001e9565b50505050505062000434565b6040805160018082528183019092525f916020808301908036833701905050905081815f8151811062000220576200022062000395565b60ff90921660209283029190910190910152620002403085858462000246565b50505050565b604080516060810182526001600160a01b0380861682526001600160401b0385166020830152818301849052610120519251631127c92960e21b81529192169063449f24a4906200029e9088908590600401620003a9565b5f604051808303815f87803b158015620002b6575f80fd5b505af1158015620002c9573d5f803e3d5ffd5b505050505050505050565b6001600160a01b0381168114620002e9575f80fd5b50565b5f805f805f8060c0878903121562000302575f80fd5b86516200030f81620002d4565b60208801519096506200032281620002d4565b6040880151606089015191965094506200033c81620002d4565b60808801519093506200034f81620002d4565b60a08801519092506200036281620002d4565b809150509295509295509295565b5f6020828403121562000381575f80fd5b81516200038e81620002d4565b9392505050565b634e487b7160e01b5f52603260045260245ffd5b6001600160a01b03838116825260406020808401829052845190921681840152838201516001600160401b0316606080850191909152908401516080840191909152805160a084018190525f929182019190839060c08601905b808310156200042857845160ff16825293830193600192909201919083019062000403565b50979650505050505050565b60805160a05160c05160e0516101005161012051610140516101605161018051615fe16200053b5f395f81816105500152818161288001526128fe01525f818161062a01528181611ac00152611b2701525f81816102b6015281816107e80152818161168a0152818161222e015261231101525f818161069001528181611192015261158901525f818161051d015261173601525f818161024801528181610f68015281816110f801526112d601525f818161046a01526112af01525f818161065d01528181610bca01528181610cb001528181610e51015281816121620152818161237d0152818161240501526124d201525f8181610435015261085c0152615fe15ff3fe6080604052600436106101a6575f3560e01c80638cc35846116100e3578063b987005d11610092578063dbfbe5da11610062578063dbfbe5da14610619578063ee0fc1211461064c578063f434c9141461067f578063fb82b1b0146106b2575f80fd5b8063b987005d146105b4578063c22903b2146105d3578063c57981b5146105e6578063db29c892146105fa575f80fd5b80638cc358461461048c578063902b742e146104b957806399f6d77f146104ed578063abf8c5c81461050c578063b5d255331461053f578063b78edb6614610572578063b8a843d71461059e575f80fd5b8063437e61071161015957806367d39de21161012957806367d39de2146103c85780637249a773146103f35780637da0a8771461042757806388bc2ef314610459575f80fd5b8063437e6107146103245780634fa9af691461035f578063572b6c051461038a5780636169a3bb146103a9575f80fd5b806244a005146101aa57806301ffc9a7146101cb578063150b7a02146101ff5780631680e172146102375780632545de8e14610278578063293c4999146102a55780633b7ae807146102f0575b5f80fd5b3480156101b5575f80fd5b506101c96101c4366004613794565b6106e1565b005b3480156101d6575f80fd5b506101ea6101e53660046137c2565b610770565b60405190151581526020015b60405180910390f35b34801561020a575f80fd5b5061021e6102193660046137e9565b6107dc565b6040516001600160e01b031990911681526020016101f6565b348015610242575f80fd5b5061026a7f000000000000000000000000000000000000000000000000000000000000000081565b6040519081526020016101f6565b348015610283575f80fd5b506102976102923660046138fc565b610823565b6040516101f69291906139fd565b3480156102b0575f80fd5b506102d87f000000000000000000000000000000000000000000000000000000000000000081565b6040516001600160a01b0390911681526020016101f6565b3480156102fb575f80fd5b506102d861030a366004613a14565b60046020525f90815260409020546001600160a01b031681565b34801561032f575f80fd5b5061026a61033e366004613a2b565b5f602081815293815260408082208552928152828120909352825290205481565b34801561036a575f80fd5b5061026a610379366004613a14565b60026020525f908152604090205481565b348015610395575f80fd5b506101ea6103a4366004613a61565b61085a565b3480156103b4575f80fd5b5061026a6103c3366004613a7c565b61088c565b3480156103d3575f80fd5b5061026a6103e2366004613a14565b60036020525f908152604090205481565b3480156103fe575f80fd5b506102d861040d366004613a14565b60016020525f90815260409020546001600160a01b031681565b348015610432575f80fd5b507f00000000000000000000000000000000000000000000000000000000000000006102d8565b348015610464575f80fd5b506102d87f000000000000000000000000000000000000000000000000000000000000000081565b348015610497575f80fd5b506104ab6104a6366004613b2e565b6108d1565b6040516101f6929190613bb2565b3480156104c4575f80fd5b506102d86104d3366004613a14565b60056020525f90815260409020546001600160a01b031681565b3480156104f8575f80fd5b506101ea610507366004613c41565b610acd565b348015610517575f80fd5b506102d87f000000000000000000000000000000000000000000000000000000000000000081565b34801561054a575f80fd5b506102d87f000000000000000000000000000000000000000000000000000000000000000081565b34801561057d575f80fd5b5061059161058c366004613c81565b610ba4565b6040516101f69190613d07565b3480156105a9575f80fd5b5061026a62278d0081565b3480156105bf575f80fd5b506101c96105ce366004613a2b565b610c91565b6101c96105e1366004613d19565b610ec3565b3480156105f1575f80fd5b5061026a601981565b348015610605575f80fd5b506101ea610614366004613794565b61118f565b348015610624575f80fd5b506102d87f000000000000000000000000000000000000000000000000000000000000000081565b348015610657575f80fd5b506102d87f000000000000000000000000000000000000000000000000000000000000000081565b34801561068a575f80fd5b506102d87f000000000000000000000000000000000000000000000000000000000000000081565b3480156106bd575f80fd5b506106d16106cc366004613d50565b61122d565b6040516101f69493929190613d87565b6106f2826106ed6114d2565b611522565b806001600160a01b0316827f0329d6a81434b130c72eb65eea0e32e429dc1277b4aad86ec86454aefb6184516107266114d2565b6040516001600160a01b03909116815260200160405180910390a36107623061074d6114d2565b604080515f815260208101909152859061154d565b61076c82826115d7565b5050565b5f6001600160e01b0319821663366f9f2160e01b14806107a057506001600160e01b0319821663eeb73e8960e01b145b806107bb57506001600160e01b0319821663611481d960e11b145b806107d657506001600160e01b03198216630a85bd0160e11b145b92915050565b5f336001600160a01b037f00000000000000000000000000000000000000000000000000000000000000001614610811575f80fd5b50630a85bd0160e11b95945050505050565b5f808a15801561083857610835611687565b9b505b61084a8c828d8d8d8d8d8d8d8d611718565b9b9c9a5050505050505050505050565b7f00000000000000000000000000000000000000000000000000000000000000006001600160a01b0390811691161490565b5f861580156108a05761089d611687565b97505b5f806108ae8a8a8a8a611b71565b915091506108c38a848b8b8b8b8b8989612151565b509798975050505050505050565b60c08101355f9081526001602052604081205460609081906001600160a01b0316801561096f57604051634661ac2360e11b81526001600160a01b03821690638cc3584690610924908890600401613f1c565b5f60405180830381865afa15801561093e573d5f803e3d5ffd5b505050506040513d5f823e601f3d908101601f1916820160405261096591908101906140a3565b9094509150610978565b84610120013593505b815160c08601355f908152600560205260409020546001909114906001600160a01b0316801515826109aa575f6109ad565b60015b816109b8575f6109bb565b60015b6109c59190614211565b60ff166001600160401b038111156109df576109df613e25565b604051908082528060200260200182016040528015610a2b57816020015b60408051606080820183525f8083526020830152918101919091528152602001906001900390816109fd5790505b5095508015610a84576040518060600160405280836001600160a01b031681526020015f815260200160405180602001604052805f815250815250865f81518110610a7857610a7861422a565b60200260200101819052505b8215610ac357845f81518110610a9c57610a9c61422a565b602002602001015186600181518110610ab757610ab761422a565b60200260200101819052505b5050505050915091565b5f8381526001602090815260408083205460049092528220546001600160a01b039182169184811691161480610b145750806001600160a01b0316836001600160a01b0316145b80610b8957506040516399f6d77f60e01b81526001600160a01b038216906399f6d77f90610b4a9088908890889060040161427b565b602060405180830381865afa158015610b65573d5f803e3d5ffd5b505050506040513d601f19601f82011682018060405250810190610b899190614396565b80610b995750610b998584612867565b9150505b9392505050565b6060610bb2836106ed6114d2565b6040516320c94b1360e11b8152600481018490525f907f00000000000000000000000000000000000000000000000000000000000000006001600160a01b03169063419296269060240161038060405180830381865afa158015610c18573d5f803e3d5ffd5b505050506040513d601f19601f82011682018060405250810190610c3c9190614560565b61024081015190925060021c600190811614905080610c6e57604051631abe0dd960e21b815260040160405180910390fd5b5f85815260036020526040902054610c88908690866128b7565b95945050505050565b604051630969875760e21b815260048101849052602481018390525f907f00000000000000000000000000000000000000000000000000000000000000006001600160a01b0316906325a61d5c9060440161038060405180830381865afa158015610cfe573d5f803e3d5ffd5b505050506040513d601f19601f82011682018060405250810190610d229190614560565b50905042816060015165ffffffffffff161115610d5a576040516374e6881560e11b8152600481018490526024015b60405180910390fd5b5f8481526020818152604080832086845282528083206001600160a01b038616845290915281205490819003610da35760405163357db1e760e21b815260040160405180910390fd5b5f8581526020818152604080832087845282528083206001600160a01b038716808552925282209190915584867f0ad8046f3d571312df6d1867ac30c26e100f5684a9d7c2d3340c4e2a5b56360f84610dfa6114d2565b604051610e089291906139fd565b60405180910390a46040516363fdc96f60e11b815260048101869052602481018290526001600160a01b03848116604483015260a060648301525f60a4830181905260848301527f0000000000000000000000000000000000000000000000000000000000000000169063c7fb92de9060c4016020604051808303815f875af1158015610e97573d5f803e3d5ffd5b505050506040513d601f19601f82011682018060405250810190610ebb9190614634565b505050505050565b61eeee610ed861012083016101008401613a61565b6001600160a01b031614610f1457610f143330610160840135610f0361012086016101008701613a61565b6001600160a01b03169291906129d7565b5f610f236101c083018361464b565b810190610f309190613a61565b90505f610f5482610f4961012086016101008701613a61565b610160860135612a3e565b90506001600160a01b03821663fef43257827f0000000000000000000000000000000000000000000000000000000000000000610f9961012088016101008901613a61565b610160880135610fac60208a018a613a61565b5f8a60200135604051602001610fc491815260200190565b6040516020818303038152906040526040518863ffffffff1660e01b8152600401610ff49695949392919061468d565b60206040518083038185885af19350505050801561102f575060408051601f3d908101601f1916820190925261102c91810190614634565b60015b611189573d80801561105c576040519150601f19603f3d011682016040523d82523d5f602084013e611061565b606091505b5061eeee61107761012086016101008701613a61565b6001600160a01b0316146110b1576110b1836101608601356110a161012088016101008901613a61565b6001600160a01b03169190612a76565b6110d2336110c761012087016101008801613a61565b610160870135612a3e565b915033639e6eec058360208701356110f261012089016101008a01613a61565b604080517f000000000000000000000000000000000000000000000000000000000000000060208201526101608b0135915f91016040516020818303038152906040526040518763ffffffff1660e01b81526004016111559594939291906146e4565b5f604051808303818588803b15801561116c575f80fd5b505af115801561117e573d5f803e3d5ffd5b505050505050505050565b50505050565b5f7f00000000000000000000000000000000000000000000000000000000000000006001600160a01b031663632af95f8330866111cb88612b30565b5f806040518763ffffffff1660e01b81526004016111ee96959493929190614730565b602060405180830381865afa158015611209573d5f803e3d5ffd5b505050506040513d601f19601f82011682018060405250810190610b9d9190614396565b5f8080606061124e604086018035906112499060208901613a61565b612867565b15611269575f85608001358660a001359350935093506114cb565b6040808601355f90815260026020522054428111156112a45760405163e4a9c90760e01b815260048101829052426024820152604401610d51565b5f6001600160a01b037f00000000000000000000000000000000000000000000000000000000000000001663862026507f000000000000000000000000000000000000000000000000000000000000000061130560e08b0160c08c01613a61565b6040518363ffffffff1660e01b81526004016113229291906139fd565b602060405180830381865afa15801561133d573d5f803e3d5ffd5b505050506040513d601f19601f8201168201806040525081019061136191906147a8565b9050610160870135158061137c57506001600160a01b038116155b1561139e5786610160013587608001358860a0013595509550955050506114cb565b5f6113b1608089013560196103e8612d0e565b90505f6113c28260808b01356147c3565b90505f6113df6101208b01358360a08d01356101608e0135612ddd565b90505f6114106113f4836101208e01356147c3565b85858e60a0013561140591906147c3565b8e6101600135612ddd565b604080516001808252818301909252919250816020015b60408051606080820183525f80835260208301529181019190915281526020019060019003908161142757505060408051606081018252308152602080820185905282516001600160a01b038a1691810191909152929950918282019101604051602081830303815290604052815250875f815181106114a9576114a961422a565b6020908102919091010152505061016089013597509550505060a08601359250505b9193509193565b5f3660146114df3361085a565b80156114eb5750808210155b1561151a575f366114fc83856147c3565b6115079282906147d6565b611510916147fd565b60601c9250505090565b339250505090565b61152c828261118f565b61076c5781816040516355e03cb160e11b8152600401610d519291906139fd565b604080516060810182526001600160a01b0380861682526001600160401b03851660208301528183018490529151631127c92960e21b815290917f0000000000000000000000000000000000000000000000000000000000000000169063449f24a4906115c09088908590600401614832565b5f604051808303815f87803b15801561116c575f80fd5b5f6115e183612b30565b90505f81516001600160401b038111156115fd576115fd613e25565b604051908082528060200260200182016040528015611626578160200160208202803683370190505b5090505f5b825181101561167a578281815181106116465761164661422a565b60200260200101518282815181106116605761166061422a565b60ff9092166020928302919091019091015260010161162b565b506111893084868461154d565b5f7f00000000000000000000000000000000000000000000000000000000000000006001600160a01b03166306661abd6040518163ffffffff1660e01b8152600401602060405180830381865afa1580156116e4573d5f803e3d5ffd5b505050506040513d601f19601f820116820180604052508101906117089190614634565b6117139060016148bb565b905090565b5f805f6117278d8c8c8c611b71565b90925090506001600160a01b037f00000000000000000000000000000000000000000000000000000000000000001663ea74b8af8e61176689806148ce565b8960200135856117746114d2565b604051602001611786939291906148ed565b604051602081830303815290604052805190602001206040518463ffffffff1660e01b81526004016117ba93929190614b9d565b6020604051808303815f875af11580156117d6573d5f803e3d5ffd5b505050506040513d601f19601f820116820180604052508101906117fa91906147a8565b5f8e8152600560205260409081902080546001600160a01b0319166001600160a01b0384161790559093506118359060608801908801614cc6565b1561185c575f8d815260066020908152604082208054600181018255908352912060149101555b61186c6080870160608801614cc6565b15611893575f8d815260066020908152604082208054600181018255908352912060159101555b6118a360a0870160808801614cc6565b156118ca575f8d815260066020908152604082208054600181018255908352912060169101555b6118da60c0870160a08801614cc6565b15611901575f8d815260066020908152604082208054600181018255908352912060179101555b8315611b50575f846001600160401b0381111561192057611920613e25565b60405190808252806020026020018201604052801561198057816020015b6040805160c0810182525f80825260208083018290529282018190526060808301829052608083019190915260a082015282525f1990920191018161193e5790505b5090505f5b85811015611aa857368787838181106119a0576119a061422a565b90506020028101906119b29190614ce1565b90506040518060c00160405280876001600160a01b03168152602001825f0160208101906119e09190614cf5565b62ffffff1681526020018260200160208101906119fd9190614d0e565b6001600160681b03168152602001611a1b6060840160408501614d27565b63ffffffff168152602001611a366080840160608501614d27565b63ffffffff168152602001611a4e6080840184614d42565b808060200260200160405190810160405280939291908181526020018383602002808284375f9201919091525050509152508351849084908110611a9457611a9461422a565b602090810291909101015250600101611985565b50604051631107934d60e21b81526001600160a01b037f0000000000000000000000000000000000000000000000000000000000000000169063441e4d3490611af5908490600401614d87565b5f604051808303815f87803b158015611b0c575f80fd5b505af1158015611b1e573d5f803e3d5ffd5b50505050611b4e7f00000000000000000000000000000000000000000000000000000000000000008f6014612e50565b505b611b618d8d8d8d8d8d8d8989612151565b50509a9950505050505050505050565b60605f611b8085830186614d42565b90505f03611ba15760405163050751e560e21b815260040160405180910390fd5b611bae6060860186614d42565b90506001600160401b03811115611bc757611bc7613e25565b604051908082528060200260200182016040528015611c0057816020015b611bed613687565b815260200190600190039081611be55790505b5091505f611c146040870160208801614d27565b611c2460c0880160a08901613a61565b611c2e8880614e4b565b611c38908061464b565b611c428a80614e4b565b611c5090602081019061464b565b611c5a8c80614e4b565b60600135604051602001611c749796959493929190614e5f565b60405160208183030381529060405290505f611c91878787612ea4565b90505f5b611ca26060890189614d42565b905081101561213b5736611cb960608a018a614d42565b83818110611cc957611cc961422a565b9050602002810190611cdb9190614eb7565b90505f611cee6060830160408401614ecc565b61ffff16118015611d0b5750611d076060820182614ee7565b1590505b15611d29576040516340fb407760e01b815260040160405180910390fd5b5f82118015611d9a5750611d4060608a018a614d42565b611d4b6001856147c3565b818110611d5a57611d5a61422a565b9050602002810190611d6c9190614eb7565b611d7a906020810190614f2b565b65ffffffffffff16611d8f6020830183614f2b565b65ffffffffffff1611155b15611db85760405163b787fe6760e01b815260040160405180910390fd5b612710611dcc610100830160e08401614ecc565b61ffff1610611e0e57611de6610100820160e08301614ecc565b6040516380922c6d60e01b815261ffff90911660048201526127106024820152604401610d51565b611e28611e2160408b0160208c01614d27565b828561310b565b868381518110611e3a57611e3a61422a565b602002602001018190525083825f148015611e675750611e5d6020830183614f2b565b65ffffffffffff16155b611e8557611e786020830183614f2b565b65ffffffffffff16611e87565b425b611e976060840160408501614ecc565b611ea760a0850160808601614f46565b611eb760c0860160a08701614d27565b611ec760e0870160c08801614d27565b611ed8610100880160e08901614ecc565b604051602001611eee9796959493929190614f61565b60405160208183030381529060405293505f5b611f0e6020830183614fba565b90508110156121315736611f256020840184614fba565b83818110611f3557611f3561422a565b90506060020190505f6001600160a01b0316816040016020810190611f5a9190613a61565b6001600160a01b031603611f815760405163b79e8c7d60e01b815260040160405180910390fd5b611f916040820160208301614d0e565b6001600160681b03165f03611fa65750612129565b85611fb46020830183614d27565b611fc46060840160408501613a61565b611fd46040850160208601614d0e565b604051602001611fe79493929190614ffe565b60408051601f198184030181529190529550466120076020830183614d27565b63ffffffff16146120185750612129565b6120286060820160408301613a61565b6001600160a01b031661203b85426148bb565b8d7f5c05d79eeb764b1f5069fb55a8558e8a5cec91813a64282bc198dc9084c75df061206d6040860160208701614d0e565b6120756114d2565b604080516001600160681b0390931683526001600160a01b0390911660208301520160405180910390a46120af6040820160208301614d0e565b5f8d81526020819052604081206001600160681b039290921691906120d487426148bb565b81526020019081526020015f205f8360400160208101906120f59190613a61565b6001600160a01b03166001600160a01b031681526020019081526020015f205f82825461212291906148bb565b9091555050505b600101611f01565b5050600101611c95565b5081805190602001209250505094509492505050565b871561221657886001600160a01b037f000000000000000000000000000000000000000000000000000000000000000016635c7465e5306121928b80614e4b565b6121a090604081019061464b565b878c8c6040518763ffffffff1660e01b81526004016121c496959493929190615551565b6020604051808303815f875af11580156121e0573d5f803e3d5ffd5b505050506040513d601f19601f820116820180604052508101906122049190614634565b14612211576122116155ba565b612490565b6040516331a9108f60e11b8152600481018a90525f907f00000000000000000000000000000000000000000000000000000000000000006001600160a01b031690636352211e90602401602060405180830381865afa15801561227b573d5f803e3d5ffd5b505050506040513d601f19601f8201168201806040525081019061229f91906147a8565b9050806001600160a01b03166122b36114d2565b6001600160a01b0316146122e557896122ca6114d2565b6040516355e03cb160e11b8152600401610d519291906139fd565b604051632142170760e11b81526001600160a01b038281166004830152306024830152604482018c90527f000000000000000000000000000000000000000000000000000000000000000016906342842e0e906064015f604051808303815f87803b158015612352575f80fd5b505af1158015612364573d5f803e3d5ffd5b50506040516339284f3560e01b81526001600160a01b037f00000000000000000000000000000000000000000000000000000000000000001692506339284f3591506123ba908d9087908c908c906004016155ce565b6020604051808303815f875af11580156123d6573d5f803e3d5ffd5b505050506040513d601f19601f820116820180604052508101906123fa9190614634565b506001600160a01b037f00000000000000000000000000000000000000000000000000000000000000001663702a39778b6124358b80614e4b565b61244390604081019061464b565b6040518463ffffffff1660e01b815260040161246193929190615615565b5f604051808303815f87803b158015612478575f80fd5b505af115801561248a573d5f803e3d5ffd5b50505050505b6124c8896124a160608a018a614d42565b5f8181106124b1576124b161422a565b90506020028101906124c39190614eb7565b613310565b6001600160a01b037f00000000000000000000000000000000000000000000000000000000000000001663581781918a6125028a80614e4b565b61250c908061464b565b6125168c80614e4b565b61252490602081019061464b565b61252e8e80614e4b565b606001358861253b6114d2565b60405160200161254d939291906148ed565b604051602081830303815290604052805190602001206040518763ffffffff1660e01b81526004016125849695949392919061562e565b6020604051808303815f875af11580156125a0573d5f803e3d5ffd5b505050506040513d601f19601f820116820180604052508101906125c491906147a8565b505f6125d36020860186613a61565b6001600160a01b031614612759576125ee6020850185613a61565b5f8a815260016020908152604080832080546001600160a01b0319166001600160a01b039590951694909417909355909161262e91908701908701613a61565b6001600160a01b031614612759575f5b61264b6040860186614fba565b905081101561275757366126626040870187614fba565b838181106126725761267261422a565b905060600201905085602001602081019061268d9190613a61565b6001600160a01b0316639098afeb8c6126ac6040850160208601614cf5565b6126bc6060860160408701614d27565b6126c96020870187613a61565b6040516001600160e01b031960e087901b168152600481019490945262ffffff909216602484015263ffffffff1660448301526001600160a01b031660648201526084016020604051808303815f875af1158015612729573d5f803e3d5ffd5b505050506040513d601f19601f8201168201806040525081019061274d91906147a8565b505060010161263e565b505b5f61276a60c0890160a08a01613a61565b6001600160a01b0316146127cf5761279361278b60c0890160a08a01613a61565b8a6010612e50565b6127a360c0880160a08901613a61565b5f8a815260046020526040902080546001600160a01b0319166001600160a01b03929092169190911790555b6127e8896127e360608a0160408b01613a61565b6115d7565b6020830135156127ff576127fd8982856128b7565b505b5f898152600360205260409020819055887f71aa788b1959149d074eb49c039291bbb825b7586df2f05c0a26627c987c1471888888888888886128406114d2565b604051612854989796959493929190615c0f565b60405180910390a2505050505050505050565b6040516383db9d0160e01b81525f906001600160a01b037f000000000000000000000000000000000000000000000000000000000000000016906383db9d01906111ee90869086906004016139fd565b6060837fd1ae357f26434a99ce1f9e98bc6f3b593847697f1a14b95622dd27cd9bffb14084846128e56114d2565b6040516128f493929190615dc0565b60405180910390a27f00000000000000000000000000000000000000000000000000000000000000006001600160a01b0316632f3f50e08585856020013561293a6114d2565b60405160200161294c939291906148ed565b60408051601f19818403018152919052805160209091012061296e8680614d42565b6040518563ffffffff1660e01b815260040161298d9493929190615df0565b5f604051808303815f875af11580156129a8573d5f803e3d5ffd5b505050506040513d5f823e601f3d908101601f191682016040526129cf9190810190615e0f565b949350505050565b6040516001600160a01b0384811660248301528381166044830152606482018390526111899186918216906323b872dd906084015b604051602081830303815290604052915060e01b6020820180516001600160e01b0383818316178352505050506133b4565b5f61eeed196001600160a01b03841601612a59575080610b9d565b612a6d6001600160a01b0384168584613420565b505f9392505050565b604051636eb1769f60e11b81523060048201526001600160a01b0383811660248301525f919085169063dd62ed3e90604401602060405180830381865afa158015612ac3573d5f803e3d5ffd5b505050506040513d601f19601f82011682018060405250810190612ae79190614634565b905081811015612b235760405163e570110f60e01b81526001600160a01b03841660048201526024810182905260448101839052606401610d51565b61118984848484036134a2565b5f818152600660209081526040808320805482518185028101850190935280835260609493830182828015612b8257602002820191905f5260205f20905b815481526020019060010190808311612b6e575b5050505050905080516006612b9791906148bb565b6001600160401b03811115612bae57612bae613e25565b604051908082528060200260200182016040528015612bd7578160200160208202803683370190505b509150601160ff16825f81518110612bf157612bf161422a565b602002602001018181525050601960ff1682600181518110612c1557612c1561422a565b602002602001018181525050601860ff1682600281518110612c3957612c3961422a565b602002602001018181525050600660ff1682600381518110612c5d57612c5d61422a565b602002602001018181525050601260ff1682600481518110612c8157612c8161422a565b602002602001018181525050601e60ff1682600581518110612ca557612ca561422a565b6020026020010181815250505f5b8151811015612d0757818181518110612cce57612cce61422a565b602002602001015183826006612ce491906148bb565b81518110612cf457612cf461422a565b6020908102919091010152600101612cb3565b5050919050565b5f80805f19858709858702925082811083820303915050805f03612d4557838281612d3b57612d3b615e98565b0492505050610b9d565b838110612d7657604051630c740aef60e31b8152600481018790526024810186905260448101859052606401610d51565b5f8486880960026001871981018816978890046003810283188082028403028082028403028082028403028082028403028082028403029081029092039091025f889003889004909101858311909403939093029303949094049190911702949350505050565b5f61270f198201612def57505f6129cf565b828410612dfd5750836129cf565b5f612e09868686612d0e565b9050825f03612e195790506129cf565b612e4681612e28858888612d0e565b612e34866127106147c3565b612e3e91906148bb565b612710612d0e565b9695505050505050565b6040805160018082528183019092525f916020808301908036833701905050905081815f81518110612e8457612e8461422a565b602002602001019060ff16908160ff16815250506111893085858461154d565b6060612eb36080850185615eac565b90506001600160401b03811115612ecc57612ecc613e25565b604051908082528060200260200182016040528015612f1f57816020015b604080516080810182525f8082526020820152606091810182905281810191909152815260200190600190039081612eea5790505b5090505f5b612f316080860186615eac565b90508110156131035736612f486080870187615eac565b83818110612f5857612f5861422a565b90506040020190505f612f6c868684613531565b90508063ffffffff165f03612fc457612f886020830183613a61565b612f986040840160208501613a61565b604051631ab3aa5760e01b81526001600160a01b03928316600482015291166024820152604401610d51565b6040805160018082528183019092525f91816020015b604080518082019091525f8082526020820152815260200190600190039081612fda57905050905060405180604001604052806001600160e01b03801681526020018363ffffffff16815250815f815181106130385761303861422a565b602002602001018190525060405180608001604052808460200160208101906130619190613a61565b6001600160a01b0316815260209081019061307e90860186613a61565b6001600160a01b031681526020015f6040519080825280602002602001820160405280156130d157816020015b604080518082019091525f80825260208201528152602001906001900390816130ab5790505b508152602001828152508585815181106130ed576130ed61422a565b6020908102919091010152505050600101612f24565b509392505050565b613113613687565b61311b6136d2565b61312b6060850160408601614ecc565b61ffff168152613142610100850160e08601614ecc565b61ffff16602082015263ffffffff8516604082015260016101c0820181905260a082018190526101e082018190526102008201523061022082015261318f61012085016101008601614ecc565b61ffff166102408201526040805160018082528183019092525f91816020015b604080518082019091525f8152606060208201528152602001906001900390816131af5750506040805180820190915260018152909150602081016131f76060880188614ee7565b808060200260200160405190810160405280939291908181526020015f905b828210156132425761323360c08302860136819003810190615ef1565b81526020019060010190613216565b5050505050815250815f8151811061325c5761325c61422a565b6020026020010181905250604051806101000160405280865f0160208101906132859190614f2b565b65ffffffffffff1681526020016132a260c0880160a08901614d27565b63ffffffff1681526020016132bd60a0880160808901614f46565b6001600160701b031681526020016132db60e0880160c08901614d27565b63ffffffff1681526020015f6001600160a01b0316815260200183815260200182815260200185815250925050509392505050565b61331d6020820182614f2b565b65ffffffffffff16158061334557504261333a6020830183614f2b565b65ffffffffffff1610155b1561334e575050565b5f61335c62278d00426148bb565b5f8481526002602052604090208190559050827f48a9634f50564cfe6648ff5e75795a36873bf96c408523d50017032657e67198826133996114d2565b6040516133a79291906139fd565b60405180910390a2505050565b5f8060205f8451602086015f885af1806133d3576040513d5f823e3d81fd5b50505f513d915081156133ea5780600114156133f7565b6001600160a01b0384163b155b1561118957604051635274afe760e01b81526001600160a01b0385166004820152602401610d51565b604051636eb1769f60e11b81523060048201526001600160a01b0383811660248301525f919085169063dd62ed3e90604401602060405180830381865afa15801561346d573d5f803e3d5ffd5b505050506040513d601f19601f820116820180604052508101906134919190614634565b905061118984846134a285856148bb565b604080516001600160a01b038416602482015260448082018490528251808303909101815260649091019091526020810180516001600160e01b031663095ea7b360e01b1790526134f38482613642565b611189576040516001600160a01b0384811660248301525f604483015261352791869182169063095ea7b390606401612a0c565b61118984826133b4565b5f805b83811015613638573685858381811061354f5761354f61422a565b90506020028101906135619190615f97565b90506135736040850160208601613a61565b6001600160a01b03166135896020830183613a61565b6001600160a01b03160361362f575f5b6135a66020830183614fba565b905081101561362d57366135bd6020840184614fba565b838181106135cd576135cd61422a565b6060029190910191506135e590506020870187613a61565b6001600160a01b03166135fb6020830183613a61565b6001600160a01b031603613624576136196060820160408301614d27565b945050505050610b9d565b50600101613599565b505b50600101613534565b505f949350505050565b5f805f8060205f8651602088015f8a5af192503d91505f519050828015612e46575081156136735780600114612e46565b50505050506001600160a01b03163b151590565b60408051610100810182525f8082526020820181905291810182905260608101829052608081019190915260a081016136be6136d2565b815260200160608152602001606081525090565b60408051610260810182525f80825260208201819052918101829052606081018290526080810182905260a0810182905260c0810182905260e08101829052610100810182905261012081018290526101408101829052610160810182905261018081018290526101a081018290526101c081018290526101e081018290526102008101829052610220810182905261024081019190915290565b6001600160a01b0381168114613781575f80fd5b50565b803561378f8161376d565b919050565b5f80604083850312156137a5575f80fd5b8235915060208301356137b78161376d565b809150509250929050565b5f602082840312156137d2575f80fd5b81356001600160e01b031981168114610b9d575f80fd5b5f805f805f608086880312156137fd575f80fd5b85356138088161376d565b945060208601356138188161376d565b93506040860135925060608601356001600160401b038082111561383a575f80fd5b818801915088601f83011261384d575f80fd5b81358181111561385b575f80fd5b89602082850101111561386c575f80fd5b9699959850939650602001949392505050565b5f60c0828403121561388f575f80fd5b50919050565b5f8083601f8401126138a5575f80fd5b5081356001600160401b038111156138bb575f80fd5b6020830191508360208260051b85010111156138d5575f80fd5b9250929050565b5f6060828403121561388f575f80fd5b5f6040828403121561388f575f80fd5b5f805f805f805f805f60e08a8c031215613914575f80fd5b8935985060208a01356001600160401b0380821115613931575f80fd5b61393d8d838e0161387f565b995060408c0135915080821115613952575f80fd5b61395e8d838e01613895565b909950975060608c0135915080821115613976575f80fd5b6139828d838e016138dc565b965060808c0135915080821115613997575f80fd5b6139a38d838e016138ec565b955060a08c01359150808211156139b8575f80fd5b6139c48d838e0161387f565b945060c08c01359150808211156139d9575f80fd5b506139e68c828d01613895565b915080935050809150509295985092959850929598565b9182526001600160a01b0316602082015260400190565b5f60208284031215613a24575f80fd5b5035919050565b5f805f60608486031215613a3d575f80fd5b83359250602084013591506040840135613a568161376d565b809150509250925092565b5f60208284031215613a71575f80fd5b8135610b9d8161376d565b5f805f805f8060a08789031215613a91575f80fd5b8635955060208701356001600160401b0380821115613aae575f80fd5b613aba8a838b0161387f565b96506040890135915080821115613acf575f80fd5b613adb8a838b01613895565b90965094506060890135915080821115613af3575f80fd5b613aff8a838b016138dc565b93506080890135915080821115613b14575f80fd5b50613b2189828a016138ec565b9150509295509295509295565b5f60208284031215613b3e575f80fd5b81356001600160401b03811115613b53575f80fd5b82016101808185031215610b9d575f80fd5b5f5b83811015613b7f578181015183820152602001613b67565b50505f910152565b5f8151808452613b9e816020860160208601613b65565b601f01601f19169290920160200192915050565b5f604080830185845260206040818601528186518084526060935060608701915060608160051b8801018389015f5b83811015613c3157898303605f19018552815180516001600160a01b031684528681015187850152880151888401889052613c1e88850182613b87565b9587019593505090850190600101613be1565b50909a9950505050505050505050565b5f805f838503610160811215613c55575f80fd5b84359350610120601f1982011215613c6b575f80fd5b50602084019150610140840135613a568161376d565b5f8060408385031215613c92575f80fd5b8235915060208301356001600160401b03811115613cae575f80fd5b613cba858286016138ec565b9150509250929050565b5f815180845260208085019450602084015f5b83811015613cfc5781516001600160a01b031687529582019590820190600101613cd7565b509495945050505050565b602081525f610b9d6020830184613cc4565b5f60208284031215613d29575f80fd5b81356001600160401b03811115613d3e575f80fd5b82016102008185031215610b9d575f80fd5b5f60208284031215613d60575f80fd5b81356001600160401b03811115613d75575f80fd5b82016101a08185031215610b9d575f80fd5b5f6080820186835260208681850152604086604086015260606080606087015283875180865260a08801915060a08160051b89010195508489015f5b82811015613e1357898803609f19018452815180516001600160a01b0316895287810151888a0152860151868901869052613e00868a0182613b87565b9850509286019290860190600101613dc3565b50959c9b505050505050505050505050565b634e487b7160e01b5f52604160045260245ffd5b803560ff8116811461378f575f80fd5b63ffffffff81168114613781575f80fd5b803561378f81613e49565b8035613e708161376d565b6001600160a01b0316825260ff613e8960208301613e39565b1660208301526040810135613e9d81613e49565b63ffffffff166040830152606090810135910152565b5f808335601e19843603018112613ec8575f80fd5b83016020810192503590506001600160401b03811115613ee6575f80fd5b8036038213156138d5575f80fd5b81835281816020850137505f828201602090810191909152601f909101601f19169091010190565b60208152613f3d60208201613f3084613784565b6001600160a01b03169052565b5f613f4a60208401613784565b6001600160a01b038116604084015250613f6a6060830160408501613e65565b60c083013560e083015261010060e084013581840152613f8b818501613784565b9050610120613fa4818501836001600160a01b03169052565b61014091508085013582850152506101608185013581850152613fc981860186613eb3565b6101808681015292509050610c886101a085018383613ef4565b604051606081016001600160401b038111828210171561400557614005613e25565b60405290565b60405161026081016001600160401b038111828210171561400557614005613e25565b60405161012081016001600160401b038111828210171561400557614005613e25565b604051601f8201601f191681016001600160401b038111828210171561407957614079613e25565b604052919050565b5f6001600160401b0382111561409957614099613e25565b5060051b60200190565b5f80604083850312156140b4575f80fd5b825191506020808401516001600160401b03808211156140d2575f80fd5b818601915086601f8301126140e5575f80fd5b81516140f86140f382614081565b614051565b81815260059190911b83018401908481019089831115614116575f80fd5b8585015b838110156141ec57805185811115614130575f80fd5b8601601f196060828e0382011215614146575f80fd5b61414e613fe3565b8983015161415b8161376d565b815260408301518a820152606083015188811115614177575f80fd5b8084019350508d603f84011261418b575f80fd5b898301518881111561419f5761419f613e25565b6141af8b84601f84011601614051565b92508083528e60408286010111156141c5575f80fd5b6141d5818c850160408701613b65565b50604081019190915284525091860191860161411a565b508096505050505050509250929050565b634e487b7160e01b5f52601160045260245ffd5b60ff81811683821601908111156107d6576107d66141fd565b634e487b7160e01b5f52603260045260245ffd5b65ffffffffffff81168114613781575f80fd5b803561378f8161423e565b6001600160701b0381168114613781575f80fd5b803561378f8161425c565b8381526101608101833561428e8161423e565b65ffffffffffff81166020840152506142a960208501614251565b65ffffffffffff81166040840152506142c460408501614251565b65ffffffffffff81166060840152506142df60608501614251565b65ffffffffffff81166080840152506142fa60808501613e5a565b63ffffffff811660a08401525061431360a08501614270565b6001600160701b03811660c08401525061432f60c08501613e5a565b63ffffffff811660e08401525061434860e08501613784565b61010061435f818501836001600160a01b03169052565b850135610120840152506001600160a01b0383166101408301526129cf565b8015158114613781575f80fd5b805161378f8161437e565b5f602082840312156143a6575f80fd5b8151610b9d8161437e565b805161378f8161423e565b805161378f81613e49565b805161378f8161425c565b805161378f8161376d565b61ffff81168114613781575f80fd5b805161378f816143dd565b5f6102608284031215614408575f80fd5b61441061400b565b905061441b826143ec565b8152614429602083016143ec565b602082015261443a604083016143bc565b604082015261444b6060830161438b565b606082015261445c6080830161438b565b608082015261446d60a0830161438b565b60a082015261447e60c0830161438b565b60c082015261448f60e0830161438b565b60e08201526101006144a281840161438b565b908201526101206144b483820161438b565b908201526101406144c683820161438b565b908201526101606144d883820161438b565b908201526101806144ea83820161438b565b908201526101a06144fc83820161438b565b908201526101c061450e83820161438b565b908201526101e061452083820161438b565b9082015261020061453283820161438b565b908201526102206145448382016143d2565b908201526102406145568382016143ec565b9082015292915050565b5f80828403610380811215614573575f80fd5b61012080821215614582575f80fd5b61458a61402e565b9150614595856143b1565b82526145a3602086016143b1565b60208301526145b4604086016143b1565b60408301526145c5606086016143b1565b60608301526145d6608086016143bc565b60808301526145e760a086016143c7565b60a08301526145f860c086016143bc565b60c083015261460960e086016143d2565b60e0830152610100808601518184015250819350614629868287016143f7565b925050509250929050565b5f60208284031215614644575f80fd5b5051919050565b5f808335601e19843603018112614660575f80fd5b8301803591506001600160401b03821115614679575f80fd5b6020019150368190038213156138d5575f80fd5b8681525f60018060a01b03808816602084015286604084015280861660608401525083608083015260e060a08301525f60e08301526101008060c08401526146d781840185613b87565b9998505050505050505050565b85815260018060a01b0385166020820152836040820152821515606082015260c060808201525f60c082015260e060a08201525f61472560e0830184613b87565b979650505050505050565b6001600160a01b03878116825286166020808301919091526040820186905260c06060830181905285519083018190525f918681019160e085019190845b8181101561478a5784518452938201939282019260010161476e565b5050509415156080840152505090151560a090910152949350505050565b5f602082840312156147b8575f80fd5b8151610b9d8161376d565b818103818111156107d6576107d66141fd565b5f80858511156147e4575f80fd5b838611156147f0575f80fd5b5050820193919092039150565b6bffffffffffffffffffffffff19813581811691601485101561482a5780818660140360031b1b83161692505b505092915050565b5f60018060a01b03808516835260206040602085015260a084018286511660408601526001600160401b036020870151166060860152604086015192506060608086015280835180835260c0870191506020850194505f92505b808310156148af57845160ff16825293830193600192909201919083019061488c565b50979650505050505050565b808201808211156107d6576107d66141fd565b5f823561015e198336030181126148e3575f80fd5b9190910192915050565b92835260208301919091526001600160a01b0316604082015260600190565b5f8235607e19833603018112614920575f80fd5b90910192915050565b80356001600160681b038116811461378f575f80fd5b803561378f816143dd565b803562ffffff8116811461378f575f80fd5b803561378f8161437e565b5f60808084018335601e19853603018112614980575f80fd5b840160208181019135906001600160401b0382111561499d575f80fd5b6101c080830236038413156149b0575f80fd5b608089529382905260a0938489015f5b84811015614af5576149e2826149d588614929565b6001600160681b03169052565b6149ed848701613e5a565b63ffffffff16848301526040614a04878201613e5a565b63ffffffff16908301526060614a1b87820161493f565b61ffff1690830152614a2e868901613784565b6001600160a01b031688830152858701358783015260c0614a5081880161494a565b62ffffff169083015260e0614a66878201613e39565b60ff1690830152610100614a7b87820161495c565b151590830152610120614a8f87820161495c565b151590830152610140614aa387820161495c565b151590830152610160614ab787820161495c565b151590830152610180614acb87820161495c565b1515908301526101a0614adf87820161495c565b15159083015294820194908201906001016149c0565b50614b0260208a01613e5a565b63ffffffff811660208c01529650614b1c60408a01613e39565b60ff811660408c01529650614b3360608a01613784565b6001600160a01b03811660608c015296506146d7565b8035614b548161437e565b151582526020810135614b668161437e565b151560208301526040810135614b7b8161437e565b151560408301526060810135614b908161437e565b8015156060840152505050565b838152606060208201525f614bb28485613eb3565b6101606060850152614bc96101c085018284613ef4565b915050614bd96020860186613eb3565b605f1980868503016080870152614bf1848385613ef4565b9350614c006040890189613eb3565b93509150808685030160a0870152614c19848484613ef4565b9350614c2760608901613784565b6001600160a01b03811660c08801529250614c456080890189613eb3565b93509150808685030160e0870152614c5e848484613ef4565b9350614c6d60a089018961490c565b925080868503016101008701525050614c868282614967565b915050614c9560c08601613784565b6001600160a01b0316610120840152614cb5610140840160e08701614b49565b604092909201929092529392505050565b5f60208284031215614cd6575f80fd5b8135610b9d8161437e565b5f8235609e198336030181126148e3575f80fd5b5f60208284031215614d05575f80fd5b610b9d8261494a565b5f60208284031215614d1e575f80fd5b610b9d82614929565b5f60208284031215614d37575f80fd5b8135610b9d81613e49565b5f808335601e19843603018112614d57575f80fd5b8301803591506001600160401b03821115614d70575f80fd5b6020019150600581901b36038213156138d5575f80fd5b5f60208083018184528085518083526040925060408601915060408160051b8701018488015f5b83811015614e3d57888303603f19018552815180516001600160a01b031684528781015162ffffff1688850152868101516001600160681b03168785015260608082015163ffffffff908116918601919091526080808301519091169085015260a09081015160c091850182905290614e2981860183613cc4565b968901969450505090860190600101614dae565b509098975050505050505050565b5f8235607e198336030181126148e3575f80fd5b63ffffffff881681526001600160a01b038716602082015260a0604082018190525f90614e8f9083018789613ef4565b8281036060840152614ea2818688613ef4565b91505082608083015298975050505050505050565b5f823561011e198336030181126148e3575f80fd5b5f60208284031215614edc575f80fd5b8135610b9d816143dd565b5f808335601e19843603018112614efc575f80fd5b8301803591506001600160401b03821115614f15575f80fd5b602001915060c0810236038213156138d5575f80fd5b5f60208284031215614f3b575f80fd5b8135610b9d8161423e565b5f60208284031215614f56575f80fd5b8135610b9d8161425c565b60e081525f614f7360e083018a613b87565b60208301989098525061ffff95861660408201526001600160701b0394909416606085015263ffffffff9283166080850152911660a083015290911660c090910152919050565b5f808335601e19843603018112614fcf575f80fd5b8301803591506001600160401b03821115614fe8575f80fd5b60200191506060810236038213156138d5575f80fd5b608081525f6150106080830187613b87565b63ffffffff959095166020830152506001600160a01b039290921660408301526001600160681b0316606090910152919050565b805161ffff1682526020810151615061602084018261ffff169052565b506040810151615079604084018263ffffffff169052565b50606081015161508d606084018215159052565b5060808101516150a1608084018215159052565b5060a08101516150b560a084018215159052565b5060c08101516150c960c084018215159052565b5060e08101516150dd60e084018215159052565b5061010081810151151590830152610120808201511515908301526101408082015115159083015261016080820151151590830152610180808201511515908301526101a0808201511515908301526101c0808201511515908301526101e08082015115159083015261020080820151151590830152610220808201516001600160a01b0316908301526102408082015161ffff811682850152611189565b5f82825180855260208086019550808260051b8401018186015f5b8481101561525657858303601f190189528151805184528401516040858501819052815181860181905291860191606090818701905f5b8181101561523f578551805163ffffffff1684528a8101516001600160401b03168b850152858101516001600160a01b03908116878601528582015115158686015260808083015165ffffffffffff169086015260a09182015116908401529489019460c0909201916001016151ce565b50509b87019b955050509184019150600101615197565b5090979650505050505050565b5f815180845260208085019450602084015f5b83811015613cfc57815180516001600160e01b0316885283015163ffffffff168388015260409096019590820190600101615276565b5f82825180855260208086019550808260051b8401018186015f5b8481101561525657858303601f19018952815180516001600160a01b0390811685528582015116858501526040808201516080828701819052919061530e83880182615263565b925050506060808301519250858203818701525061532c8183615263565b9a86019a94505050908301906001016152c7565b5f82825180855260208086019550808260051b8401018186015f5b8481101561525657601f198684030189528151805165ffffffffffff1684528481015163ffffffff908116868601526040808301516001600160701b031690860152606080830151909116908501526080808201516001600160a01b03169085015260a08082015161034091906153d482880182615044565b505060c0820151816103008701526153ee8287018261517c565b91505060e0820151915084810361032086015261540b81836152ac565b9a86019a945050509083019060010161535b565b5f808335601e19843603018112615434575f80fd5b83016020810192503590506001600160401b03811115615452575f80fd5b6060810236038213156138d5575f80fd5b5f8235603e19833603018112614920575f80fd5b5f8383855260208086019550808560051b830101845f5b8781101561525657848303601f190189526154a98288615463565b604080850182356154b98161376d565b6001600160a01b0381811688526154d2858a018661541f565b898b018690529384905292945060609291508288015f5b868110156155395783356154fc8161376d565b8316825260ff61550d858d01613e39565b168b8301528584013561551f81613e49565b63ffffffff168287015292840192908401906001016154e9565b509d89019d975050509386019350505060010161548e565b6001600160a01b038716815260a0602082018190525f906155759083018789613ef4565b82810360408401526155878187615340565b9050828103606084015261559c818587615477565b83810360809094019390935250505f81526020019695505050505050565b634e487b7160e01b5f52600160045260245ffd5b848152608060208201525f6155e66080830186615340565b82810360408401526155f9818587615477565b83810360609094019390935250505f8152602001949350505050565b838152604060208201525f610c88604083018486613ef4565b868152608060208201525f615647608083018789613ef4565b828103604084015261565a818688613ef4565b915050826060830152979650505050505050565b5f808335601e19843603018112615683575f80fd5b83016020810192503590506001600160401b038111156156a1575f80fd5b8060051b36038213156138d5575f80fd5b8183525f60208085019450825f5b85811015613cfc5781356156d381613e49565b63ffffffff1687526001600160681b036156ee838501614929565b16838801526040808301356157028161376d565b6001600160a01b03169088015260609687019691909101906001016156c0565b5f808335601e19843603018112615737575f80fd5b83016020810192503590506001600160401b03811115615755575f80fd5b60c0810236038213156138d5575f80fd5b80356001600160401b038116811461378f575f80fd5b8183525f60208085019450825f5b85811015613cfc57813561579d81613e49565b63ffffffff1687526001600160401b036157b8838501615766565b16838801526040808301356157cc8161376d565b6001600160a01b0316908801526060828101356157e88161437e565b1515908801526080828101356157fd8161423e565b65ffffffffffff169088015260a0615816838201613784565b6001600160a01b03169088015260c096870196919091019060010161578a565b5f8383855260208086019550808560051b830101845f5b8781101561525657848303601f1901895281353688900361011e19018112615873575f80fd5b87016101206158918561588584614251565b65ffffffffffff169052565b61589d8683018361541f565b82888801526158af83880182846156b2565b9250505060406158c081840161493f565b61ffff169086015260606158d683820184615722565b878403838901526158e884828461577c565b935050505060806158fa818401614270565b6001600160701b03169086015260a0615914838201613e5a565b63ffffffff169086015260c061592b838201613e5a565b63ffffffff169086015260e061594283820161493f565b61ffff169086015261010061595883820161493f565b61ffff1695019490945250978301979083019060010161584d565b5f808335601e19843603018112615988575f80fd5b83016020810192503590506001600160401b038111156159a6575f80fd5b8060061b36038213156138d5575f80fd5b8183525f60208085019450825f5b85811015613cfc5781356159d88161376d565b6001600160a01b03908116885282840135906159f38261376d565b168784015260409687019691909101906001016159c5565b5f60608084018335615a1c8161376d565b6001600160a01b03908116865260209085820135615a398161376d565b811660208801526040615a4e8782018861541f565b606060408b015294859052935f9060808a015b81831015615ab5578635615a748161376d565b8516815262ffffff615a8788880161494a565b168682015283870135615a9981613e49565b63ffffffff168185015295870195600192909201918701615a61565b9a9950505050505050505050565b5f8383855260208086019550808560051b830101845f5b8781101561525657848303601f19018952615af58288615463565b60408085018235615b058161376d565b6001600160a01b039081168752838801359036859003601e19018212615b29575f80fd5b9301878101939035906001600160401b03821115615b45575f80fd5b8160071b3603851315615b56575f80fd5b878901849052918190526060918288015f5b83811015615bc3578635615b7b8161376d565b83168252868b0135615b8c81613e49565b63ffffffff16828c015286860135615ba38161376d565b831682870152868501358583015260809687019690910190600101615b68565b509d89019d9750505093860193505050600101615ada565b5f615be6828361566e565b60408552615bf8604086018284615ac3565b915050602083013560208501528091505092915050565b60e081525f615c1e8a8b61490c565b60c060e0840152615c2f8182613eb3565b60806101a0860152615c4661022086018284613ef4565b915050615c566020830183613eb3565b61019f1980878503016101c0880152615c70848385613ef4565b9350615c7f6040860186613eb3565b9350915080878503016101e088015250615c9a838383613ef4565b925050506060820135610200850152615cb560208d01613e5a565b63ffffffff81166101008601529150615cd060408d01613784565b6001600160a01b0381166101208601529150615cef60608d018d61566e565b925060df198086840301610140870152615d0a838584615836565b9350615d1960808f018f615973565b93509150808685030161016087015250615d348383836159b7565b92505050615d4460a08c01613784565b6001600160a01b03166101808401528281036020840152615d66818a8c615477565b90508281036040840152615d7a8189615a0b565b90508281036060840152615d8e8188615bdb565b90508281036080840152615da28187615340565b9150508360a08301526146d760c08301846001600160a01b03169052565b838152606060208201525f615dd86060830185615bdb565b905060018060a01b0383166040830152949350505050565b848152836020820152606060408201525f612e46606083018486615ac3565b5f6020808385031215615e20575f80fd5b82516001600160401b03811115615e35575f80fd5b8301601f81018513615e45575f80fd5b8051615e536140f382614081565b81815260059190911b82018301908381019087831115615e71575f80fd5b928401925b82841015614725578351615e898161376d565b82529284019290840190615e76565b634e487b7160e01b5f52601260045260245ffd5b5f808335601e19843603018112615ec1575f80fd5b8301803591506001600160401b03821115615eda575f80fd5b6020019150600681901b36038213156138d5575f80fd5b5f60c08284031215615f01575f80fd5b60405160c081018181106001600160401b0382111715615f2357615f23613e25565b6040528235615f3181613e49565b8152615f3f60208401615766565b60208201526040830135615f528161376d565b60408201526060830135615f658161437e565b60608201526080830135615f788161423e565b608082015260a0830135615f8b8161376d565b60a08201529392505050565b5f8235603e198336030181126148e3575f80fdfea2646970667358221220a65dd1b0393318be33b98bea5093652be65932761f1712727bd697956b18864164736f6c63430008170033",
	"deployedBytecode": "0x6080604052600436106101a6575f3560e01c80638cc35846116100e3578063b987005d11610092578063dbfbe5da11610062578063dbfbe5da14610619578063ee0fc1211461064c578063f434c9141461067f578063fb82b1b0146106b2575f80fd5b8063b987005d146105b4578063c22903b2146105d3578063c57981b5146105e6578063db29c892146105fa575f80fd5b80638cc358461461048c578063902b742e146104b957806399f6d77f146104ed578063abf8c5c81461050c578063b5d255331461053f578063b78edb6614610572578063b8a843d71461059e575f80fd5b8063437e61071161015957806367d39de21161012957806367d39de2146103c85780637249a773146103f35780637da0a8771461042757806388bc2ef314610459575f80fd5b8063437e6107146103245780634fa9af691461035f578063572b6c051461038a5780636169a3bb146103a9575f80fd5b806244a005146101aa57806301ffc9a7146101cb578063150b7a02146101ff5780631680e172146102375780632545de8e14610278578063293c4999146102a55780633b7ae807146102f0575b5f80fd5b3480156101b5575f80fd5b506101c96101c4366004613794565b6106e1565b005b3480156101d6575f80fd5b506101ea6101e53660046137c2565b610770565b60405190151581526020015b60405180910390f35b34801561020a575f80fd5b5061021e6102193660046137e9565b6107dc565b6040516001600160e01b031990911681526020016101f6565b348015610242575f80fd5b5061026a7f000000000000000000000000000000000000000000000000000000000000000381565b6040519081526020016101f6565b348015610283575f80fd5b506102976102923660046138fc565b610823565b6040516101f69291906139fd565b3480156102b0575f80fd5b506102d87f000000000000000000000000885f707efa18d2cb12f05a3a8eba6b4b26c8c1d481565b6040516001600160a01b0390911681526020016101f6565b3480156102fb575f80fd5b506102d861030a366004613a14565b60046020525f90815260409020546001600160a01b031681565b34801561032f575f80fd5b5061026a61033e366004613a2b565b5f602081815293815260408082208552928152828120909352825290205481565b34801561036a575f80fd5b5061026a610379366004613a14565b60026020525f908152604090205481565b348015610395575f80fd5b506101ea6103a4366004613a61565b61085a565b3480156103b4575f80fd5b5061026a6103c3366004613a7c565b61088c565b3480156103d3575f80fd5b5061026a6103e2366004613a14565b60036020525f908152604090205481565b3480156103fe575f80fd5b506102d861040d366004613a14565b60016020525f90815260409020546001600160a01b031681565b348015610432575f80fd5b507f000000000000000000000000c29d6995ab3b0df4650ad643adeac55e7acbb5666102d8565b348015610464575f80fd5b506102d87f0000000000000000000000000061e516886a0540f63157f112c0588ee0651dcf81565b348015610497575f80fd5b506104ab6104a6366004613b2e565b6108d1565b6040516101f6929190613bb2565b3480156104c4575f80fd5b506102d86104d3366004613a14565b60056020525f90815260409020546001600160a01b031681565b3480156104f8575f80fd5b506101ea610507366004613c41565b610acd565b348015610517575f80fd5b506102d87f000000000000000000000000ef60878d00378ac5f93d209f4616450ee8d41ca781565b34801561054a575f80fd5b506102d87f00000000000000000000000007c8c5bf08f0361883728a8a5f8824ba5724ece381565b34801561057d575f80fd5b5061059161058c366004613c81565b610ba4565b6040516101f69190613d07565b3480156105a9575f80fd5b5061026a62278d0081565b3480156105bf575f80fd5b506101c96105ce366004613a2b565b610c91565b6101c96105e1366004613d19565b610ec3565b3480156105f1575f80fd5b5061026a601981565b348015610605575f80fd5b506101ea610614366004613794565b61118f565b348015610624575f80fd5b506102d87f00000000000000000000000003ef9ea1467df70d4b1e1d619aa9a2a2f820ee2481565b348015610657575f80fd5b506102d87f00000000000000000000000027da30646502e2f642be5281322ae8c394f7668a81565b34801561068a575f80fd5b506102d87f00000000000000000000000004fd6913d6c32d8c216e153a43c04b1857a7793d81565b3480156106bd575f80fd5b506106d16106cc366004613d50565b61122d565b6040516101f69493929190613d87565b6106f2826106ed6114d2565b611522565b806001600160a01b0316827f0329d6a81434b130c72eb65eea0e32e429dc1277b4aad86ec86454aefb6184516107266114d2565b6040516001600160a01b03909116815260200160405180910390a36107623061074d6114d2565b604080515f815260208101909152859061154d565b61076c82826115d7565b5050565b5f6001600160e01b0319821663366f9f2160e01b14806107a057506001600160e01b0319821663eeb73e8960e01b145b806107bb57506001600160e01b0319821663611481d960e11b145b806107d657506001600160e01b03198216630a85bd0160e11b145b92915050565b5f336001600160a01b037f000000000000000000000000885f707efa18d2cb12f05a3a8eba6b4b26c8c1d41614610811575f80fd5b50630a85bd0160e11b95945050505050565b5f808a15801561083857610835611687565b9b505b61084a8c828d8d8d8d8d8d8d8d611718565b9b9c9a5050505050505050505050565b7f000000000000000000000000c29d6995ab3b0df4650ad643adeac55e7acbb5666001600160a01b0390811691161490565b5f861580156108a05761089d611687565b97505b5f806108ae8a8a8a8a611b71565b915091506108c38a848b8b8b8b8b8989612151565b509798975050505050505050565b60c08101355f9081526001602052604081205460609081906001600160a01b0316801561096f57604051634661ac2360e11b81526001600160a01b03821690638cc3584690610924908890600401613f1c565b5f60405180830381865afa15801561093e573d5f803e3d5ffd5b505050506040513d5f823e601f3d908101601f1916820160405261096591908101906140a3565b9094509150610978565b84610120013593505b815160c08601355f908152600560205260409020546001909114906001600160a01b0316801515826109aa575f6109ad565b60015b816109b8575f6109bb565b60015b6109c59190614211565b60ff166001600160401b038111156109df576109df613e25565b604051908082528060200260200182016040528015610a2b57816020015b60408051606080820183525f8083526020830152918101919091528152602001906001900390816109fd5790505b5095508015610a84576040518060600160405280836001600160a01b031681526020015f815260200160405180602001604052805f815250815250865f81518110610a7857610a7861422a565b60200260200101819052505b8215610ac357845f81518110610a9c57610a9c61422a565b602002602001015186600181518110610ab757610ab761422a565b60200260200101819052505b5050505050915091565b5f8381526001602090815260408083205460049092528220546001600160a01b039182169184811691161480610b145750806001600160a01b0316836001600160a01b0316145b80610b8957506040516399f6d77f60e01b81526001600160a01b038216906399f6d77f90610b4a9088908890889060040161427b565b602060405180830381865afa158015610b65573d5f803e3d5ffd5b505050506040513d601f19601f82011682018060405250810190610b899190614396565b80610b995750610b998584612867565b9150505b9392505050565b6060610bb2836106ed6114d2565b6040516320c94b1360e11b8152600481018490525f907f00000000000000000000000027da30646502e2f642be5281322ae8c394f7668a6001600160a01b03169063419296269060240161038060405180830381865afa158015610c18573d5f803e3d5ffd5b505050506040513d601f19601f82011682018060405250810190610c3c9190614560565b61024081015190925060021c600190811614905080610c6e57604051631abe0dd960e21b815260040160405180910390fd5b5f85815260036020526040902054610c88908690866128b7565b95945050505050565b604051630969875760e21b815260048101849052602481018390525f907f00000000000000000000000027da30646502e2f642be5281322ae8c394f7668a6001600160a01b0316906325a61d5c9060440161038060405180830381865afa158015610cfe573d5f803e3d5ffd5b505050506040513d601f19601f82011682018060405250810190610d229190614560565b50905042816060015165ffffffffffff161115610d5a576040516374e6881560e11b8152600481018490526024015b60405180910390fd5b5f8481526020818152604080832086845282528083206001600160a01b038616845290915281205490819003610da35760405163357db1e760e21b815260040160405180910390fd5b5f8581526020818152604080832087845282528083206001600160a01b038716808552925282209190915584867f0ad8046f3d571312df6d1867ac30c26e100f5684a9d7c2d3340c4e2a5b56360f84610dfa6114d2565b604051610e089291906139fd565b60405180910390a46040516363fdc96f60e11b815260048101869052602481018290526001600160a01b03848116604483015260a060648301525f60a4830181905260848301527f00000000000000000000000027da30646502e2f642be5281322ae8c394f7668a169063c7fb92de9060c4016020604051808303815f875af1158015610e97573d5f803e3d5ffd5b505050506040513d601f19601f82011682018060405250810190610ebb9190614634565b505050505050565b61eeee610ed861012083016101008401613a61565b6001600160a01b031614610f1457610f143330610160840135610f0361012086016101008701613a61565b6001600160a01b03169291906129d7565b5f610f236101c083018361464b565b810190610f309190613a61565b90505f610f5482610f4961012086016101008701613a61565b610160860135612a3e565b90506001600160a01b03821663fef43257827f0000000000000000000000000000000000000000000000000000000000000003610f9961012088016101008901613a61565b610160880135610fac60208a018a613a61565b5f8a60200135604051602001610fc491815260200190565b6040516020818303038152906040526040518863ffffffff1660e01b8152600401610ff49695949392919061468d565b60206040518083038185885af19350505050801561102f575060408051601f3d908101601f1916820190925261102c91810190614634565b60015b611189573d80801561105c576040519150601f19603f3d011682016040523d82523d5f602084013e611061565b606091505b5061eeee61107761012086016101008701613a61565b6001600160a01b0316146110b1576110b1836101608601356110a161012088016101008901613a61565b6001600160a01b03169190612a76565b6110d2336110c761012087016101008801613a61565b610160870135612a3e565b915033639e6eec058360208701356110f261012089016101008a01613a61565b604080517f000000000000000000000000000000000000000000000000000000000000000360208201526101608b0135915f91016040516020818303038152906040526040518763ffffffff1660e01b81526004016111559594939291906146e4565b5f604051808303818588803b15801561116c575f80fd5b505af115801561117e573d5f803e3d5ffd5b505050505050505050565b50505050565b5f7f00000000000000000000000004fd6913d6c32d8c216e153a43c04b1857a7793d6001600160a01b031663632af95f8330866111cb88612b30565b5f806040518763ffffffff1660e01b81526004016111ee96959493929190614730565b602060405180830381865afa158015611209573d5f803e3d5ffd5b505050506040513d601f19601f82011682018060405250810190610b9d9190614396565b5f8080606061124e604086018035906112499060208901613a61565b612867565b15611269575f85608001358660a001359350935093506114cb565b6040808601355f90815260026020522054428111156112a45760405163e4a9c90760e01b815260048101829052426024820152604401610d51565b5f6001600160a01b037f0000000000000000000000000061e516886a0540f63157f112c0588ee0651dcf1663862026507f000000000000000000000000000000000000000000000000000000000000000361130560e08b0160c08c01613a61565b6040518363ffffffff1660e01b81526004016113229291906139fd565b602060405180830381865afa15801561133d573d5f803e3d5ffd5b505050506040513d601f19601f8201168201806040525081019061136191906147a8565b9050610160870135158061137c57506001600160a01b038116155b1561139e5786610160013587608001358860a0013595509550955050506114cb565b5f6113b1608089013560196103e8612d0e565b90505f6113c28260808b01356147c3565b90505f6113df6101208b01358360a08d01356101608e0135612ddd565b90505f6114106113f4836101208e01356147c3565b85858e60a0013561140591906147c3565b8e6101600135612ddd565b604080516001808252818301909252919250816020015b60408051606080820183525f80835260208301529181019190915281526020019060019003908161142757505060408051606081018252308152602080820185905282516001600160a01b038a1691810191909152929950918282019101604051602081830303815290604052815250875f815181106114a9576114a961422a565b6020908102919091010152505061016089013597509550505060a08601359250505b9193509193565b5f3660146114df3361085a565b80156114eb5750808210155b1561151a575f366114fc83856147c3565b6115079282906147d6565b611510916147fd565b60601c9250505090565b339250505090565b61152c828261118f565b61076c5781816040516355e03cb160e11b8152600401610d519291906139fd565b604080516060810182526001600160a01b0380861682526001600160401b03851660208301528183018490529151631127c92960e21b815290917f00000000000000000000000004fd6913d6c32d8c216e153a43c04b1857a7793d169063449f24a4906115c09088908590600401614832565b5f604051808303815f87803b15801561116c575f80fd5b5f6115e183612b30565b90505f81516001600160401b038111156115fd576115fd613e25565b604051908082528060200260200182016040528015611626578160200160208202803683370190505b5090505f5b825181101561167a578281815181106116465761164661422a565b60200260200101518282815181106116605761166061422a565b60ff9092166020928302919091019091015260010161162b565b506111893084868461154d565b5f7f000000000000000000000000885f707efa18d2cb12f05a3a8eba6b4b26c8c1d46001600160a01b03166306661abd6040518163ffffffff1660e01b8152600401602060405180830381865afa1580156116e4573d5f803e3d5ffd5b505050506040513d601f19601f820116820180604052508101906117089190614634565b6117139060016148bb565b905090565b5f805f6117278d8c8c8c611b71565b90925090506001600160a01b037f000000000000000000000000ef60878d00378ac5f93d209f4616450ee8d41ca71663ea74b8af8e61176689806148ce565b8960200135856117746114d2565b604051602001611786939291906148ed565b604051602081830303815290604052805190602001206040518463ffffffff1660e01b81526004016117ba93929190614b9d565b6020604051808303815f875af11580156117d6573d5f803e3d5ffd5b505050506040513d601f19601f820116820180604052508101906117fa91906147a8565b5f8e8152600560205260409081902080546001600160a01b0319166001600160a01b0384161790559093506118359060608801908801614cc6565b1561185c575f8d815260066020908152604082208054600181018255908352912060149101555b61186c6080870160608801614cc6565b15611893575f8d815260066020908152604082208054600181018255908352912060159101555b6118a360a0870160808801614cc6565b156118ca575f8d815260066020908152604082208054600181018255908352912060169101555b6118da60c0870160a08801614cc6565b15611901575f8d815260066020908152604082208054600181018255908352912060179101555b8315611b50575f846001600160401b0381111561192057611920613e25565b60405190808252806020026020018201604052801561198057816020015b6040805160c0810182525f80825260208083018290529282018190526060808301829052608083019190915260a082015282525f1990920191018161193e5790505b5090505f5b85811015611aa857368787838181106119a0576119a061422a565b90506020028101906119b29190614ce1565b90506040518060c00160405280876001600160a01b03168152602001825f0160208101906119e09190614cf5565b62ffffff1681526020018260200160208101906119fd9190614d0e565b6001600160681b03168152602001611a1b6060840160408501614d27565b63ffffffff168152602001611a366080840160608501614d27565b63ffffffff168152602001611a4e6080840184614d42565b808060200260200160405190810160405280939291908181526020018383602002808284375f9201919091525050509152508351849084908110611a9457611a9461422a565b602090810291909101015250600101611985565b50604051631107934d60e21b81526001600160a01b037f00000000000000000000000003ef9ea1467df70d4b1e1d619aa9a2a2f820ee24169063441e4d3490611af5908490600401614d87565b5f604051808303815f87803b158015611b0c575f80fd5b505af1158015611b1e573d5f803e3d5ffd5b50505050611b4e7f00000000000000000000000003ef9ea1467df70d4b1e1d619aa9a2a2f820ee248f6014612e50565b505b611b618d8d8d8d8d8d8d8989612151565b50509a9950505050505050505050565b60605f611b8085830186614d42565b90505f03611ba15760405163050751e560e21b815260040160405180910390fd5b611bae6060860186614d42565b90506001600160401b03811115611bc757611bc7613e25565b604051908082528060200260200182016040528015611c0057816020015b611bed613687565b815260200190600190039081611be55790505b5091505f611c146040870160208801614d27565b611c2460c0880160a08901613a61565b611c2e8880614e4b565b611c38908061464b565b611c428a80614e4b565b611c5090602081019061464b565b611c5a8c80614e4b565b60600135604051602001611c749796959493929190614e5f565b60405160208183030381529060405290505f611c91878787612ea4565b90505f5b611ca26060890189614d42565b905081101561213b5736611cb960608a018a614d42565b83818110611cc957611cc961422a565b9050602002810190611cdb9190614eb7565b90505f611cee6060830160408401614ecc565b61ffff16118015611d0b5750611d076060820182614ee7565b1590505b15611d29576040516340fb407760e01b815260040160405180910390fd5b5f82118015611d9a5750611d4060608a018a614d42565b611d4b6001856147c3565b818110611d5a57611d5a61422a565b9050602002810190611d6c9190614eb7565b611d7a906020810190614f2b565b65ffffffffffff16611d8f6020830183614f2b565b65ffffffffffff1611155b15611db85760405163b787fe6760e01b815260040160405180910390fd5b612710611dcc610100830160e08401614ecc565b61ffff1610611e0e57611de6610100820160e08301614ecc565b6040516380922c6d60e01b815261ffff90911660048201526127106024820152604401610d51565b611e28611e2160408b0160208c01614d27565b828561310b565b868381518110611e3a57611e3a61422a565b602002602001018190525083825f148015611e675750611e5d6020830183614f2b565b65ffffffffffff16155b611e8557611e786020830183614f2b565b65ffffffffffff16611e87565b425b611e976060840160408501614ecc565b611ea760a0850160808601614f46565b611eb760c0860160a08701614d27565b611ec760e0870160c08801614d27565b611ed8610100880160e08901614ecc565b604051602001611eee9796959493929190614f61565b60405160208183030381529060405293505f5b611f0e6020830183614fba565b90508110156121315736611f256020840184614fba565b83818110611f3557611f3561422a565b90506060020190505f6001600160a01b0316816040016020810190611f5a9190613a61565b6001600160a01b031603611f815760405163b79e8c7d60e01b815260040160405180910390fd5b611f916040820160208301614d0e565b6001600160681b03165f03611fa65750612129565b85611fb46020830183614d27565b611fc46060840160408501613a61565b611fd46040850160208601614d0e565b604051602001611fe79493929190614ffe565b60408051601f198184030181529190529550466120076020830183614d27565b63ffffffff16146120185750612129565b6120286060820160408301613a61565b6001600160a01b031661203b85426148bb565b8d7f5c05d79eeb764b1f5069fb55a8558e8a5cec91813a64282bc198dc9084c75df061206d6040860160208701614d0e565b6120756114d2565b604080516001600160681b0390931683526001600160a01b0390911660208301520160405180910390a46120af6040820160208301614d0e565b5f8d81526020819052604081206001600160681b039290921691906120d487426148bb565b81526020019081526020015f205f8360400160208101906120f59190613a61565b6001600160a01b03166001600160a01b031681526020019081526020015f205f82825461212291906148bb565b9091555050505b600101611f01565b5050600101611c95565b5081805190602001209250505094509492505050565b871561221657886001600160a01b037f00000000000000000000000027da30646502e2f642be5281322ae8c394f7668a16635c7465e5306121928b80614e4b565b6121a090604081019061464b565b878c8c6040518763ffffffff1660e01b81526004016121c496959493929190615551565b6020604051808303815f875af11580156121e0573d5f803e3d5ffd5b505050506040513d601f19601f820116820180604052508101906122049190614634565b14612211576122116155ba565b612490565b6040516331a9108f60e11b8152600481018a90525f907f000000000000000000000000885f707efa18d2cb12f05a3a8eba6b4b26c8c1d46001600160a01b031690636352211e90602401602060405180830381865afa15801561227b573d5f803e3d5ffd5b505050506040513d601f19601f8201168201806040525081019061229f91906147a8565b9050806001600160a01b03166122b36114d2565b6001600160a01b0316146122e557896122ca6114d2565b6040516355e03cb160e11b8152600401610d519291906139fd565b604051632142170760e11b81526001600160a01b038281166004830152306024830152604482018c90527f000000000000000000000000885f707efa18d2cb12f05a3a8eba6b4b26c8c1d416906342842e0e906064015f604051808303815f87803b158015612352575f80fd5b505af1158015612364573d5f803e3d5ffd5b50506040516339284f3560e01b81526001600160a01b037f00000000000000000000000027da30646502e2f642be5281322ae8c394f7668a1692506339284f3591506123ba908d9087908c908c906004016155ce565b6020604051808303815f875af11580156123d6573d5f803e3d5ffd5b505050506040513d601f19601f820116820180604052508101906123fa9190614634565b506001600160a01b037f00000000000000000000000027da30646502e2f642be5281322ae8c394f7668a1663702a39778b6124358b80614e4b565b61244390604081019061464b565b6040518463ffffffff1660e01b815260040161246193929190615615565b5f604051808303815f87803b158015612478575f80fd5b505af115801561248a573d5f803e3d5ffd5b50505050505b6124c8896124a160608a018a614d42565b5f8181106124b1576124b161422a565b90506020028101906124c39190614eb7565b613310565b6001600160a01b037f00000000000000000000000027da30646502e2f642be5281322ae8c394f7668a1663581781918a6125028a80614e4b565b61250c908061464b565b6125168c80614e4b565b61252490602081019061464b565b61252e8e80614e4b565b606001358861253b6114d2565b60405160200161254d939291906148ed565b604051602081830303815290604052805190602001206040518763ffffffff1660e01b81526004016125849695949392919061562e565b6020604051808303815f875af11580156125a0573d5f803e3d5ffd5b505050506040513d601f19601f820116820180604052508101906125c491906147a8565b505f6125d36020860186613a61565b6001600160a01b031614612759576125ee6020850185613a61565b5f8a815260016020908152604080832080546001600160a01b0319166001600160a01b039590951694909417909355909161262e91908701908701613a61565b6001600160a01b031614612759575f5b61264b6040860186614fba565b905081101561275757366126626040870187614fba565b838181106126725761267261422a565b905060600201905085602001602081019061268d9190613a61565b6001600160a01b0316639098afeb8c6126ac6040850160208601614cf5565b6126bc6060860160408701614d27565b6126c96020870187613a61565b6040516001600160e01b031960e087901b168152600481019490945262ffffff909216602484015263ffffffff1660448301526001600160a01b031660648201526084016020604051808303815f875af1158015612729573d5f803e3d5ffd5b505050506040513d601f19601f8201168201806040525081019061274d91906147a8565b505060010161263e565b505b5f61276a60c0890160a08a01613a61565b6001600160a01b0316146127cf5761279361278b60c0890160a08a01613a61565b8a6010612e50565b6127a360c0880160a08901613a61565b5f8a815260046020526040902080546001600160a01b0319166001600160a01b03929092169190911790555b6127e8896127e360608a0160408b01613a61565b6115d7565b6020830135156127ff576127fd8982856128b7565b505b5f898152600360205260409020819055887f71aa788b1959149d074eb49c039291bbb825b7586df2f05c0a26627c987c1471888888888888886128406114d2565b604051612854989796959493929190615c0f565b60405180910390a2505050505050505050565b6040516383db9d0160e01b81525f906001600160a01b037f00000000000000000000000007c8c5bf08f0361883728a8a5f8824ba5724ece316906383db9d01906111ee90869086906004016139fd565b6060837fd1ae357f26434a99ce1f9e98bc6f3b593847697f1a14b95622dd27cd9bffb14084846128e56114d2565b6040516128f493929190615dc0565b60405180910390a27f00000000000000000000000007c8c5bf08f0361883728a8a5f8824ba5724ece36001600160a01b0316632f3f50e08585856020013561293a6114d2565b60405160200161294c939291906148ed565b60408051601f19818403018152919052805160209091012061296e8680614d42565b6040518563ffffffff1660e01b815260040161298d9493929190615df0565b5f604051808303815f875af11580156129a8573d5f803e3d5ffd5b505050506040513d5f823e601f3d908101601f191682016040526129cf9190810190615e0f565b949350505050565b6040516001600160a01b0384811660248301528381166044830152606482018390526111899186918216906323b872dd906084015b604051602081830303815290604052915060e01b6020820180516001600160e01b0383818316178352505050506133b4565b5f61eeed196001600160a01b03841601612a59575080610b9d565b612a6d6001600160a01b0384168584613420565b505f9392505050565b604051636eb1769f60e11b81523060048201526001600160a01b0383811660248301525f919085169063dd62ed3e90604401602060405180830381865afa158015612ac3573d5f803e3d5ffd5b505050506040513d601f19601f82011682018060405250810190612ae79190614634565b905081811015612b235760405163e570110f60e01b81526001600160a01b03841660048201526024810182905260448101839052606401610d51565b61118984848484036134a2565b5f818152600660209081526040808320805482518185028101850190935280835260609493830182828015612b8257602002820191905f5260205f20905b815481526020019060010190808311612b6e575b5050505050905080516006612b9791906148bb565b6001600160401b03811115612bae57612bae613e25565b604051908082528060200260200182016040528015612bd7578160200160208202803683370190505b509150601160ff16825f81518110612bf157612bf161422a565b602002602001018181525050601960ff1682600181518110612c1557612c1561422a565b602002602001018181525050601860ff1682600281518110612c3957612c3961422a565b602002602001018181525050600660ff1682600381518110612c5d57612c5d61422a565b602002602001018181525050601260ff1682600481518110612c8157612c8161422a565b602002602001018181525050601e60ff1682600581518110612ca557612ca561422a565b6020026020010181815250505f5b8151811015612d0757818181518110612cce57612cce61422a565b602002602001015183826006612ce491906148bb565b81518110612cf457612cf461422a565b6020908102919091010152600101612cb3565b5050919050565b5f80805f19858709858702925082811083820303915050805f03612d4557838281612d3b57612d3b615e98565b0492505050610b9d565b838110612d7657604051630c740aef60e31b8152600481018790526024810186905260448101859052606401610d51565b5f8486880960026001871981018816978890046003810283188082028403028082028403028082028403028082028403028082028403029081029092039091025f889003889004909101858311909403939093029303949094049190911702949350505050565b5f61270f198201612def57505f6129cf565b828410612dfd5750836129cf565b5f612e09868686612d0e565b9050825f03612e195790506129cf565b612e4681612e28858888612d0e565b612e34866127106147c3565b612e3e91906148bb565b612710612d0e565b9695505050505050565b6040805160018082528183019092525f916020808301908036833701905050905081815f81518110612e8457612e8461422a565b602002602001019060ff16908160ff16815250506111893085858461154d565b6060612eb36080850185615eac565b90506001600160401b03811115612ecc57612ecc613e25565b604051908082528060200260200182016040528015612f1f57816020015b604080516080810182525f8082526020820152606091810182905281810191909152815260200190600190039081612eea5790505b5090505f5b612f316080860186615eac565b90508110156131035736612f486080870187615eac565b83818110612f5857612f5861422a565b90506040020190505f612f6c868684613531565b90508063ffffffff165f03612fc457612f886020830183613a61565b612f986040840160208501613a61565b604051631ab3aa5760e01b81526001600160a01b03928316600482015291166024820152604401610d51565b6040805160018082528183019092525f91816020015b604080518082019091525f8082526020820152815260200190600190039081612fda57905050905060405180604001604052806001600160e01b03801681526020018363ffffffff16815250815f815181106130385761303861422a565b602002602001018190525060405180608001604052808460200160208101906130619190613a61565b6001600160a01b0316815260209081019061307e90860186613a61565b6001600160a01b031681526020015f6040519080825280602002602001820160405280156130d157816020015b604080518082019091525f80825260208201528152602001906001900390816130ab5790505b508152602001828152508585815181106130ed576130ed61422a565b6020908102919091010152505050600101612f24565b509392505050565b613113613687565b61311b6136d2565b61312b6060850160408601614ecc565b61ffff168152613142610100850160e08601614ecc565b61ffff16602082015263ffffffff8516604082015260016101c0820181905260a082018190526101e082018190526102008201523061022082015261318f61012085016101008601614ecc565b61ffff166102408201526040805160018082528183019092525f91816020015b604080518082019091525f8152606060208201528152602001906001900390816131af5750506040805180820190915260018152909150602081016131f76060880188614ee7565b808060200260200160405190810160405280939291908181526020015f905b828210156132425761323360c08302860136819003810190615ef1565b81526020019060010190613216565b5050505050815250815f8151811061325c5761325c61422a565b6020026020010181905250604051806101000160405280865f0160208101906132859190614f2b565b65ffffffffffff1681526020016132a260c0880160a08901614d27565b63ffffffff1681526020016132bd60a0880160808901614f46565b6001600160701b031681526020016132db60e0880160c08901614d27565b63ffffffff1681526020015f6001600160a01b0316815260200183815260200182815260200185815250925050509392505050565b61331d6020820182614f2b565b65ffffffffffff16158061334557504261333a6020830183614f2b565b65ffffffffffff1610155b1561334e575050565b5f61335c62278d00426148bb565b5f8481526002602052604090208190559050827f48a9634f50564cfe6648ff5e75795a36873bf96c408523d50017032657e67198826133996114d2565b6040516133a79291906139fd565b60405180910390a2505050565b5f8060205f8451602086015f885af1806133d3576040513d5f823e3d81fd5b50505f513d915081156133ea5780600114156133f7565b6001600160a01b0384163b155b1561118957604051635274afe760e01b81526001600160a01b0385166004820152602401610d51565b604051636eb1769f60e11b81523060048201526001600160a01b0383811660248301525f919085169063dd62ed3e90604401602060405180830381865afa15801561346d573d5f803e3d5ffd5b505050506040513d601f19601f820116820180604052508101906134919190614634565b905061118984846134a285856148bb565b604080516001600160a01b038416602482015260448082018490528251808303909101815260649091019091526020810180516001600160e01b031663095ea7b360e01b1790526134f38482613642565b611189576040516001600160a01b0384811660248301525f604483015261352791869182169063095ea7b390606401612a0c565b61118984826133b4565b5f805b83811015613638573685858381811061354f5761354f61422a565b90506020028101906135619190615f97565b90506135736040850160208601613a61565b6001600160a01b03166135896020830183613a61565b6001600160a01b03160361362f575f5b6135a66020830183614fba565b905081101561362d57366135bd6020840184614fba565b838181106135cd576135cd61422a565b6060029190910191506135e590506020870187613a61565b6001600160a01b03166135fb6020830183613a61565b6001600160a01b031603613624576136196060820160408301614d27565b945050505050610b9d565b50600101613599565b505b50600101613534565b505f949350505050565b5f805f8060205f8651602088015f8a5af192503d91505f519050828015612e46575081156136735780600114612e46565b50505050506001600160a01b03163b151590565b60408051610100810182525f8082526020820181905291810182905260608101829052608081019190915260a081016136be6136d2565b815260200160608152602001606081525090565b60408051610260810182525f80825260208201819052918101829052606081018290526080810182905260a0810182905260c0810182905260e08101829052610100810182905261012081018290526101408101829052610160810182905261018081018290526101a081018290526101c081018290526101e081018290526102008101829052610220810182905261024081019190915290565b6001600160a01b0381168114613781575f80fd5b50565b803561378f8161376d565b919050565b5f80604083850312156137a5575f80fd5b8235915060208301356137b78161376d565b809150509250929050565b5f602082840312156137d2575f80fd5b81356001600160e01b031981168114610b9d575f80fd5b5f805f805f608086880312156137fd575f80fd5b85356138088161376d565b945060208601356138188161376d565b93506040860135925060608601356001600160401b038082111561383a575f80fd5b818801915088601f83011261384d575f80fd5b81358181111561385b575f80fd5b89602082850101111561386c575f80fd5b9699959850939650602001949392505050565b5f60c0828403121561388f575f80fd5b50919050565b5f8083601f8401126138a5575f80fd5b5081356001600160401b038111156138bb575f80fd5b6020830191508360208260051b85010111156138d5575f80fd5b9250929050565b5f6060828403121561388f575f80fd5b5f6040828403121561388f575f80fd5b5f805f805f805f805f60e08a8c031215613914575f80fd5b8935985060208a01356001600160401b0380821115613931575f80fd5b61393d8d838e0161387f565b995060408c0135915080821115613952575f80fd5b61395e8d838e01613895565b909950975060608c0135915080821115613976575f80fd5b6139828d838e016138dc565b965060808c0135915080821115613997575f80fd5b6139a38d838e016138ec565b955060a08c01359150808211156139b8575f80fd5b6139c48d838e0161387f565b945060c08c01359150808211156139d9575f80fd5b506139e68c828d01613895565b915080935050809150509295985092959850929598565b9182526001600160a01b0316602082015260400190565b5f60208284031215613a24575f80fd5b5035919050565b5f805f60608486031215613a3d575f80fd5b83359250602084013591506040840135613a568161376d565b809150509250925092565b5f60208284031215613a71575f80fd5b8135610b9d8161376d565b5f805f805f8060a08789031215613a91575f80fd5b8635955060208701356001600160401b0380821115613aae575f80fd5b613aba8a838b0161387f565b96506040890135915080821115613acf575f80fd5b613adb8a838b01613895565b90965094506060890135915080821115613af3575f80fd5b613aff8a838b016138dc565b93506080890135915080821115613b14575f80fd5b50613b2189828a016138ec565b9150509295509295509295565b5f60208284031215613b3e575f80fd5b81356001600160401b03811115613b53575f80fd5b82016101808185031215610b9d575f80fd5b5f5b83811015613b7f578181015183820152602001613b67565b50505f910152565b5f8151808452613b9e816020860160208601613b65565b601f01601f19169290920160200192915050565b5f604080830185845260206040818601528186518084526060935060608701915060608160051b8801018389015f5b83811015613c3157898303605f19018552815180516001600160a01b031684528681015187850152880151888401889052613c1e88850182613b87565b9587019593505090850190600101613be1565b50909a9950505050505050505050565b5f805f838503610160811215613c55575f80fd5b84359350610120601f1982011215613c6b575f80fd5b50602084019150610140840135613a568161376d565b5f8060408385031215613c92575f80fd5b8235915060208301356001600160401b03811115613cae575f80fd5b613cba858286016138ec565b9150509250929050565b5f815180845260208085019450602084015f5b83811015613cfc5781516001600160a01b031687529582019590820190600101613cd7565b509495945050505050565b602081525f610b9d6020830184613cc4565b5f60208284031215613d29575f80fd5b81356001600160401b03811115613d3e575f80fd5b82016102008185031215610b9d575f80fd5b5f60208284031215613d60575f80fd5b81356001600160401b03811115613d75575f80fd5b82016101a08185031215610b9d575f80fd5b5f6080820186835260208681850152604086604086015260606080606087015283875180865260a08801915060a08160051b89010195508489015f5b82811015613e1357898803609f19018452815180516001600160a01b0316895287810151888a0152860151868901869052613e00868a0182613b87565b9850509286019290860190600101613dc3565b50959c9b505050505050505050505050565b634e487b7160e01b5f52604160045260245ffd5b803560ff8116811461378f575f80fd5b63ffffffff81168114613781575f80fd5b803561378f81613e49565b8035613e708161376d565b6001600160a01b0316825260ff613e8960208301613e39565b1660208301526040810135613e9d81613e49565b63ffffffff166040830152606090810135910152565b5f808335601e19843603018112613ec8575f80fd5b83016020810192503590506001600160401b03811115613ee6575f80fd5b8036038213156138d5575f80fd5b81835281816020850137505f828201602090810191909152601f909101601f19169091010190565b60208152613f3d60208201613f3084613784565b6001600160a01b03169052565b5f613f4a60208401613784565b6001600160a01b038116604084015250613f6a6060830160408501613e65565b60c083013560e083015261010060e084013581840152613f8b818501613784565b9050610120613fa4818501836001600160a01b03169052565b61014091508085013582850152506101608185013581850152613fc981860186613eb3565b6101808681015292509050610c886101a085018383613ef4565b604051606081016001600160401b038111828210171561400557614005613e25565b60405290565b60405161026081016001600160401b038111828210171561400557614005613e25565b60405161012081016001600160401b038111828210171561400557614005613e25565b604051601f8201601f191681016001600160401b038111828210171561407957614079613e25565b604052919050565b5f6001600160401b0382111561409957614099613e25565b5060051b60200190565b5f80604083850312156140b4575f80fd5b825191506020808401516001600160401b03808211156140d2575f80fd5b818601915086601f8301126140e5575f80fd5b81516140f86140f382614081565b614051565b81815260059190911b83018401908481019089831115614116575f80fd5b8585015b838110156141ec57805185811115614130575f80fd5b8601601f196060828e0382011215614146575f80fd5b61414e613fe3565b8983015161415b8161376d565b815260408301518a820152606083015188811115614177575f80fd5b8084019350508d603f84011261418b575f80fd5b898301518881111561419f5761419f613e25565b6141af8b84601f84011601614051565b92508083528e60408286010111156141c5575f80fd5b6141d5818c850160408701613b65565b50604081019190915284525091860191860161411a565b508096505050505050509250929050565b634e487b7160e01b5f52601160045260245ffd5b60ff81811683821601908111156107d6576107d66141fd565b634e487b7160e01b5f52603260045260245ffd5b65ffffffffffff81168114613781575f80fd5b803561378f8161423e565b6001600160701b0381168114613781575f80fd5b803561378f8161425c565b8381526101608101833561428e8161423e565b65ffffffffffff81166020840152506142a960208501614251565b65ffffffffffff81166040840152506142c460408501614251565b65ffffffffffff81166060840152506142df60608501614251565b65ffffffffffff81166080840152506142fa60808501613e5a565b63ffffffff811660a08401525061431360a08501614270565b6001600160701b03811660c08401525061432f60c08501613e5a565b63ffffffff811660e08401525061434860e08501613784565b61010061435f818501836001600160a01b03169052565b850135610120840152506001600160a01b0383166101408301526129cf565b8015158114613781575f80fd5b805161378f8161437e565b5f602082840312156143a6575f80fd5b8151610b9d8161437e565b805161378f8161423e565b805161378f81613e49565b805161378f8161425c565b805161378f8161376d565b61ffff81168114613781575f80fd5b805161378f816143dd565b5f6102608284031215614408575f80fd5b61441061400b565b905061441b826143ec565b8152614429602083016143ec565b602082015261443a604083016143bc565b604082015261444b6060830161438b565b606082015261445c6080830161438b565b608082015261446d60a0830161438b565b60a082015261447e60c0830161438b565b60c082015261448f60e0830161438b565b60e08201526101006144a281840161438b565b908201526101206144b483820161438b565b908201526101406144c683820161438b565b908201526101606144d883820161438b565b908201526101806144ea83820161438b565b908201526101a06144fc83820161438b565b908201526101c061450e83820161438b565b908201526101e061452083820161438b565b9082015261020061453283820161438b565b908201526102206145448382016143d2565b908201526102406145568382016143ec565b9082015292915050565b5f80828403610380811215614573575f80fd5b61012080821215614582575f80fd5b61458a61402e565b9150614595856143b1565b82526145a3602086016143b1565b60208301526145b4604086016143b1565b60408301526145c5606086016143b1565b60608301526145d6608086016143bc565b60808301526145e760a086016143c7565b60a08301526145f860c086016143bc565b60c083015261460960e086016143d2565b60e0830152610100808601518184015250819350614629868287016143f7565b925050509250929050565b5f60208284031215614644575f80fd5b5051919050565b5f808335601e19843603018112614660575f80fd5b8301803591506001600160401b03821115614679575f80fd5b6020019150368190038213156138d5575f80fd5b8681525f60018060a01b03808816602084015286604084015280861660608401525083608083015260e060a08301525f60e08301526101008060c08401526146d781840185613b87565b9998505050505050505050565b85815260018060a01b0385166020820152836040820152821515606082015260c060808201525f60c082015260e060a08201525f61472560e0830184613b87565b979650505050505050565b6001600160a01b03878116825286166020808301919091526040820186905260c06060830181905285519083018190525f918681019160e085019190845b8181101561478a5784518452938201939282019260010161476e565b5050509415156080840152505090151560a090910152949350505050565b5f602082840312156147b8575f80fd5b8151610b9d8161376d565b818103818111156107d6576107d66141fd565b5f80858511156147e4575f80fd5b838611156147f0575f80fd5b5050820193919092039150565b6bffffffffffffffffffffffff19813581811691601485101561482a5780818660140360031b1b83161692505b505092915050565b5f60018060a01b03808516835260206040602085015260a084018286511660408601526001600160401b036020870151166060860152604086015192506060608086015280835180835260c0870191506020850194505f92505b808310156148af57845160ff16825293830193600192909201919083019061488c565b50979650505050505050565b808201808211156107d6576107d66141fd565b5f823561015e198336030181126148e3575f80fd5b9190910192915050565b92835260208301919091526001600160a01b0316604082015260600190565b5f8235607e19833603018112614920575f80fd5b90910192915050565b80356001600160681b038116811461378f575f80fd5b803561378f816143dd565b803562ffffff8116811461378f575f80fd5b803561378f8161437e565b5f60808084018335601e19853603018112614980575f80fd5b840160208181019135906001600160401b0382111561499d575f80fd5b6101c080830236038413156149b0575f80fd5b608089529382905260a0938489015f5b84811015614af5576149e2826149d588614929565b6001600160681b03169052565b6149ed848701613e5a565b63ffffffff16848301526040614a04878201613e5a565b63ffffffff16908301526060614a1b87820161493f565b61ffff1690830152614a2e868901613784565b6001600160a01b031688830152858701358783015260c0614a5081880161494a565b62ffffff169083015260e0614a66878201613e39565b60ff1690830152610100614a7b87820161495c565b151590830152610120614a8f87820161495c565b151590830152610140614aa387820161495c565b151590830152610160614ab787820161495c565b151590830152610180614acb87820161495c565b1515908301526101a0614adf87820161495c565b15159083015294820194908201906001016149c0565b50614b0260208a01613e5a565b63ffffffff811660208c01529650614b1c60408a01613e39565b60ff811660408c01529650614b3360608a01613784565b6001600160a01b03811660608c015296506146d7565b8035614b548161437e565b151582526020810135614b668161437e565b151560208301526040810135614b7b8161437e565b151560408301526060810135614b908161437e565b8015156060840152505050565b838152606060208201525f614bb28485613eb3565b6101606060850152614bc96101c085018284613ef4565b915050614bd96020860186613eb3565b605f1980868503016080870152614bf1848385613ef4565b9350614c006040890189613eb3565b93509150808685030160a0870152614c19848484613ef4565b9350614c2760608901613784565b6001600160a01b03811660c08801529250614c456080890189613eb3565b93509150808685030160e0870152614c5e848484613ef4565b9350614c6d60a089018961490c565b925080868503016101008701525050614c868282614967565b915050614c9560c08601613784565b6001600160a01b0316610120840152614cb5610140840160e08701614b49565b604092909201929092529392505050565b5f60208284031215614cd6575f80fd5b8135610b9d8161437e565b5f8235609e198336030181126148e3575f80fd5b5f60208284031215614d05575f80fd5b610b9d8261494a565b5f60208284031215614d1e575f80fd5b610b9d82614929565b5f60208284031215614d37575f80fd5b8135610b9d81613e49565b5f808335601e19843603018112614d57575f80fd5b8301803591506001600160401b03821115614d70575f80fd5b6020019150600581901b36038213156138d5575f80fd5b5f60208083018184528085518083526040925060408601915060408160051b8701018488015f5b83811015614e3d57888303603f19018552815180516001600160a01b031684528781015162ffffff1688850152868101516001600160681b03168785015260608082015163ffffffff908116918601919091526080808301519091169085015260a09081015160c091850182905290614e2981860183613cc4565b968901969450505090860190600101614dae565b509098975050505050505050565b5f8235607e198336030181126148e3575f80fd5b63ffffffff881681526001600160a01b038716602082015260a0604082018190525f90614e8f9083018789613ef4565b8281036060840152614ea2818688613ef4565b91505082608083015298975050505050505050565b5f823561011e198336030181126148e3575f80fd5b5f60208284031215614edc575f80fd5b8135610b9d816143dd565b5f808335601e19843603018112614efc575f80fd5b8301803591506001600160401b03821115614f15575f80fd5b602001915060c0810236038213156138d5575f80fd5b5f60208284031215614f3b575f80fd5b8135610b9d8161423e565b5f60208284031215614f56575f80fd5b8135610b9d8161425c565b60e081525f614f7360e083018a613b87565b60208301989098525061ffff95861660408201526001600160701b0394909416606085015263ffffffff9283166080850152911660a083015290911660c090910152919050565b5f808335601e19843603018112614fcf575f80fd5b8301803591506001600160401b03821115614fe8575f80fd5b60200191506060810236038213156138d5575f80fd5b608081525f6150106080830187613b87565b63ffffffff959095166020830152506001600160a01b039290921660408301526001600160681b0316606090910152919050565b805161ffff1682526020810151615061602084018261ffff169052565b506040810151615079604084018263ffffffff169052565b50606081015161508d606084018215159052565b5060808101516150a1608084018215159052565b5060a08101516150b560a084018215159052565b5060c08101516150c960c084018215159052565b5060e08101516150dd60e084018215159052565b5061010081810151151590830152610120808201511515908301526101408082015115159083015261016080820151151590830152610180808201511515908301526101a0808201511515908301526101c0808201511515908301526101e08082015115159083015261020080820151151590830152610220808201516001600160a01b0316908301526102408082015161ffff811682850152611189565b5f82825180855260208086019550808260051b8401018186015f5b8481101561525657858303601f190189528151805184528401516040858501819052815181860181905291860191606090818701905f5b8181101561523f578551805163ffffffff1684528a8101516001600160401b03168b850152858101516001600160a01b03908116878601528582015115158686015260808083015165ffffffffffff169086015260a09182015116908401529489019460c0909201916001016151ce565b50509b87019b955050509184019150600101615197565b5090979650505050505050565b5f815180845260208085019450602084015f5b83811015613cfc57815180516001600160e01b0316885283015163ffffffff168388015260409096019590820190600101615276565b5f82825180855260208086019550808260051b8401018186015f5b8481101561525657858303601f19018952815180516001600160a01b0390811685528582015116858501526040808201516080828701819052919061530e83880182615263565b925050506060808301519250858203818701525061532c8183615263565b9a86019a94505050908301906001016152c7565b5f82825180855260208086019550808260051b8401018186015f5b8481101561525657601f198684030189528151805165ffffffffffff1684528481015163ffffffff908116868601526040808301516001600160701b031690860152606080830151909116908501526080808201516001600160a01b03169085015260a08082015161034091906153d482880182615044565b505060c0820151816103008701526153ee8287018261517c565b91505060e0820151915084810361032086015261540b81836152ac565b9a86019a945050509083019060010161535b565b5f808335601e19843603018112615434575f80fd5b83016020810192503590506001600160401b03811115615452575f80fd5b6060810236038213156138d5575f80fd5b5f8235603e19833603018112614920575f80fd5b5f8383855260208086019550808560051b830101845f5b8781101561525657848303601f190189526154a98288615463565b604080850182356154b98161376d565b6001600160a01b0381811688526154d2858a018661541f565b898b018690529384905292945060609291508288015f5b868110156155395783356154fc8161376d565b8316825260ff61550d858d01613e39565b168b8301528584013561551f81613e49565b63ffffffff168287015292840192908401906001016154e9565b509d89019d975050509386019350505060010161548e565b6001600160a01b038716815260a0602082018190525f906155759083018789613ef4565b82810360408401526155878187615340565b9050828103606084015261559c818587615477565b83810360809094019390935250505f81526020019695505050505050565b634e487b7160e01b5f52600160045260245ffd5b848152608060208201525f6155e66080830186615340565b82810360408401526155f9818587615477565b83810360609094019390935250505f8152602001949350505050565b838152604060208201525f610c88604083018486613ef4565b868152608060208201525f615647608083018789613ef4565b828103604084015261565a818688613ef4565b915050826060830152979650505050505050565b5f808335601e19843603018112615683575f80fd5b83016020810192503590506001600160401b038111156156a1575f80fd5b8060051b36038213156138d5575f80fd5b8183525f60208085019450825f5b85811015613cfc5781356156d381613e49565b63ffffffff1687526001600160681b036156ee838501614929565b16838801526040808301356157028161376d565b6001600160a01b03169088015260609687019691909101906001016156c0565b5f808335601e19843603018112615737575f80fd5b83016020810192503590506001600160401b03811115615755575f80fd5b60c0810236038213156138d5575f80fd5b80356001600160401b038116811461378f575f80fd5b8183525f60208085019450825f5b85811015613cfc57813561579d81613e49565b63ffffffff1687526001600160401b036157b8838501615766565b16838801526040808301356157cc8161376d565b6001600160a01b0316908801526060828101356157e88161437e565b1515908801526080828101356157fd8161423e565b65ffffffffffff169088015260a0615816838201613784565b6001600160a01b03169088015260c096870196919091019060010161578a565b5f8383855260208086019550808560051b830101845f5b8781101561525657848303601f1901895281353688900361011e19018112615873575f80fd5b87016101206158918561588584614251565b65ffffffffffff169052565b61589d8683018361541f565b82888801526158af83880182846156b2565b9250505060406158c081840161493f565b61ffff169086015260606158d683820184615722565b878403838901526158e884828461577c565b935050505060806158fa818401614270565b6001600160701b03169086015260a0615914838201613e5a565b63ffffffff169086015260c061592b838201613e5a565b63ffffffff169086015260e061594283820161493f565b61ffff169086015261010061595883820161493f565b61ffff1695019490945250978301979083019060010161584d565b5f808335601e19843603018112615988575f80fd5b83016020810192503590506001600160401b038111156159a6575f80fd5b8060061b36038213156138d5575f80fd5b8183525f60208085019450825f5b85811015613cfc5781356159d88161376d565b6001600160a01b03908116885282840135906159f38261376d565b168784015260409687019691909101906001016159c5565b5f60608084018335615a1c8161376d565b6001600160a01b03908116865260209085820135615a398161376d565b811660208801526040615a4e8782018861541f565b606060408b015294859052935f9060808a015b81831015615ab5578635615a748161376d565b8516815262ffffff615a8788880161494a565b168682015283870135615a9981613e49565b63ffffffff168185015295870195600192909201918701615a61565b9a9950505050505050505050565b5f8383855260208086019550808560051b830101845f5b8781101561525657848303601f19018952615af58288615463565b60408085018235615b058161376d565b6001600160a01b039081168752838801359036859003601e19018212615b29575f80fd5b9301878101939035906001600160401b03821115615b45575f80fd5b8160071b3603851315615b56575f80fd5b878901849052918190526060918288015f5b83811015615bc3578635615b7b8161376d565b83168252868b0135615b8c81613e49565b63ffffffff16828c015286860135615ba38161376d565b831682870152868501358583015260809687019690910190600101615b68565b509d89019d9750505093860193505050600101615ada565b5f615be6828361566e565b60408552615bf8604086018284615ac3565b915050602083013560208501528091505092915050565b60e081525f615c1e8a8b61490c565b60c060e0840152615c2f8182613eb3565b60806101a0860152615c4661022086018284613ef4565b915050615c566020830183613eb3565b61019f1980878503016101c0880152615c70848385613ef4565b9350615c7f6040860186613eb3565b9350915080878503016101e088015250615c9a838383613ef4565b925050506060820135610200850152615cb560208d01613e5a565b63ffffffff81166101008601529150615cd060408d01613784565b6001600160a01b0381166101208601529150615cef60608d018d61566e565b925060df198086840301610140870152615d0a838584615836565b9350615d1960808f018f615973565b93509150808685030161016087015250615d348383836159b7565b92505050615d4460a08c01613784565b6001600160a01b03166101808401528281036020840152615d66818a8c615477565b90508281036040840152615d7a8189615a0b565b90508281036060840152615d8e8188615bdb565b90508281036080840152615da28187615340565b9150508360a08301526146d760c08301846001600160a01b03169052565b838152606060208201525f615dd86060830185615bdb565b905060018060a01b0383166040830152949350505050565b848152836020820152606060408201525f612e46606083018486615ac3565b5f6020808385031215615e20575f80fd5b82516001600160401b03811115615e35575f80fd5b8301601f81018513615e45575f80fd5b8051615e536140f382614081565b81815260059190911b82018301908381019087831115615e71575f80fd5b928401925b82841015614725578351615e898161376d565b82529284019290840190615e76565b634e487b7160e01b5f52601260045260245ffd5b5f808335601e19843603018112615ec1575f80fd5b8301803591506001600160401b03821115615eda575f80fd5b6020019150600681901b36038213156138d5575f80fd5b5f60c08284031215615f01575f80fd5b60405160c081018181106001600160401b0382111715615f2357615f23613e25565b6040528235615f3181613e49565b8152615f3f60208401615766565b60208201526040830135615f528161376d565b60408201526060830135615f658161437e565b60608201526080830135615f788161423e565b608082015260a0830135615f8b8161376d565b60a08201529392505050565b5f8235603e198336030181126148e3575f80fdfea2646970667358221220a65dd1b0393318be33b98bea5093652be65932761f1712727bd697956b18864164736f6c63430008170033",
	"gitCommit": "f2d3b9e48d34c4c7b1b3b360032750c1dde1aeec",
	"history": []
}