{
	"format": "sphinx-sol-ct-artifact-1",
	"merkleRoot": "0x948b5063b043c4f0632a523280a323cc157913fa9652234d2e94ee89a8f8059f",
	"address": "0x1880d832aa283d05b8eab68877717e25fbd550bb",
	"sourceName": "src/REVLoans.sol",
	"contractName": "REVLoans",
	"chainId": "0xaa36a7",
	"abi": [
		{
			"inputs": [
				{
					"internalType": "contract IREVDeployer",
					"name": "revnets",
					"type": "address"
				},
				{
					"internalType": "uint256",
					"name": "revId",
					"type": "uint256"
				},
				{
					"internalType": "address",
					"name": "owner",
					"type": "address"
				},
				{
					"internalType": "contract IPermit2",
					"name": "permit2",
					"type": "address"
				},
				{
					"internalType": "address",
					"name": "trustedForwarder",
					"type": "address"
				}
			],
			"stateMutability": "nonpayable",
			"type": "constructor"
		},
		{
			"stateMutability": "payable",
			"type": "fallback"
		},
		{
			"stateMutability": "payable",
			"type": "receive"
		},
		{
			"inputs": [],
			"name": "CONTROLLER",
			"outputs": [
				{
					"internalType": "contract IJBController",
					"name": "",
					"type": "address"
				}
			],
			"stateMutability": "view",
			"type": "function"
		},
		{
			"inputs": [],
			"name": "DIRECTORY",
			"outputs": [
				{
					"internalType": "contract IJBDirectory",
					"name": "",
					"type": "address"
				}
			],
			"stateMutability": "view",
			"type": "function"
		},
		{
			"inputs": [],
			"name": "LOAN_LIQUIDATION_DURATION",
			"outputs": [
				{
					"internalType": "uint256",
					"name": "",
					"type": "uint256"
				}
			],
			"stateMutability": "view",
			"type": "function"
		},
		{
			"inputs": [],
			"name": "MAX_PREPAID_FEE_PERCENT",
			"outputs": [
				{
					"internalType": "uint256",
					"name": "",
					"type": "uint256"
				}
			],
			"stateMutability": "view",
			"type": "function"
		},
		{
			"inputs": [],
			"name": "MIN_PREPAID_FEE_PERCENT",
			"outputs": [
				{
					"internalType": "uint256",
					"name": "",
					"type": "uint256"
				}
			],
			"stateMutability": "view",
			"type": "function"
		},
		{
			"inputs": [],
			"name": "PERMIT2",
			"outputs": [
				{
					"internalType": "contract IPermit2",
					"name": "",
					"type": "address"
				}
			],
			"stateMutability": "view",
			"type": "function"
		},
		{
			"inputs": [],
			"name": "PRICES",
			"outputs": [
				{
					"internalType": "contract IJBPrices",
					"name": "",
					"type": "address"
				}
			],
			"stateMutability": "view",
			"type": "function"
		},
		{
			"inputs": [],
			"name": "PROJECTS",
			"outputs": [
				{
					"internalType": "contract IJBProjects",
					"name": "",
					"type": "address"
				}
			],
			"stateMutability": "view",
			"type": "function"
		},
		{
			"inputs": [],
			"name": "REVNETS",
			"outputs": [
				{
					"internalType": "contract IREVDeployer",
					"name": "",
					"type": "address"
				}
			],
			"stateMutability": "view",
			"type": "function"
		},
		{
			"inputs": [],
			"name": "REV_ID",
			"outputs": [
				{
					"internalType": "uint256",
					"name": "",
					"type": "uint256"
				}
			],
			"stateMutability": "view",
			"type": "function"
		},
		{
			"inputs": [],
			"name": "REV_PREPAID_FEE_PERCENT",
			"outputs": [
				{
					"internalType": "uint256",
					"name": "",
					"type": "uint256"
				}
			],
			"stateMutability": "view",
			"type": "function"
		},
		{
			"inputs": [
				{
					"internalType": "address",
					"name": "to",
					"type": "address"
				},
				{
					"internalType": "uint256",
					"name": "tokenId",
					"type": "uint256"
				}
			],
			"name": "approve",
			"outputs": [],
			"stateMutability": "nonpayable",
			"type": "function"
		},
		{
			"inputs": [
				{
					"internalType": "address",
					"name": "owner",
					"type": "address"
				}
			],
			"name": "balanceOf",
			"outputs": [
				{
					"internalType": "uint256",
					"name": "",
					"type": "uint256"
				}
			],
			"stateMutability": "view",
			"type": "function"
		},
		{
			"inputs": [
				{
					"internalType": "uint256",
					"name": "revnetId",
					"type": "uint256"
				},
				{
					"components": [
						{
							"internalType": "address",
							"name": "token",
							"type": "address"
						},
						{
							"internalType": "contract IJBPayoutTerminal",
							"name": "terminal",
							"type": "address"
						}
					],
					"internalType": "struct REVLoanSource",
					"name": "source",
					"type": "tuple"
				},
				{
					"internalType": "uint256",
					"name": "minBorrowAmount",
					"type": "uint256"
				},
				{
					"internalType": "uint256",
					"name": "collateralCount",
					"type": "uint256"
				},
				{
					"internalType": "address payable",
					"name": "beneficiary",
					"type": "address"
				},
				{
					"internalType": "uint256",
					"name": "prepaidFeePercent",
					"type": "uint256"
				}
			],
			"name": "borrowFrom",
			"outputs": [
				{
					"internalType": "uint256",
					"name": "loanId",
					"type": "uint256"
				},
				{
					"components": [
						{
							"internalType": "uint112",
							"name": "amount",
							"type": "uint112"
						},
						{
							"internalType": "uint112",
							"name": "collateral",
							"type": "uint112"
						},
						{
							"internalType": "uint48",
							"name": "createdAt",
							"type": "uint48"
						},
						{
							"internalType": "uint16",
							"name": "prepaidFeePercent",
							"type": "uint16"
						},
						{
							"internalType": "uint32",
							"name": "prepaidDuration",
							"type": "uint32"
						},
						{
							"components": [
								{
									"internalType": "address",
									"name": "token",
									"type": "address"
								},
								{
									"internalType": "contract IJBPayoutTerminal",
									"name": "terminal",
									"type": "address"
								}
							],
							"internalType": "struct REVLoanSource",
							"name": "source",
							"type": "tuple"
						}
					],
					"internalType": "struct REVLoan",
					"name": "",
					"type": "tuple"
				}
			],
			"stateMutability": "nonpayable",
			"type": "function"
		},
		{
			"inputs": [
				{
					"internalType": "uint256",
					"name": "revnetId",
					"type": "uint256"
				},
				{
					"internalType": "uint256",
					"name": "collateralCount",
					"type": "uint256"
				},
				{
					"internalType": "uint256",
					"name": "decimals",
					"type": "uint256"
				},
				{
					"internalType": "uint256",
					"name": "currency",
					"type": "uint256"
				}
			],
			"name": "borrowableAmountFrom",
			"outputs": [
				{
					"internalType": "uint256",
					"name": "",
					"type": "uint256"
				}
			],
			"stateMutability": "view",
			"type": "function"
		},
		{
			"inputs": [
				{
					"components": [
						{
							"internalType": "uint112",
							"name": "amount",
							"type": "uint112"
						},
						{
							"internalType": "uint112",
							"name": "collateral",
							"type": "uint112"
						},
						{
							"internalType": "uint48",
							"name": "createdAt",
							"type": "uint48"
						},
						{
							"internalType": "uint16",
							"name": "prepaidFeePercent",
							"type": "uint16"
						},
						{
							"internalType": "uint32",
							"name": "prepaidDuration",
							"type": "uint32"
						},
						{
							"components": [
								{
									"internalType": "address",
									"name": "token",
									"type": "address"
								},
								{
									"internalType": "contract IJBPayoutTerminal",
									"name": "terminal",
									"type": "address"
								}
							],
							"internalType": "struct REVLoanSource",
							"name": "source",
							"type": "tuple"
						}
					],
					"internalType": "struct REVLoan",
					"name": "loan",
					"type": "tuple"
				},
				{
					"internalType": "uint256",
					"name": "amount",
					"type": "uint256"
				}
			],
			"name": "determineSourceFeeAmount",
			"outputs": [
				{
					"internalType": "uint256",
					"name": "",
					"type": "uint256"
				}
			],
			"stateMutability": "view",
			"type": "function"
		},
		{
			"inputs": [
				{
					"internalType": "uint256",
					"name": "tokenId",
					"type": "uint256"
				}
			],
			"name": "getApproved",
			"outputs": [
				{
					"internalType": "address",
					"name": "",
					"type": "address"
				}
			],
			"stateMutability": "view",
			"type": "function"
		},
		{
			"inputs": [
				{
					"internalType": "address",
					"name": "owner",
					"type": "address"
				},
				{
					"internalType": "address",
					"name": "operator",
					"type": "address"
				}
			],
			"name": "isApprovedForAll",
			"outputs": [
				{
					"internalType": "bool",
					"name": "",
					"type": "bool"
				}
			],
			"stateMutability": "view",
			"type": "function"
		},
		{
			"inputs": [
				{
					"internalType": "uint256",
					"name": "revnetId",
					"type": "uint256"
				},
				{
					"internalType": "contract IJBPayoutTerminal",
					"name": "terminal",
					"type": "address"
				},
				{
					"internalType": "address",
					"name": "token",
					"type": "address"
				}
			],
			"name": "isLoanSourceOf",
			"outputs": [
				{
					"internalType": "bool",
					"name": "",
					"type": "bool"
				}
			],
			"stateMutability": "view",
			"type": "function"
		},
		{
			"inputs": [
				{
					"internalType": "address",
					"name": "forwarder",
					"type": "address"
				}
			],
			"name": "isTrustedForwarder",
			"outputs": [
				{
					"internalType": "bool",
					"name": "",
					"type": "bool"
				}
			],
			"stateMutability": "view",
			"type": "function"
		},
		{
			"inputs": [
				{
					"internalType": "uint256",
					"name": "revnetId",
					"type": "uint256"
				},
				{
					"internalType": "uint256",
					"name": "startingLoanId",
					"type": "uint256"
				},
				{
					"internalType": "uint256",
					"name": "count",
					"type": "uint256"
				}
			],
			"name": "liquidateExpiredLoansFrom",
			"outputs": [],
			"stateMutability": "nonpayable",
			"type": "function"
		},
		{
			"inputs": [
				{
					"internalType": "uint256",
					"name": "loanId",
					"type": "uint256"
				}
			],
			"name": "loanOf",
			"outputs": [
				{
					"components": [
						{
							"internalType": "uint112",
							"name": "amount",
							"type": "uint112"
						},
						{
							"internalType": "uint112",
							"name": "collateral",
							"type": "uint112"
						},
						{
							"internalType": "uint48",
							"name": "createdAt",
							"type": "uint48"
						},
						{
							"internalType": "uint16",
							"name": "prepaidFeePercent",
							"type": "uint16"
						},
						{
							"internalType": "uint32",
							"name": "prepaidDuration",
							"type": "uint32"
						},
						{
							"components": [
								{
									"internalType": "address",
									"name": "token",
									"type": "address"
								},
								{
									"internalType": "contract IJBPayoutTerminal",
									"name": "terminal",
									"type": "address"
								}
							],
							"internalType": "struct REVLoanSource",
							"name": "source",
							"type": "tuple"
						}
					],
					"internalType": "struct REVLoan",
					"name": "",
					"type": "tuple"
				}
			],
			"stateMutability": "view",
			"type": "function"
		},
		{
			"inputs": [
				{
					"internalType": "uint256",
					"name": "revnetId",
					"type": "uint256"
				}
			],
			"name": "loanSourcesOf",
			"outputs": [
				{
					"components": [
						{
							"internalType": "address",
							"name": "token",
							"type": "address"
						},
						{
							"internalType": "contract IJBPayoutTerminal",
							"name": "terminal",
							"type": "address"
						}
					],
					"internalType": "struct REVLoanSource[]",
					"name": "",
					"type": "tuple[]"
				}
			],
			"stateMutability": "view",
			"type": "function"
		},
		{
			"inputs": [],
			"name": "name",
			"outputs": [
				{
					"internalType": "string",
					"name": "",
					"type": "string"
				}
			],
			"stateMutability": "view",
			"type": "function"
		},
		{
			"inputs": [
				{
					"internalType": "uint256",
					"name": "revnetId",
					"type": "uint256"
				}
			],
			"name": "numberOfLoansFor",
			"outputs": [
				{
					"internalType": "uint256",
					"name": "",
					"type": "uint256"
				}
			],
			"stateMutability": "view",
			"type": "function"
		},
		{
			"inputs": [],
			"name": "owner",
			"outputs": [
				{
					"internalType": "address",
					"name": "",
					"type": "address"
				}
			],
			"stateMutability": "view",
			"type": "function"
		},
		{
			"inputs": [
				{
					"internalType": "uint256",
					"name": "tokenId",
					"type": "uint256"
				}
			],
			"name": "ownerOf",
			"outputs": [
				{
					"internalType": "address",
					"name": "",
					"type": "address"
				}
			],
			"stateMutability": "view",
			"type": "function"
		},
		{
			"inputs": [
				{
					"internalType": "uint256",
					"name": "loanId",
					"type": "uint256"
				},
				{
					"internalType": "uint256",
					"name": "collateralCountToTransfer",
					"type": "uint256"
				},
				{
					"components": [
						{
							"internalType": "address",
							"name": "token",
							"type": "address"
						},
						{
							"internalType": "contract IJBPayoutTerminal",
							"name": "terminal",
							"type": "address"
						}
					],
					"internalType": "struct REVLoanSource",
					"name": "source",
					"type": "tuple"
				},
				{
					"internalType": "uint256",
					"name": "minBorrowAmount",
					"type": "uint256"
				},
				{
					"internalType": "uint256",
					"name": "collateralCountToAdd",
					"type": "uint256"
				},
				{
					"internalType": "address payable",
					"name": "beneficiary",
					"type": "address"
				},
				{
					"internalType": "uint256",
					"name": "prepaidFeePercent",
					"type": "uint256"
				}
			],
			"name": "reallocateCollateralFromLoan",
			"outputs": [
				{
					"internalType": "uint256",
					"name": "reallocatedLoanId",
					"type": "uint256"
				},
				{
					"internalType": "uint256",
					"name": "newLoanId",
					"type": "uint256"
				},
				{
					"components": [
						{
							"internalType": "uint112",
							"name": "amount",
							"type": "uint112"
						},
						{
							"internalType": "uint112",
							"name": "collateral",
							"type": "uint112"
						},
						{
							"internalType": "uint48",
							"name": "createdAt",
							"type": "uint48"
						},
						{
							"internalType": "uint16",
							"name": "prepaidFeePercent",
							"type": "uint16"
						},
						{
							"internalType": "uint32",
							"name": "prepaidDuration",
							"type": "uint32"
						},
						{
							"components": [
								{
									"internalType": "address",
									"name": "token",
									"type": "address"
								},
								{
									"internalType": "contract IJBPayoutTerminal",
									"name": "terminal",
									"type": "address"
								}
							],
							"internalType": "struct REVLoanSource",
							"name": "source",
							"type": "tuple"
						}
					],
					"internalType": "struct REVLoan",
					"name": "reallocatedLoan",
					"type": "tuple"
				},
				{
					"components": [
						{
							"internalType": "uint112",
							"name": "amount",
							"type": "uint112"
						},
						{
							"internalType": "uint112",
							"name": "collateral",
							"type": "uint112"
						},
						{
							"internalType": "uint48",
							"name": "createdAt",
							"type": "uint48"
						},
						{
							"internalType": "uint16",
							"name": "prepaidFeePercent",
							"type": "uint16"
						},
						{
							"internalType": "uint32",
							"name": "prepaidDuration",
							"type": "uint32"
						},
						{
							"components": [
								{
									"internalType": "address",
									"name": "token",
									"type": "address"
								},
								{
									"internalType": "contract IJBPayoutTerminal",
									"name": "terminal",
									"type": "address"
								}
							],
							"internalType": "struct REVLoanSource",
							"name": "source",
							"type": "tuple"
						}
					],
					"internalType": "struct REVLoan",
					"name": "newLoan",
					"type": "tuple"
				}
			],
			"stateMutability": "payable",
			"type": "function"
		},
		{
			"inputs": [],
			"name": "renounceOwnership",
			"outputs": [],
			"stateMutability": "nonpayable",
			"type": "function"
		},
		{
			"inputs": [
				{
					"internalType": "uint256",
					"name": "loanId",
					"type": "uint256"
				},
				{
					"internalType": "uint256",
					"name": "maxRepayBorrowAmount",
					"type": "uint256"
				},
				{
					"internalType": "uint256",
					"name": "collateralCountToReturn",
					"type": "uint256"
				},
				{
					"internalType": "address payable",
					"name": "beneficiary",
					"type": "address"
				},
				{
					"components": [
						{
							"internalType": "uint256",
							"name": "sigDeadline",
							"type": "uint256"
						},
						{
							"internalType": "uint160",
							"name": "amount",
							"type": "uint160"
						},
						{
							"internalType": "uint48",
							"name": "expiration",
							"type": "uint48"
						},
						{
							"internalType": "uint48",
							"name": "nonce",
							"type": "uint48"
						},
						{
							"internalType": "bytes",
							"name": "signature",
							"type": "bytes"
						}
					],
					"internalType": "struct JBSingleAllowance",
					"name": "allowance",
					"type": "tuple"
				}
			],
			"name": "repayLoan",
			"outputs": [
				{
					"internalType": "uint256",
					"name": "paidOffLoanId",
					"type": "uint256"
				},
				{
					"components": [
						{
							"internalType": "uint112",
							"name": "amount",
							"type": "uint112"
						},
						{
							"internalType": "uint112",
							"name": "collateral",
							"type": "uint112"
						},
						{
							"internalType": "uint48",
							"name": "createdAt",
							"type": "uint48"
						},
						{
							"internalType": "uint16",
							"name": "prepaidFeePercent",
							"type": "uint16"
						},
						{
							"internalType": "uint32",
							"name": "prepaidDuration",
							"type": "uint32"
						},
						{
							"components": [
								{
									"internalType": "address",
									"name": "token",
									"type": "address"
								},
								{
									"internalType": "contract IJBPayoutTerminal",
									"name": "terminal",
									"type": "address"
								}
							],
							"internalType": "struct REVLoanSource",
							"name": "source",
							"type": "tuple"
						}
					],
					"internalType": "struct REVLoan",
					"name": "paidOffloan",
					"type": "tuple"
				}
			],
			"stateMutability": "payable",
			"type": "function"
		},
		{
			"inputs": [
				{
					"internalType": "uint256",
					"name": "loanId",
					"type": "uint256"
				}
			],
			"name": "revnetIdOfLoanWith",
			"outputs": [
				{
					"internalType": "uint256",
					"name": "",
					"type": "uint256"
				}
			],
			"stateMutability": "pure",
			"type": "function"
		},
		{
			"inputs": [
				{
					"internalType": "address",
					"name": "from",
					"type": "address"
				},
				{
					"internalType": "address",
					"name": "to",
					"type": "address"
				},
				{
					"internalType": "uint256",
					"name": "tokenId",
					"type": "uint256"
				}
			],
			"name": "safeTransferFrom",
			"outputs": [],
			"stateMutability": "nonpayable",
			"type": "function"
		},
		{
			"inputs": [
				{
					"internalType": "address",
					"name": "from",
					"type": "address"
				},
				{
					"internalType": "address",
					"name": "to",
					"type": "address"
				},
				{
					"internalType": "uint256",
					"name": "tokenId",
					"type": "uint256"
				},
				{
					"internalType": "bytes",
					"name": "data",
					"type": "bytes"
				}
			],
			"name": "safeTransferFrom",
			"outputs": [],
			"stateMutability": "nonpayable",
			"type": "function"
		},
		{
			"inputs": [
				{
					"internalType": "address",
					"name": "operator",
					"type": "address"
				},
				{
					"internalType": "bool",
					"name": "approved",
					"type": "bool"
				}
			],
			"name": "setApprovalForAll",
			"outputs": [],
			"stateMutability": "nonpayable",
			"type": "function"
		},
		{
			"inputs": [
				{
					"internalType": "contract IJBTokenUriResolver",
					"name": "resolver",
					"type": "address"
				}
			],
			"name": "setTokenUriResolver",
			"outputs": [],
			"stateMutability": "nonpayable",
			"type": "function"
		},
		{
			"inputs": [
				{
					"internalType": "bytes4",
					"name": "interfaceId",
					"type": "bytes4"
				}
			],
			"name": "supportsInterface",
			"outputs": [
				{
					"internalType": "bool",
					"name": "",
					"type": "bool"
				}
			],
			"stateMutability": "view",
			"type": "function"
		},
		{
			"inputs": [],
			"name": "symbol",
			"outputs": [
				{
					"internalType": "string",
					"name": "",
					"type": "string"
				}
			],
			"stateMutability": "view",
			"type": "function"
		},
		{
			"inputs": [
				{
					"internalType": "uint256",
					"name": "loanId",
					"type": "uint256"
				}
			],
			"name": "tokenURI",
			"outputs": [
				{
					"internalType": "string",
					"name": "",
					"type": "string"
				}
			],
			"stateMutability": "view",
			"type": "function"
		},
		{
			"inputs": [],
			"name": "tokenUriResolver",
			"outputs": [
				{
					"internalType": "contract IJBTokenUriResolver",
					"name": "",
					"type": "address"
				}
			],
			"stateMutability": "view",
			"type": "function"
		},
		{
			"inputs": [
				{
					"internalType": "uint256",
					"name": "revnetId",
					"type": "uint256"
				},
				{
					"internalType": "contract IJBPayoutTerminal",
					"name": "terminal",
					"type": "address"
				},
				{
					"internalType": "address",
					"name": "token",
					"type": "address"
				}
			],
			"name": "totalBorrowedFrom",
			"outputs": [
				{
					"internalType": "uint256",
					"name": "",
					"type": "uint256"
				}
			],
			"stateMutability": "view",
			"type": "function"
		},
		{
			"inputs": [
				{
					"internalType": "uint256",
					"name": "revnetId",
					"type": "uint256"
				}
			],
			"name": "totalCollateralOf",
			"outputs": [
				{
					"internalType": "uint256",
					"name": "",
					"type": "uint256"
				}
			],
			"stateMutability": "view",
			"type": "function"
		},
		{
			"inputs": [
				{
					"internalType": "address",
					"name": "from",
					"type": "address"
				},
				{
					"internalType": "address",
					"name": "to",
					"type": "address"
				},
				{
					"internalType": "uint256",
					"name": "tokenId",
					"type": "uint256"
				}
			],
			"name": "transferFrom",
			"outputs": [],
			"stateMutability": "nonpayable",
			"type": "function"
		},
		{
			"inputs": [
				{
					"internalType": "address",
					"name": "newOwner",
					"type": "address"
				}
			],
			"name": "transferOwnership",
			"outputs": [],
			"stateMutability": "nonpayable",
			"type": "function"
		},
		{
			"inputs": [],
			"name": "trustedForwarder",
			"outputs": [
				{
					"internalType": "address",
					"name": "",
					"type": "address"
				}
			],
			"stateMutability": "view",
			"type": "function"
		},
		{
			"anonymous": false,
			"inputs": [
				{
					"indexed": true,
					"internalType": "address",
					"name": "owner",
					"type": "address"
				},
				{
					"indexed": true,
					"internalType": "address",
					"name": "approved",
					"type": "address"
				},
				{
					"indexed": true,
					"internalType": "uint256",
					"name": "tokenId",
					"type": "uint256"
				}
			],
			"name": "Approval",
			"type": "event"
		},
		{
			"anonymous": false,
			"inputs": [
				{
					"indexed": true,
					"internalType": "address",
					"name": "owner",
					"type": "address"
				},
				{
					"indexed": true,
					"internalType": "address",
					"name": "operator",
					"type": "address"
				},
				{
					"indexed": false,
					"internalType": "bool",
					"name": "approved",
					"type": "bool"
				}
			],
			"name": "ApprovalForAll",
			"type": "event"
		},
		{
			"anonymous": false,
			"inputs": [
				{
					"indexed": true,
					"internalType": "uint256",
					"name": "loanId",
					"type": "uint256"
				},
				{
					"indexed": true,
					"internalType": "uint256",
					"name": "revnetId",
					"type": "uint256"
				},
				{
					"components": [
						{
							"internalType": "uint112",
							"name": "amount",
							"type": "uint112"
						},
						{
							"internalType": "uint112",
							"name": "collateral",
							"type": "uint112"
						},
						{
							"internalType": "uint48",
							"name": "createdAt",
							"type": "uint48"
						},
						{
							"internalType": "uint16",
							"name": "prepaidFeePercent",
							"type": "uint16"
						},
						{
							"internalType": "uint32",
							"name": "prepaidDuration",
							"type": "uint32"
						},
						{
							"components": [
								{
									"internalType": "address",
									"name": "token",
									"type": "address"
								},
								{
									"internalType": "contract IJBPayoutTerminal",
									"name": "terminal",
									"type": "address"
								}
							],
							"internalType": "struct REVLoanSource",
							"name": "source",
							"type": "tuple"
						}
					],
					"indexed": false,
					"internalType": "struct REVLoan",
					"name": "loan",
					"type": "tuple"
				},
				{
					"components": [
						{
							"internalType": "address",
							"name": "token",
							"type": "address"
						},
						{
							"internalType": "contract IJBPayoutTerminal",
							"name": "terminal",
							"type": "address"
						}
					],
					"indexed": false,
					"internalType": "struct REVLoanSource",
					"name": "source",
					"type": "tuple"
				},
				{
					"indexed": false,
					"internalType": "uint256",
					"name": "borrowAmount",
					"type": "uint256"
				},
				{
					"indexed": false,
					"internalType": "uint256",
					"name": "collateralCount",
					"type": "uint256"
				},
				{
					"indexed": false,
					"internalType": "uint256",
					"name": "sourceFeeAmount",
					"type": "uint256"
				},
				{
					"indexed": false,
					"internalType": "address payable",
					"name": "beneficiary",
					"type": "address"
				},
				{
					"indexed": false,
					"internalType": "address",
					"name": "caller",
					"type": "address"
				}
			],
			"name": "Borrow",
			"type": "event"
		},
		{
			"anonymous": false,
			"inputs": [
				{
					"indexed": true,
					"internalType": "uint256",
					"name": "loanId",
					"type": "uint256"
				},
				{
					"indexed": true,
					"internalType": "uint256",
					"name": "revnetId",
					"type": "uint256"
				},
				{
					"components": [
						{
							"internalType": "uint112",
							"name": "amount",
							"type": "uint112"
						},
						{
							"internalType": "uint112",
							"name": "collateral",
							"type": "uint112"
						},
						{
							"internalType": "uint48",
							"name": "createdAt",
							"type": "uint48"
						},
						{
							"internalType": "uint16",
							"name": "prepaidFeePercent",
							"type": "uint16"
						},
						{
							"internalType": "uint32",
							"name": "prepaidDuration",
							"type": "uint32"
						},
						{
							"components": [
								{
									"internalType": "address",
									"name": "token",
									"type": "address"
								},
								{
									"internalType": "contract IJBPayoutTerminal",
									"name": "terminal",
									"type": "address"
								}
							],
							"internalType": "struct REVLoanSource",
							"name": "source",
							"type": "tuple"
						}
					],
					"indexed": false,
					"internalType": "struct REVLoan",
					"name": "loan",
					"type": "tuple"
				},
				{
					"indexed": false,
					"internalType": "address",
					"name": "caller",
					"type": "address"
				}
			],
			"name": "Liquidate",
			"type": "event"
		},
		{
			"anonymous": false,
			"inputs": [
				{
					"indexed": true,
					"internalType": "address",
					"name": "previousOwner",
					"type": "address"
				},
				{
					"indexed": true,
					"internalType": "address",
					"name": "newOwner",
					"type": "address"
				}
			],
			"name": "OwnershipTransferred",
			"type": "event"
		},
		{
			"anonymous": false,
			"inputs": [
				{
					"indexed": true,
					"internalType": "uint256",
					"name": "loanId",
					"type": "uint256"
				},
				{
					"indexed": true,
					"internalType": "uint256",
					"name": "revnetId",
					"type": "uint256"
				},
				{
					"indexed": true,
					"internalType": "uint256",
					"name": "reallocatedLoanId",
					"type": "uint256"
				},
				{
					"components": [
						{
							"internalType": "uint112",
							"name": "amount",
							"type": "uint112"
						},
						{
							"internalType": "uint112",
							"name": "collateral",
							"type": "uint112"
						},
						{
							"internalType": "uint48",
							"name": "createdAt",
							"type": "uint48"
						},
						{
							"internalType": "uint16",
							"name": "prepaidFeePercent",
							"type": "uint16"
						},
						{
							"internalType": "uint32",
							"name": "prepaidDuration",
							"type": "uint32"
						},
						{
							"components": [
								{
									"internalType": "address",
									"name": "token",
									"type": "address"
								},
								{
									"internalType": "contract IJBPayoutTerminal",
									"name": "terminal",
									"type": "address"
								}
							],
							"internalType": "struct REVLoanSource",
							"name": "source",
							"type": "tuple"
						}
					],
					"indexed": false,
					"internalType": "struct REVLoan",
					"name": "reallocatedLoan",
					"type": "tuple"
				},
				{
					"indexed": false,
					"internalType": "uint256",
					"name": "removedcollateralCount",
					"type": "uint256"
				},
				{
					"indexed": false,
					"internalType": "address",
					"name": "caller",
					"type": "address"
				}
			],
			"name": "ReallocateCollateral",
			"type": "event"
		},
		{
			"anonymous": false,
			"inputs": [
				{
					"indexed": true,
					"internalType": "uint256",
					"name": "loanId",
					"type": "uint256"
				},
				{
					"indexed": true,
					"internalType": "uint256",
					"name": "revnetId",
					"type": "uint256"
				},
				{
					"indexed": true,
					"internalType": "uint256",
					"name": "paidOffLoanId",
					"type": "uint256"
				},
				{
					"components": [
						{
							"internalType": "uint112",
							"name": "amount",
							"type": "uint112"
						},
						{
							"internalType": "uint112",
							"name": "collateral",
							"type": "uint112"
						},
						{
							"internalType": "uint48",
							"name": "createdAt",
							"type": "uint48"
						},
						{
							"internalType": "uint16",
							"name": "prepaidFeePercent",
							"type": "uint16"
						},
						{
							"internalType": "uint32",
							"name": "prepaidDuration",
							"type": "uint32"
						},
						{
							"components": [
								{
									"internalType": "address",
									"name": "token",
									"type": "address"
								},
								{
									"internalType": "contract IJBPayoutTerminal",
									"name": "terminal",
									"type": "address"
								}
							],
							"internalType": "struct REVLoanSource",
							"name": "source",
							"type": "tuple"
						}
					],
					"indexed": false,
					"internalType": "struct REVLoan",
					"name": "loan",
					"type": "tuple"
				},
				{
					"components": [
						{
							"internalType": "uint112",
							"name": "amount",
							"type": "uint112"
						},
						{
							"internalType": "uint112",
							"name": "collateral",
							"type": "uint112"
						},
						{
							"internalType": "uint48",
							"name": "createdAt",
							"type": "uint48"
						},
						{
							"internalType": "uint16",
							"name": "prepaidFeePercent",
							"type": "uint16"
						},
						{
							"internalType": "uint32",
							"name": "prepaidDuration",
							"type": "uint32"
						},
						{
							"components": [
								{
									"internalType": "address",
									"name": "token",
									"type": "address"
								},
								{
									"internalType": "contract IJBPayoutTerminal",
									"name": "terminal",
									"type": "address"
								}
							],
							"internalType": "struct REVLoanSource",
							"name": "source",
							"type": "tuple"
						}
					],
					"indexed": false,
					"internalType": "struct REVLoan",
					"name": "paidOffLoan",
					"type": "tuple"
				},
				{
					"indexed": false,
					"internalType": "uint256",
					"name": "repayBorrowAmount",
					"type": "uint256"
				},
				{
					"indexed": false,
					"internalType": "uint256",
					"name": "sourceFeeAmount",
					"type": "uint256"
				},
				{
					"indexed": false,
					"internalType": "uint256",
					"name": "collateralCountToReturn",
					"type": "uint256"
				},
				{
					"indexed": false,
					"internalType": "address payable",
					"name": "beneficiary",
					"type": "address"
				},
				{
					"indexed": false,
					"internalType": "address",
					"name": "caller",
					"type": "address"
				}
			],
			"name": "RepayLoan",
			"type": "event"
		},
		{
			"anonymous": false,
			"inputs": [
				{
					"indexed": true,
					"internalType": "contract IJBTokenUriResolver",
					"name": "resolver",
					"type": "address"
				},
				{
					"indexed": false,
					"internalType": "address",
					"name": "caller",
					"type": "address"
				}
			],
			"name": "SetTokenUriResolver",
			"type": "event"
		},
		{
			"anonymous": false,
			"inputs": [
				{
					"indexed": true,
					"internalType": "address",
					"name": "from",
					"type": "address"
				},
				{
					"indexed": true,
					"internalType": "address",
					"name": "to",
					"type": "address"
				},
				{
					"indexed": true,
					"internalType": "uint256",
					"name": "tokenId",
					"type": "uint256"
				}
			],
			"name": "Transfer",
			"type": "event"
		},
		{
			"inputs": [
				{
					"internalType": "address",
					"name": "sender",
					"type": "address"
				},
				{
					"internalType": "uint256",
					"name": "tokenId",
					"type": "uint256"
				},
				{
					"internalType": "address",
					"name": "owner",
					"type": "address"
				}
			],
			"name": "ERC721IncorrectOwner",
			"type": "error"
		},
		{
			"inputs": [
				{
					"internalType": "address",
					"name": "operator",
					"type": "address"
				},
				{
					"internalType": "uint256",
					"name": "tokenId",
					"type": "uint256"
				}
			],
			"name": "ERC721InsufficientApproval",
			"type": "error"
		},
		{
			"inputs": [
				{
					"internalType": "address",
					"name": "approver",
					"type": "address"
				}
			],
			"name": "ERC721InvalidApprover",
			"type": "error"
		},
		{
			"inputs": [
				{
					"internalType": "address",
					"name": "operator",
					"type": "address"
				}
			],
			"name": "ERC721InvalidOperator",
			"type": "error"
		},
		{
			"inputs": [
				{
					"internalType": "address",
					"name": "owner",
					"type": "address"
				}
			],
			"name": "ERC721InvalidOwner",
			"type": "error"
		},
		{
			"inputs": [
				{
					"internalType": "address",
					"name": "receiver",
					"type": "address"
				}
			],
			"name": "ERC721InvalidReceiver",
			"type": "error"
		},
		{
			"inputs": [
				{
					"internalType": "address",
					"name": "sender",
					"type": "address"
				}
			],
			"name": "ERC721InvalidSender",
			"type": "error"
		},
		{
			"inputs": [
				{
					"internalType": "uint256",
					"name": "tokenId",
					"type": "uint256"
				}
			],
			"name": "ERC721NonexistentToken",
			"type": "error"
		},
		{
			"inputs": [],
			"name": "FailedCall",
			"type": "error"
		},
		{
			"inputs": [
				{
					"internalType": "uint256",
					"name": "balance",
					"type": "uint256"
				},
				{
					"internalType": "uint256",
					"name": "needed",
					"type": "uint256"
				}
			],
			"name": "InsufficientBalance",
			"type": "error"
		},
		{
			"inputs": [
				{
					"internalType": "address",
					"name": "owner",
					"type": "address"
				}
			],
			"name": "OwnableInvalidOwner",
			"type": "error"
		},
		{
			"inputs": [
				{
					"internalType": "address",
					"name": "account",
					"type": "address"
				}
			],
			"name": "OwnableUnauthorizedAccount",
			"type": "error"
		},
		{
			"inputs": [
				{
					"internalType": "uint256",
					"name": "x",
					"type": "uint256"
				},
				{
					"internalType": "uint256",
					"name": "y",
					"type": "uint256"
				},
				{
					"internalType": "uint256",
					"name": "denominator",
					"type": "uint256"
				}
			],
			"name": "PRBMath_MulDiv_Overflow",
			"type": "error"
		},
		{
			"inputs": [
				{
					"internalType": "uint256",
					"name": "collateralToReturn",
					"type": "uint256"
				},
				{
					"internalType": "uint256",
					"name": "loanCollateral",
					"type": "uint256"
				}
			],
			"name": "REVLoans_CollateralExceedsLoan",
			"type": "error"
		},
		{
			"inputs": [
				{
					"internalType": "uint256",
					"name": "prepaidFeePercent",
					"type": "uint256"
				},
				{
					"internalType": "uint256",
					"name": "min",
					"type": "uint256"
				},
				{
					"internalType": "uint256",
					"name": "max",
					"type": "uint256"
				}
			],
			"name": "REVLoans_InvalidPrepaidFeePercent",
			"type": "error"
		},
		{
			"inputs": [
				{
					"internalType": "uint256",
					"name": "timeSinceLoanCreated",
					"type": "uint256"
				},
				{
					"internalType": "uint256",
					"name": "loanLiquidationDuration",
					"type": "uint256"
				}
			],
			"name": "REVLoans_LoanExpired",
			"type": "error"
		},
		{
			"inputs": [
				{
					"internalType": "uint256",
					"name": "newBorrowAmount",
					"type": "uint256"
				},
				{
					"internalType": "uint256",
					"name": "loanAmount",
					"type": "uint256"
				}
			],
			"name": "REVLoans_NewBorrowAmountGreaterThanLoanAmount",
			"type": "error"
		},
		{
			"inputs": [],
			"name": "REVLoans_NoMsgValueAllowed",
			"type": "error"
		},
		{
			"inputs": [],
			"name": "REVLoans_NotEnoughCollateral",
			"type": "error"
		},
		{
			"inputs": [
				{
					"internalType": "uint256",
					"name": "maxRepayBorrowAmount",
					"type": "uint256"
				},
				{
					"internalType": "uint256",
					"name": "repayBorrowAmount",
					"type": "uint256"
				}
			],
			"name": "REVLoans_OverMaxRepayBorrowAmount",
			"type": "error"
		},
		{
			"inputs": [
				{
					"internalType": "uint256",
					"name": "value",
					"type": "uint256"
				},
				{
					"internalType": "uint256",
					"name": "limit",
					"type": "uint256"
				}
			],
			"name": "REVLoans_OverflowAlert",
			"type": "error"
		},
		{
			"inputs": [
				{
					"internalType": "uint256",
					"name": "allowanceAmount",
					"type": "uint256"
				},
				{
					"internalType": "uint256",
					"name": "requiredAmount",
					"type": "uint256"
				}
			],
			"name": "REVLoans_PermitAllowanceNotEnough",
			"type": "error"
		},
		{
			"inputs": [
				{
					"internalType": "uint256",
					"name": "newBorrowAmount",
					"type": "uint256"
				},
				{
					"internalType": "uint256",
					"name": "loanAmount",
					"type": "uint256"
				}
			],
			"name": "REVLoans_ReallocatingMoreCollateralThanBorrowedAmountAllows",
			"type": "error"
		},
		{
			"inputs": [
				{
					"internalType": "address",
					"name": "revnetOwner",
					"type": "address"
				},
				{
					"internalType": "address",
					"name": "revnets",
					"type": "address"
				}
			],
			"name": "REVLoans_RevnetsMismatch",
			"type": "error"
		},
		{
			"inputs": [
				{
					"internalType": "address",
					"name": "caller",
					"type": "address"
				},
				{
					"internalType": "address",
					"name": "owner",
					"type": "address"
				}
			],
			"name": "REVLoans_Unauthorized",
			"type": "error"
		},
		{
			"inputs": [
				{
					"internalType": "uint256",
					"name": "minBorrowAmount",
					"type": "uint256"
				},
				{
					"internalType": "uint256",
					"name": "borrowAmount",
					"type": "uint256"
				}
			],
			"name": "REVLoans_UnderMinBorrowAmount",
			"type": "error"
		},
		{
			"inputs": [],
			"name": "REVLoans_ZeroCollateralLoanIsInvalid",
			"type": "error"
		},
		{
			"inputs": [
				{
					"internalType": "address",
					"name": "token",
					"type": "address"
				}
			],
			"name": "SafeERC20FailedOperation",
			"type": "error"
		}
	],
	"args": [],
	"solcInputHash": "f71d3fc8ea9b29896a8a303357115199",
	"bytecode": "0x61018060405234801562000011575f80fd5b5060405162005901380380620059018339810160408190526200003491620003b1565b828160405180604001604052806009815260200168524556204c6f616e7360b81b81525060405180604001604052806008815260200167122922ab2627a0a760c11b815250815f9081620000899190620004bf565b506001620000988282620004bf565b5050506001600160a01b039081166080528116620000cf57604051631e4fbdf760e01b81525f600482015260240160405180910390fd5b620000da8162000348565b506001600160a01b03851660e08190526040805163ee0fc12160e01b8152905163ee0fc121916004808201926020929091908290030181865afa15801562000124573d5f803e3d5ffd5b505050506040513d601f19601f820116820180604052508101906200014a91906200058b565b6001600160a01b031660c0816001600160a01b031681525050846001600160a01b03166388bc2ef36040518163ffffffff1660e01b8152600401602060405180830381865afa158015620001a0573d5f803e3d5ffd5b505050506040513d601f19601f82011682018060405250810190620001c691906200058b565b6001600160a01b0316610100816001600160a01b031681525050846001600160a01b031663ee0fc1216040518163ffffffff1660e01b8152600401602060405180830381865afa1580156200021d573d5f803e3d5ffd5b505050506040513d601f19601f820116820180604052508101906200024391906200058b565b6001600160a01b0316631eabcd346040518163ffffffff1660e01b8152600401602060405180830381865afa1580156200027f573d5f803e3d5ffd5b505050506040513d601f19601f82011682018060405250810190620002a591906200058b565b6001600160a01b0316610120816001600160a01b031681525050846001600160a01b031663293c49996040518163ffffffff1660e01b8152600401602060405180830381865afa158015620002fc573d5f803e3d5ffd5b505050506040513d601f19601f820116820180604052508101906200032291906200058b565b6001600160a01b0390811661014052610160949094525090911660a05250620005b09050565b600680546001600160a01b038381166001600160a01b0319831681179093556040519116919082907f8be0079c531659141344cd1fd0a4f28419497f9722a3daafe3b4186f6b6457e0905f90a35050565b6001600160a01b0381168114620003ae575f80fd5b50565b5f805f805f60a08688031215620003c6575f80fd5b8551620003d38162000399565b602087015160408801519196509450620003ed8162000399565b6060870151909350620004008162000399565b6080870151909250620004138162000399565b809150509295509295909350565b634e487b7160e01b5f52604160045260245ffd5b600181811c908216806200044a57607f821691505b6020821081036200046957634e487b7160e01b5f52602260045260245ffd5b50919050565b601f821115620004ba57805f5260205f20601f840160051c81016020851015620004965750805b601f840160051c820191505b81811015620004b7575f8155600101620004a2565b50505b505050565b81516001600160401b03811115620004db57620004db62000421565b620004f381620004ec845462000435565b846200046f565b602080601f83116001811462000529575f8415620005115750858301515b5f19600386901b1c1916600185901b17855562000583565b5f85815260208120601f198616915b82811015620005595788860151825594840194600190910190840162000538565b50858210156200057757878501515f19600388901b60f8161c191681555b505060018460011b0185555b505050505050565b5f602082840312156200059c575f80fd5b8151620005a98162000399565b9392505050565b60805160a05160c05160e051610100516101205161014051610160516152776200068a5f395f81816104360152818161294a015281816134720152818161353a01526136cf01525f81816103ee015261103b01525f818161037d0152613b8f01525f818161062301528181611651015281816119da015261344501525f8181610893015281816110b001526110ea01525f818161082201528181612b8201528181612c780152818161378f01526138d701525f818161056c01528181611c4d01526121e601525f81816105cf0152610f8801526152775ff3fe608060405260043610610252575f3560e01c806370a0823111610137578063b88d4fde116100af578063e4ba13c711610076578063e4ba13c7146107c6578063e985e9c5146107f2578063ee0fc12114610811578063f2fde38b14610844578063f8231e3914610863578063fe91edd61461088257005b8063b88d4fde146106ff578063c4d8ea3c1461071e578063c87b56dd14610749578063ddad527114610768578063e131fc0c146107a757005b80638da5cb5b116100fe5780638da5cb5b1461064557806395d89b4114610662578063a21cd6f814610676578063a22cb465146106a2578063a33853d1146106c1578063a4a0481a146106e057005b806370a082311461058e578063715018a6146105ad5780637da0a877146105c157806383b4cf2f146105f357806388bc2ef31461061257005b80632cc2cb63116101ca578063501158691161019157806350115869146104a2578063572b6c05146104de5780636352211e146104fd578063667079891461051c5780636a57728f146105475780636afdd8501461055b57005b80632cc2cb631461041057806331011c5414610425578063325eefd9146104585780633e73ec331461046c57806342842e0e1461048357005b806309c586211161021957806309c58621146103285780630ba8827d146103495780631eabcd341461036c57806323b872dd1461039f5780632407497e146103be578063293c4999146103dd57005b806301ffc9a71461025b5780630582928e1461028f57806306fdde03146102bc578063081812fc146102dd578063095ea7b31461030957005b3661025957005b005b348015610266575f80fd5b5061027a610275366004613f85565b6108b5565b60405190151581526020015b60405180910390f35b34801561029a575f80fd5b506102ae6102a9366004613fa0565b610906565b604051908152602001610286565b3480156102c7575f80fd5b506102d0610916565b6040516102869190614004565b3480156102e8575f80fd5b506102fc6102f7366004613fa0565b6109a5565b6040516102869190614016565b348015610314575f80fd5b5061025961032336600461403e565b6109cc565b61033b610336366004614068565b6109e2565b604051610286929190614148565b61035c610357366004614173565b610c8e565b60405161028694939291906141d7565b348015610377575f80fd5b506102fc7f000000000000000000000000000000000000000000000000000000000000000081565b3480156103aa575f80fd5b506102596103b9366004614201565b610e70565b3480156103c9575f80fd5b506102596103d836600461423f565b610f00565b3480156103e8575f80fd5b506102fc7f000000000000000000000000000000000000000000000000000000000000000081565b34801561041b575f80fd5b506102ae6101f481565b348015610430575f80fd5b506102ae7f000000000000000000000000000000000000000000000000000000000000000081565b348015610463575f80fd5b506102ae601981565b348015610477575f80fd5b506102ae6312cc030081565b34801561048e575f80fd5b5061025961049d366004614201565b610f67565b3480156104ad575f80fd5b506102ae6104bc36600461425a565b600a60209081525f938452604080852082529284528284209052825290205481565b3480156104e9575f80fd5b5061027a6104f836600461423f565b610f86565b348015610508575f80fd5b506102fc610517366004613fa0565b610fb8565b348015610527575f80fd5b506102ae610536366004613fa0565b600b6020525f908152604090205481565b348015610552575f80fd5b506102ae600a81565b348015610566575f80fd5b506102fc7f000000000000000000000000000000000000000000000000000000000000000081565b348015610599575f80fd5b506102ae6105a836600461423f565b610fc2565b3480156105b8575f80fd5b50610259611007565b3480156105cc575f80fd5b507f00000000000000000000000000000000000000000000000000000000000000006102fc565b3480156105fe575f80fd5b5061033b61060d366004614299565b61101a565b34801561061d575f80fd5b506102fc7f000000000000000000000000000000000000000000000000000000000000000081565b348015610650575f80fd5b506006546001600160a01b03166102fc565b34801561066d575f80fd5b506102d061137b565b348015610681575f80fd5b50610695610690366004613fa0565b61138a565b60405161028691906142f2565b3480156106ad575f80fd5b506102596106bc366004614361565b611411565b3480156106cc575f80fd5b506102596106db366004614398565b611423565b3480156106eb575f80fd5b506102ae6106fa3660046143c1565b611647565b34801561070a575f80fd5b5061025961071936600461453c565b6116ee565b348015610729575f80fd5b506102ae610738366004613fa0565b60086020525f908152604090205481565b348015610754575f80fd5b506102d0610763366004613fa0565b61170d565b348015610773575f80fd5b5061027a61078236600461425a565b600760209081525f938452604080852082529284528284209052825290205460ff1681565b3480156107b2575f80fd5b506009546102fc906001600160a01b031681565b3480156107d1575f80fd5b506107e56107e0366004613fa0565b6117a6565b60405161028691906145a3565b3480156107fd575f80fd5b5061027a61080c3660046145b1565b61184d565b34801561081c575f80fd5b506102fc7f000000000000000000000000000000000000000000000000000000000000000081565b34801561084f575f80fd5b5061025961085e36600461423f565b61187a565b34801561086e575f80fd5b506102ae61087d366004614624565b6118b7565b34801561088d575f80fd5b506102fc7f000000000000000000000000000000000000000000000000000000000000000081565b5f6001600160e01b031982166380ac58cd60e01b14806108e557506001600160e01b03198216635b5e139f60e01b145b8061090057506301ffc9a760e01b6001600160e01b03198316145b92915050565b5f61090064e8d4a5100083614721565b60605f805461092490614740565b80601f016020809104026020016040519081016040528092919081815260200182805461095090614740565b801561099b5780601f106109725761010080835404028352916020019161099b565b820191905f5260205f20905b81548152906001019060200180831161097e57829003601f168201915b5050505050905090565b5f6109af826118c2565b505f828152600460205260409020546001600160a01b0316610900565b6109de82826109d96118f9565b611907565b5050565b5f6109eb613f2f565b6109f36118f9565b6001600160a01b0316610a0588611914565b6001600160a01b031614610a4857610a1b6118f9565b610a2488611914565b6040516318d514bd60e21b8152600401610a3f929190614772565b60405180910390fd5b5f878152600d602052604090208054600160701b90046001600160701b0316861115610aa257805460405163b9c5041760e01b815260048101889052600160701b9091046001600160701b03166024820152604401610a3f565b5f610aac89610906565b82549091505f90610adb9084908490610ad6908c90600160701b90046001600160701b031661478c565b61192e565b83549091506001600160701b0316811115610b1e5782546040516395e361d560e01b8152600481018390526001600160701b039091166024820152604401610a3f565b82545f90610b369083906001600160701b031661478c565b6040805160c08101825286546001600160701b038082168352600160701b90910416602080830191909152600188015465ffffffffffff811683850152600160301b810461ffff166060840152600160401b900463ffffffff166080830152825180840190935260028801546001600160a01b0390811684526003890154169083015260a08101919091529091505f90610bd09083611a6f565b9050610bdc818361479f565b6002860154909250610c00906001600160a01b03168c610bfb8b6147b2565b611b6d565b9a508a821115610c2d5760405163c4d4ea0d60e01b8152600481018c905260248101839052604401610a3f565b610c3c8c868685858f8f611d39565b9097509550818b1115610c7f57610c7f30610c556118f9565b876002015f015f9054906101000a90046001600160a01b0316858f610c7a919061478c565b6120ad565b50505050509550959350505050565b5f80610c98613f2f565b610ca0613f2f565b610ca86118f9565b6001600160a01b0316610cba8c611914565b6001600160a01b031614610cd957610cd06118f9565b610a248c611914565b5f610ce38c610906565b9050610cf08c828d612243565b806040518060c00160405290815f82015f9054906101000a90046001600160701b03166001600160701b03166001600160701b031681526020015f8201600e9054906101000a90046001600160701b03166001600160701b03166001600160701b03168152602001600182015f9054906101000a900465ffffffffffff1665ffffffffffff1665ffffffffffff1681526020016001820160069054906101000a900461ffff1661ffff1661ffff1681526020016001820160089054906101000a900463ffffffff1663ffffffff1663ffffffff168152602001600282016040518060400160405290815f82015f9054906101000a90046001600160a01b03166001600160a01b03166001600160a01b03168152602001600182015f9054906101000a90046001600160a01b03166001600160a01b03166001600160a01b0316815250508152505090508094508196505050610e5a818b8b8b8f610e53919061479f565b8b8b61101a565b959d909c50929a50939850909650505050505050565b6001600160a01b038216610e99575f604051633250574960e11b8152600401610a3f9190614016565b5f610eac8383610ea76118f9565b612493565b9050836001600160a01b0316816001600160a01b031614610efa576040516364283d7b60e01b81526001600160a01b0380861660048301526024820184905282166044820152606401610a3f565b50505050565b610f08612580565b600980546001600160a01b0319166001600160a01b0383169081179091557fe7784d93cfbfa4408e19577e6cc0436f4dbb51214b70e100905dfce9def88c16610f4f6118f9565b604051610f5c9190614016565b60405180910390a250565b610f8183838360405180602001604052805f8152506116ee565b505050565b7f00000000000000000000000000000000000000000000000000000000000000006001600160a01b0390811691161490565b5f610900826118c2565b5f6001600160a01b038216610fec575f6040516322718ad960e21b8152600401610a3f9190614016565b506001600160a01b03165f9081526003602052604090205490565b61100f612580565b6110185f6125d3565b565b5f611023613f2f565b6040516331a9108f60e11b8152600481018990525f907f00000000000000000000000000000000000000000000000000000000000000006001600160a01b031690636352211e90602401602060405180830381865afa158015611088573d5f803e3d5ffd5b505050506040513d601f19601f820116820180604052508101906110ac919061486b565b90507f00000000000000000000000000000000000000000000000000000000000000006001600160a01b0316816001600160a01b03161461112457807f0000000000000000000000000000000000000000000000000000000000000000604051630128886560e71b8152600401610a3f929190614772565b855f0361114457604051631a39845d60e21b815260040160405180910390fd5b601984108061115457506101f484115b1561118457604051633a54873960e21b815260048101859052601960248201526101f46044820152606401610a3f565b5f89815260086020526040812080546111ad928c92916111a390614886565b9182905550612624565b5f818152600d6020526040902090935088600282016111cc82826148be565b505060018101805461ffff8716600160301b0267ffffffffffffffff1990911664ffffffffff421617179055611209856312cc03006101f461263f565b8160010160086101000a81548163ffffffff021916908363ffffffff1602179055505f611237828c8a61192e565b905088811015611264576040516304aefef560e51b8152600481018a905260248101829052604401610a3f565b5f61126f828861270e565b905061127f838d848c858d61271c565b61129061128a6118f9565b87612a32565b8b867f90ac858b09db4f44113a984e09c297b5c0529be26c65a23a1b8967d4124ca5e4858e868e878f6112c16118f9565b6040516112d4979695949392919061495f565b60405180910390a350506040805160c08101825282546001600160701b038082168352600160701b90910416602080830191909152600184015465ffffffffffff81168385015261ffff600160301b820416606084015263ffffffff600160401b909104166080830152825180840190935260028401546001600160a01b0390811684526003909401549093169282019290925260a0820152915050965096945050505050565b60606001805461092490614740565b6060600c5f8381526020019081526020015f20805480602002602001604051908101604052809291908181526020015f905b82821015611406575f848152602090819020604080518082019091526002850290910180546001600160a01b039081168352600191820154168284015290835290920191016113bc565b505050509050919050565b6109de61141c6118f9565b8383612a93565b5f5b81811015610efa575f6114418561143c848761479f565b612624565b5f818152600d60209081526040808320815160c08101835281546001600160701b038082168352600160701b9091041681850152600182015465ffffffffffff808216838601908152600160301b830461ffff166060850152600160401b90920463ffffffff166080840152845180860190955260028401546001600160a01b0390811686526003909401549093169484019490945260a08101929092529151939450921690036114f3575050610efa565b5f6114fd83611914565b90506001600160a01b038116158061153057506312cc0300826040015165ffffffffffff1661152c919061479f565b4211155b1561153d5750505061163f565b61154683612b28565b60208201516001600160701b03161561158c5781602001516001600160701b0316600b5f8981526020019081526020015f205f828254611586919061478c565b90915550505b81516001600160701b0316156115f95781515f888152600a6020908152604080832060a0870180518401516001600160a01b0390811686529184528285209051519091168452909152812080546001600160701b03909316929091906115f390849061478c565b90915550505b86837f2710408375e429523d39f7c37d7d73c1b816756d511f9cb07cd54215ead59f80846116256118f9565b6040516116339291906149d6565b60405180910390a35050505b600101611425565b5f6116e3858585857f00000000000000000000000000000000000000000000000000000000000000006001600160a01b031663d17541538b6040518263ffffffff1660e01b815260040161169d91815260200190565b5f60405180830381865afa1580156116b7573d5f803e3d5ffd5b505050506040513d5f823e601f3d908101601f191682016040526116de91908101906149fd565b612b60565b90505b949350505050565b6116f9848484610e70565b610efa6117046118f9565b85858585612d2b565b6009546060906001600160a01b03168061173657505060408051602081019091525f8152919050565b604051636d02a25560e11b8152600481018490526001600160a01b0382169063da0544aa906024015f60405180830381865afa158015611778573d5f803e3d5ffd5b505050506040513d5f823e601f3d908101601f1916820160405261179f9190810190614aa9565b9392505050565b6117ae613f2f565b505f908152600d6020908152604091829020825160c08101845281546001600160701b038082168352600160701b9091041681840152600182015465ffffffffffff811682860152600160301b810461ffff166060830152600160401b900463ffffffff166080820152835180850190945260028201546001600160a01b0390811685526003909201549091169183019190915260a081019190915290565b6001600160a01b039182165f90815260056020908152604080832093909416825291909152205460ff1690565b611882612580565b6001600160a01b0381166118ab575f604051631e4fbdf760e01b8152600401610a3f9190614016565b6118b4816125d3565b50565b5f61179f8383611a6f565b5f806118cd83611914565b90506001600160a01b03811661090057604051637e27328960e01b815260048101849052602401610a3f565b5f611902612e41565b905090565b610f818383836001612e91565b5f908152600260205260409020546001600160a01b031690565b5f815f0361193d57505f61179f565b60038401546002850154604051633a01714f60e01b81525f926001600160a01b0390811692633a01714f926119789289921690600401614b11565b606060405180830381865afa158015611993573d5f803e3d5ffd5b505050506040513d601f19601f820116820180604052508101906119b79190614b33565b60405163d175415360e01b8152600481018690529091505f906001600160a01b037f0000000000000000000000000000000000000000000000000000000000000000169063d1754153906024015f60405180830381865afa158015611a1e573d5f803e3d5ffd5b505050506040513d5f823e601f3d908101601f19168201604052611a4591908101906149fd565b9050611a658585846020015160ff16856040015163ffffffff1685612b60565b9695505050505050565b5f80836040015165ffffffffffff1642611a89919061478c565b9050836080015163ffffffff168111611aa5575f915050610900565b6312cc0300811115611ad75760405163045be49160e01b8152600481018290526312cc03006024820152604401610a3f565b5f611af6855f01516001600160701b0316866060015161ffff1661270e565b90505f611b5482875f01516001600160701b0316611b14919061478c565b611b4f886080015163ffffffff1686611b2d919061478c565b60808a01516103e890611b4a9063ffffffff166312cc030061478c565b61263f565b61270e565b9050611a658186885f01516001600160701b031661263f565b5f61eeed196001600160a01b03851601611b8857503461179f565b3415611ba7576040516314ac44cf60e21b815260040160405180910390fd5b60208201516001600160a01b031615611cfd578282602001516001600160a01b03161015611bf0578160200151836040516335c2b2a360e21b8152600401610a3f929190614ba7565b6040805160e0810182526001600160a01b038087166060808401918252602087810151841660808601528786015165ffffffffffff90811660a08701529188015190911660c08501529083523090830152845192820192909252907f000000000000000000000000000000000000000000000000000000000000000016632b67b570611c7a6118f9565b8386608001516040518463ffffffff1660e01b8152600401611c9e93929190614bc0565b5f604051808303815f87803b158015611cb5575f80fd5b505af1925050508015611cc6575060015b611cfb573d808015611cf3576040519150601f19603f3d011682016040523d82523d5f602084013e611cf8565b606091505b50505b505b5f611d0785612f8c565b9050611d1c611d146118f9565b3087876120ad565b80611d2686612f8c565b611d30919061478c565b95945050505050565b5f611d42613f2f565b611d4b89612b28565b8754600160701b90046001600160701b03168403611e5257611d7188885f80898861271c565b88878a7f791f716b9ed5747949be0a1d9657c61802806973871cbd7ffb8dbaff12b8b2c68b8c8b8b8b8b611da36118f9565b604051611db69796959493929190614c33565b60405180910390a450506040805160c08101825287546001600160701b038082168352600160701b90910416602080830191909152600189015465ffffffffffff811683850152600160301b810461ffff166060840152600160401b900463ffffffff166080830152825180840190935260028901546001600160a01b03908116845260038a0154169083015260a081019190915287906120a1565b5f8781526008602052604081208054611e72918a9184906111a390614886565b5f818152600d602052604090208a5481546001600160701b039182166001600160701b03198216811784558d546001600160e01b031990921617600160701b91829004909216021781556001808c018054918301805465ffffffffffff90931665ffffffffffff19841681178255825467ffffffffffffffff1990941617600160301b9384900461ffff1690930292909217808355905463ffffffff60401b19909116600160401b9182900463ffffffff169091021790556002808c015490820180546001600160a01b039283166001600160a01b0319918216179091556003808e01549084018054919093169116179055909150611faf818a611f768a8c61478c565b8454611f8b91906001600160701b031661478c565b8454611fa8908b90600160701b90046001600160701b031661478c565b8b8a61271c565b611fc0611fba6118f9565b83612a32565b81898c7f791f716b9ed5747949be0a1d9657c61802806973871cbd7ffb8dbaff12b8b2c68d858d8d8d8d611ff26118f9565b6040516120059796959493929190614c33565b60405180910390a46040805160c08101825282546001600160701b038082168352600160701b90910416602080830191909152600184015465ffffffffffff811683850152600160301b810461ffff166060840152600160401b900463ffffffff166080830152825180840190935260028401546001600160a01b0390811684526003909401549093169282019290925260a082015290925090505b97509795505050505050565b306001600160a01b038516036120f35761eeed196001600160a01b038316016120df576120da8382613016565b610efa565b6120da6001600160a01b03831684836130a2565b604051636eb1769f60e11b815281906001600160a01b0384169063dd62ed3e906121239088903090600401614772565b602060405180830381865afa15801561213e573d5f803e3d5ffd5b505050506040513d601f19601f820116820180604052508101906121629190614c89565b1061217c576120da6001600160a01b0383168585846130fa565b6001600160a01b038111156121af57806001600160a01b03604051633459303960e01b8152600401610a3f929190614b11565b604051631b63c28b60e11b81526001600160a01b0385811660048301528481166024830152828116604483015283811660648301527f000000000000000000000000000000000000000000000000000000000000000016906336c78516906084015f604051808303815f87803b158015612227575f80fd5b505af1158015612239573d5f803e3d5ffd5b5050505050505050565b5f8061224e85612b28565b5f858152600d602052604090208054600160701b90046001600160701b031684111561228d5760405163c459ec8360e01b815260040160405180910390fd5b80545f906122ac908690600160701b90046001600160701b031661478c565b90505f6122ba83888461192e565b83549091506001600160701b03168110156122fd578254604051631b5de0b760e31b8152600481018390526001600160701b039091166024820152604401610a3f565b5f878152600860205260408120805461231c928a92916111a390614886565b5f818152600d60205260408120855481546001600160701b031981166001600160701b0392831690811784558854600160701b908190048416026001600160e01b0319909216171780835560018089018054918501805465ffffffffffff19811665ffffffffffff9094169384178255825461ffff600160301b91829004160267ffffffffffffffff1990911690931792909217808355905463ffffffff600160401b91829004160263ffffffff60401b1990911617905560028089015490840180546001600160a01b03199081166001600160a01b03938416179091556003808b0154908601805490921692169190911790559398509096506124329287928b929190911690869061242d6118f9565b61271c565b61244361243d6118f9565b86612a32565b8487897f7d3a0daefe69f98b6718ad00d0a9cf2dd50902a8db1b484d4238a86fea6be7c6878a6124716118f9565b60405161248093929190614ca0565b60405180910390a4505050935093915050565b5f8061249e84611914565b90506001600160a01b038316156124ba576124ba818486613133565b6001600160a01b038116156124f4576124d55f855f80612e91565b6001600160a01b0381165f90815260036020526040902080545f190190555b6001600160a01b03851615612522576001600160a01b0385165f908152600360205260409020805460010190555b5f8481526002602052604080822080546001600160a01b0319166001600160a01b0389811691821790925591518793918516917fddf252ad1be2c89b69c2b068fc378daa952ba7f163c4a11628f55a4df523b3ef91a4949350505050565b6125886118f9565b6001600160a01b03166125a36006546001600160a01b031690565b6001600160a01b031614611018576125b96118f9565b60405163118cdaa760e01b8152600401610a3f9190614016565b600680546001600160a01b038381166001600160a01b0319831681179093556040519116919082907f8be0079c531659141344cd1fd0a4f28419497f9722a3daafe3b4186f6b6457e0905f90a35050565b5f8161263564e8d4a5100085614ccf565b61179f919061479f565b5f80805f19858709858702925082811083820303915050805f036126765783828161266c5761266c6146f9565b049250505061179f565b8381106126a757604051630c740aef60e31b8152600481018790526024810186905260448101859052606401610a3f565b5f8486880960026001871981018816978890046003810283188082028403028082028403028082028403028082028403028082028403029081029092039091025f889003889004909101858311909403939093029303949094049190911702949350505050565b5f61179f83836103e861263f565b85546001600160701b03168411156127d6576040805160c08101825287546001600160701b03808216808452600160701b9092041660208084019190915260018a015465ffffffffffff811684860152600160301b810461ffff166060850152600160401b900463ffffffff166080840152835180850190945260028a01546001600160a01b03908116855260038b0154169084015260a08201929092526127d19187906127ca908861478c565b8585613189565b61288a565b85546001600160701b031684101561288a576040805160c08101825287546001600160701b03808216808452600160701b9092041660208084019190915260018a015465ffffffffffff811684860152600160301b810461ffff166060850152600160401b900463ffffffff166080840152835180850190945260028a01546001600160a01b03908116855260038b0154169084015260a082019290925261288a91879061288590889061478c565b613642565b8554600160701b90046001600160701b03168311156128cf5785546128ca9086906128c590600160701b90046001600160701b03168661478c565b613763565b612911565b8554600160701b90046001600160701b031683101561291157855461291190869061290b908690600160701b90046001600160701b031661478c565b8361384e565b8115612a0557600386015460028701545f9161293a916001600160a01b03918216911685613941565b60038801546002890154604080517f000000000000000000000000000000000000000000000000000000000000000060208201529394506001600160a01b039283169363fef432579386938c93911691899189915f91016040516020818303038152906040526040518863ffffffff1660e01b81526004016129c196959493929190614ce6565b60206040518083038185885af11580156129dd573d5f803e3d5ffd5b50505050506040513d601f19601f82011682018060405250810190612a029190614c89565b50505b505083546001600160701b03918216600160701b026001600160e01b031990911691909216171790915550565b6001600160a01b038216612a5b575f604051633250574960e11b8152600401610a3f9190614016565b5f612a6783835f612493565b90506001600160a01b03811615610f81575f6040516339e3563760e11b8152600401610a3f9190614016565b6001600160a01b038216612abc5781604051630b61174360e31b8152600401610a3f9190614016565b6001600160a01b038381165f81815260056020908152604080832094871680845294825291829020805460ff191686151590811790915591519182527f17307eab39ab6107e8899845ad3d59bd9653f200f220920489ca2b5937696c31910160405180910390a3505050565b5f612b345f835f612493565b90506001600160a01b0381166109de57604051637e27328960e01b815260048101839052602401610a3f565b6040516320c94b1360e11b8152600481018690525f9081906001600160a01b037f0000000000000000000000000000000000000000000000000000000000000000169063419296269060240161038060405180830381865afa158015612bc8573d5f803e3d5ffd5b505050506040513d601f19601f82011682018060405250810190612bec9190614eea565b5090505f612c47888583604051908082528060200260200182016040528015612c3f57816020015b604080516060810182525f80825260208083018290529282015282525f19909201910181612c145790505b508989613979565b90505f612c55898888613a30565b604051634da781a960e01b8152600481018b90529091505f906001600160a01b037f00000000000000000000000000000000000000000000000000000000000000001690634da781a990602401602060405180830381865afa158015612cbd573d5f803e3d5ffd5b505050506040513d601f19601f82011682018060405250810190612ce19190614c89565b5f8b8152600b6020526040902054909150612d1c612cff848661479f565b8b612d0a848661479f565b61010089015160141c61ffff16613c84565b9b9a5050505050505050505050565b6001600160a01b0383163b15612e3a57604051630a85bd0160e11b81526001600160a01b0384169063150b7a0290612d6d908890889087908790600401614fbe565b6020604051808303815f875af1925050508015612da7575060408051601f3d908101601f19168201909252612da491810190614ff0565b60015b612e05573d808015612dd4576040519150601f19603f3d011682016040523d82523d5f602084013e612dd9565b606091505b5080515f03612dfd5783604051633250574960e11b8152600401610a3f9190614016565b805181602001fd5b6001600160e01b03198116630a85bd0160e11b14612e385783604051633250574960e11b8152600401610a3f9190614016565b505b5050505050565b5f366014612e4e33610f86565b8015612e5a5750808210155b15612e89575f36612e6b838561478c565b612e7692829061500b565b612e7f91615032565b60601c9250505090565b339250505090565b8080612ea557506001600160a01b03821615155b15612f5d575f612eb4846118c2565b90506001600160a01b03831615801590612ee05750826001600160a01b0316816001600160a01b031614155b8015612ef35750612ef1818461184d565b155b15612f13578260405163a9fbf51f60e01b8152600401610a3f9190614016565b8115612f5b5783856001600160a01b0316826001600160a01b03167f8c5be1e5ebec7d5bd14f71427d1e84f3dd0314c0f7b2291e5b200ac8c7c3b92560405160405180910390a45b505b50505f90815260046020526040902080546001600160a01b0319166001600160a01b0392909216919091179055565b5f6001600160a01b03821661eeee1461300f576040516370a0823160e01b81526001600160a01b038316906370a0823190612fcb903090600401614016565b602060405180830381865afa158015612fe6573d5f803e3d5ffd5b505050506040513d601f19601f8201168201806040525081019061300a9190614c89565b610900565b4792915050565b804710156130405760405163cf47918160e01b815247600482015260248101829052604401610a3f565b5f80836001600160a01b0316836040515f6040518083038185875af1925050503d805f811461308a576040519150601f19603f3d011682016040523d82523d5f602084013e61308f565b606091505b509150915081610efa57610efa81613ced565b610f8183846001600160a01b031663a9059cbb85856040516024016130c8929190614ba7565b604051602081830303815290604052915060e01b6020820180516001600160e01b038381831617835250505050613d16565b6040516001600160a01b038481166024830152838116604483015260648201839052610efa9186918216906323b872dd906084016130c8565b61313e838383613d79565b610f81576001600160a01b03831661316c57604051637e27328960e01b815260048101829052602401610a3f565b818160405163177e802f60e01b8152600401610a3f929190614ba7565b5f84815260076020908152604080832060a0890180518401516001600160a01b039081168652918452828520905151909116845290915290205460ff16613274575f84815260076020908152604080832060a0890180518401516001600160a01b039081168652918452828520815151831686528452828520805460ff19166001908117909155898652600c85528386208451808601909552825151841685529151850151831684860190815282548083018455928752949095209251600290910290920180549282166001600160a01b031993841617815592519290930180549290931691161790555b5f848152600a6020908152604080832060a0890180518401516001600160a01b0390811686529184528285209051519091168452909152812080548592906132bd90849061479f565b909155505060a085015160208101519051604051633a01714f60e01b81525f9283926001600160a01b0390911691633a01714f91613300918a9190600401614b11565b606060405180830381865afa15801561331b573d5f803e3d5ffd5b505050506040513d601f19601f8201168201806040525081019061333f9190614b33565b60a0880151602081015190516040838101519051631d23a08760e21b8152600481018b90526001600160a01b039283166024820152604481018a905263ffffffff90911660648201525f60848201523060a482015286821660c482015261010060e482015260196101048201527f4c656e64696e67206f757420746f206120626f72726f77657200000000000000610124820152929350169063748e821c90610144016020604051808303815f875af11580156133fe573d5f803e3d5ffd5b505050506040513d601f19601f820116820180604052508101906134229190614c89565b60a088015151604051630862026560e41b81529193505f92506001600160a01b037f0000000000000000000000000000000000000000000000000000000000000000169163862026509161349b917f00000000000000000000000000000000000000000000000000000000000000009190600401614b11565b602060405180830381865afa1580156134b6573d5f803e3d5ffd5b505050506040513d601f19601f820116820180604052508101906134da919061486b565b90505f6001600160a01b038216156134fc576134f786600a61270e565b6134fe565b5f5b9050801561361f575f81156135245761351f838a60a001515f015184613941565b613526565b5f5b9050826001600160a01b031663fef43257827f00000000000000000000000000000000000000000000000000000000000000008c60a001515f0151868a5f8f60405160200161357791815260200190565b6040516020818303038152906040526040518863ffffffff1660e01b81526004016135a796959493929190614ce6565b60206040518083038185885af1935050505080156135e2575060408051601f3d908101601f191682019092526135df91810190614c89565b60015b61361b573d80801561360f576040519150601f19603f3d011682016040523d82523d5f602084013e613614565b606091505b505061361d565b505b505b60a088015151612239903090869088613638868961478c565b610c7a919061478c565b5f828152600a6020908152604080832060a0870180518401516001600160a01b03908116865291845282852090515190911684529091528120805483929061368b90849061478c565b909155505060a0830151602081015190515f916136a89184613941565b90508360a00151602001516001600160a01b0316639e6eec0582858760a001515f0151865f7f000000000000000000000000000000000000000000000000000000000000000060405160200161370091815260200190565b6040516020818303038152906040526040518763ffffffff1660e01b815260040161372f959493929190615067565b5f604051808303818588803b158015613746575f80fd5b505af1158015613758573d5f803e3d5ffd5b505050505050505050565b5f828152600b60205260408120805483929061378090849061479f565b90915550506001600160a01b037f00000000000000000000000000000000000000000000000000000000000000001663a2d532e66137bc6118f9565b6040516001600160e01b031960e084901b1681526001600160a01b039091166004820152602481018590526044810184905260806064820152601960848201527f416464696e6720636f6c6c61746572616c20746f206c6f616e0000000000000060a482015260c4015f604051808303815f87803b15801561383c575f80fd5b505af1158015612e38573d5f803e3d5ffd5b5f838152600b60205260408120805484929061386b90849061478c565b90915550506040516363fdc96f60e11b815260048101849052602481018390526001600160a01b03828116604483015260a06064830152601d60a48301527f52656d6f76696e6720636f6c6c61746572616c2066726f6d206c6f616e00000060c48301525f60848301527f0000000000000000000000000000000000000000000000000000000000000000169063c7fb92de9060e4016020604051808303815f875af115801561391d573d5f803e3d5ffd5b505050506040513d601f19601f82011682018060405250810190610efa9190614c89565b5f61eeed196001600160a01b0384160161395c57508061179f565b6139706001600160a01b0384168584613dda565b505f9392505050565b83515f90815b81811015613a2557868181518110613999576139996150c2565b60200260200101516001600160a01b031663edb40950898888886040518563ffffffff1660e01b81526004016139d294939291906150d6565b602060405180830381865afa1580156139ed573d5f803e3d5ffd5b505050506040513d601f19601f82011682018060405250810190613a119190614c89565b613a1b908461479f565b925060010161397f565b505095945050505050565b5f838152600c6020908152604080832080548251818502810185019093528083528493849084015b82821015613aa2575f848152602090819020604080518082019091526002850290910180546001600160a01b03908116835260019182015416828401529083529092019101613a58565b5050505090505f5b8151811015613c7b575f828281518110613ac657613ac66150c2565b602002602001015190505f81602001516001600160a01b0316633a01714f89845f01516040518363ffffffff1660e01b8152600401613b06929190614b11565b606060405180830381865afa158015613b21573d5f803e3d5ffd5b505050506040513d601f19601f82011682018060405250810190613b459190614b33565b90505f86826040015163ffffffff1614613c05576040828101519051631df139fd60e11b8152600481018b905263ffffffff909116602482015260448101889052606481018990527f00000000000000000000000000000000000000000000000000000000000000006001600160a01b031690633be273fa90608401602060405180830381865afa158015613bdc573d5f803e3d5ffd5b505050506040513d601f19601f82011682018060405250810190613c009190614c89565b613c10565b613c1088600a615236565b5f8a8152600a60208181526040808420888301516001600160a01b0390811686529083528185208951909116855290915290912054919250613c5f908290613c59908c90615236565b8461263f565b613c69908861479f565b96505060019093019250613aaa915050565b50509392505050565b5f61270f198201613c9657505f6116e6565b828410613ca45750836116e6565b5f613cb086868661263f565b9050825f03613cc05790506116e6565b611a6581613ccf85888861263f565b613cdb8661271061478c565b613ce5919061479f565b61271061263f565b805115613cfd5780518082602001fd5b60405163d6bda27560e01b815260040160405180910390fd5b5f8060205f8451602086015f885af180613d35576040513d5f823e3d81fd5b50505f513d91508115613d4c578060011415613d59565b6001600160a01b0384163b155b15610efa5783604051635274afe760e01b8152600401610a3f9190614016565b5f6001600160a01b038316158015906116e65750826001600160a01b0316846001600160a01b03161480613db25750613db2848461184d565b806116e65750505f908152600460205260409020546001600160a01b03908116911614919050565b604051636eb1769f60e11b81525f906001600160a01b0385169063dd62ed3e90613e0a9030908790600401614772565b602060405180830381865afa158015613e25573d5f803e3d5ffd5b505050506040513d601f19601f82011682018060405250810190613e499190614c89565b9050610efa8484613e5a858561479f565b5f836001600160a01b031663095ea7b38484604051602401613e7d929190614ba7565b604051602081830303815290604052915060e01b6020820180516001600160e01b0383818316178352505050509050613eb68482613eea565b610efa57613ee084856001600160a01b031663095ea7b3865f6040516024016130c8929190614ba7565b610efa8482613d16565b5f805f8060205f8651602088015f8a5af192503d91505f519050828015611a6557508115613f1b5780600114611a65565b50505050506001600160a01b03163b151590565b6040805160c0810182525f8082526020808301829052828401829052606083018290526080830182905283518085019094528184528301529060a082015290565b6001600160e01b0319811681146118b4575f80fd5b5f60208284031215613f95575f80fd5b813561179f81613f70565b5f60208284031215613fb0575f80fd5b5035919050565b5f5b83811015613fd1578181015183820152602001613fb9565b50505f910152565b5f8151808452613ff0816020860160208601613fb7565b601f01601f19169290920160200192915050565b602081525f61179f6020830184613fd9565b6001600160a01b0391909116815260200190565b6001600160a01b03811681146118b4575f80fd5b5f806040838503121561404f575f80fd5b823561405a8161402a565b946020939093013593505050565b5f805f805f60a0868803121561407c575f80fd5b853594506020860135935060408601359250606086013561409c8161402a565b915060808601356001600160401b038111156140b6575f80fd5b860160a081890312156140c7575f80fd5b809150509295509295909350565b6001600160701b038082511683528060208301511660208401525065ffffffffffff604082015116604083015261ffff606082015116606083015263ffffffff608082015116608083015260a0810151610f8160a084018280516001600160a01b03908116835260209182015116910152565b828152610100810161179f60208301846140d5565b5f6040828403121561416d575f80fd5b50919050565b5f805f805f805f610100888a03121561418a575f80fd5b87359650602088013595506141a28960408a0161415d565b94506080880135935060a0880135925060c08801356141c08161402a565b8092505060e0880135905092959891949750929550565b8481526020810184905261020081016141f360408301856140d5565b611d306101208301846140d5565b5f805f60608486031215614213575f80fd5b833561421e8161402a565b9250602084013561422e8161402a565b929592945050506040919091013590565b5f6020828403121561424f575f80fd5b813561179f8161402a565b5f805f6060848603121561426c575f80fd5b83359250602084013561427e8161402a565b9150604084013561428e8161402a565b809150509250925092565b5f805f805f8060e087890312156142ae575f80fd5b863595506142bf886020890161415d565b9450606087013593506080870135925060a08701356142dd8161402a565b8092505060c087013590509295509295509295565b602080825282518282018190525f919060409081850190868401855b828110156143475761433784835180516001600160a01b03908116835260209182015116910152565b928401929085019060010161430e565b5091979650505050505050565b80151581146118b4575f80fd5b5f8060408385031215614372575f80fd5b823561437d8161402a565b9150602083013561438d81614354565b809150509250929050565b5f805f606084860312156143aa575f80fd5b505081359360208301359350604090920135919050565b5f805f80608085870312156143d4575f80fd5b5050823594602084013594506040840135936060013592509050565b634e487b7160e01b5f52604160045260245ffd5b60405160c081016001600160401b0381118282101715614426576144266143f0565b60405290565b604080519081016001600160401b0381118282101715614426576144266143f0565b60405161026081016001600160401b0381118282101715614426576144266143f0565b60405161012081016001600160401b0381118282101715614426576144266143f0565b604051601f8201601f191681016001600160401b03811182821017156144bc576144bc6143f0565b604052919050565b5f6001600160401b038211156144dc576144dc6143f0565b50601f01601f191660200190565b5f82601f8301126144f9575f80fd5b813561450c614507826144c4565b614494565b818152846020838601011115614520575f80fd5b816020850160208301375f918101602001919091529392505050565b5f805f806080858703121561454f575f80fd5b843561455a8161402a565b9350602085013561456a8161402a565b92506040850135915060608501356001600160401b0381111561458b575f80fd5b614597878288016144ea565b91505092959194509250565b60e0810161090082846140d5565b5f80604083850312156145c2575f80fd5b82356145cd8161402a565b9150602083013561438d8161402a565b6001600160701b03811681146118b4575f80fd5b65ffffffffffff811681146118b4575f80fd5b61ffff811681146118b4575f80fd5b63ffffffff811681146118b4575f80fd5b5f80828403610100811215614637575f80fd5b60e0811215614644575f80fd5b61464c614404565b8435614657816145dd565b81526020850135614667816145dd565b6020820152604085013561467a816145f1565b6040820152606085013561468d81614604565b606082015260808501356146a081614613565b60808201526040609f19830112156146b6575f80fd5b6146be61442c565b915060a08501356146ce8161402a565b825260c08501356146de8161402a565b602083015260a08101919091529460e0939093013593505050565b634e487b7160e01b5f52601260045260245ffd5b634e487b7160e01b5f52601160045260245ffd5b5f8261473b57634e487b7160e01b5f52601260045260245ffd5b500490565b600181811c9082168061475457607f821691505b60208210810361416d57634e487b7160e01b5f52602260045260245ffd5b6001600160a01b0392831681529116602082015260400190565b818103818111156109005761090061470d565b808201808211156109005761090061470d565b5f60a082360312156147c2575f80fd5b60405160a081016001600160401b0382821081831117156147e5576147e56143f0565b8160405284358352602085013591506147fd8261402a565b81602084015260408501359150614813826145f1565b81604084015260608501359150614829826145f1565b8160608401526080850135915080821115614842575f80fd5b5061484f368286016144ea565b60808301525092915050565b80516148668161402a565b919050565b5f6020828403121561487b575f80fd5b815161179f8161402a565b5f600182016148975761489761470d565b5060010190565b80546001600160a01b0319166001600160a01b0392909216919091179055565b81356148c98161402a565b6148d3818361489e565b5060208201356148e28161402a565b610f81816001840161489e565b80546001600160701b03808216845260709190911c166020830152600181015465ffffffffffff8116604080850191909152603082901c61ffff1660608501521c63ffffffff16608083015260028101546001600160a01b0390811660a08401526003909101541660c090910152565b6101c0810161496e828a6148ef565b87356149798161402a565b6001600160a01b0390811660e08401526020890135906149988261402a565b8082166101008501528861012085015287610140850152866101608501528086166101808501528085166101a0850152505098975050505050505050565b61010081016149e582856140d5565b6001600160a01b039290921660e09190910152919050565b5f6020808385031215614a0e575f80fd5b82516001600160401b0380821115614a24575f80fd5b818501915085601f830112614a37575f80fd5b815181811115614a4957614a496143f0565b8060051b9150614a5a848301614494565b8181529183018401918481019088841115614a73575f80fd5b938501935b83851015614a9d5784519250614a8d8361402a565b8282529385019390850190614a78565b98975050505050505050565b5f60208284031215614ab9575f80fd5b81516001600160401b03811115614ace575f80fd5b8201601f81018413614ade575f80fd5b8051614aec614507826144c4565b818152856020838501011115614b00575f80fd5b611d30826020830160208601613fb7565b9182526001600160a01b0316602082015260400190565b805161486681614613565b5f60608284031215614b43575f80fd5b604051606081018181106001600160401b0382111715614b6557614b656143f0565b6040528251614b738161402a565b8152602083015160ff81168114614b88575f80fd5b60208201526040830151614b9b81614613565b60408201529392505050565b6001600160a01b03929092168252602082015260400190565b5f61010060018060a01b0380871684528551818151166020860152816020820151166040860152604081015165ffffffffffff80821660608801528060608401511660808801525050508060208701511660a085015250604085015160c08401528060e0840152611a6581840185613fd9565b6102608101614c42828a6148ef565b614c4f60e08301896148ef565b6101c08201969096526101e08101949094526102008401929092526001600160a01b03908116610220840152166102409091015292915050565b5f60208284031215614c99575f80fd5b5051919050565b6101208101614caf82866148ef565b60e08201939093526001600160a01b039190911661010090910152919050565b80820281158282048414176109005761090061470d565b8681525f60018060a01b03808816602084015286604084015280861660608401525083608083015260e060a0830152600d60e08301526c2332b290333937b6903637b0b760991b6101008301526101208060c0840152614d4881840185613fd9565b9998505050505050505050565b8051614866816145f1565b8051614866816145dd565b805161486681614604565b805161486681614354565b5f6102608284031215614d92575f80fd5b614d9a61444e565b9050614da582614d6b565b8152614db360208301614d6b565b6020820152614dc460408301614b28565b6040820152614dd560608301614d76565b6060820152614de660808301614d76565b6080820152614df760a08301614d76565b60a0820152614e0860c08301614d76565b60c0820152614e1960e08301614d76565b60e0820152610100614e2c818401614d76565b90820152610120614e3e838201614d76565b90820152610140614e50838201614d76565b90820152610160614e62838201614d76565b90820152610180614e74838201614d76565b908201526101a0614e86838201614d76565b908201526101c0614e98838201614d76565b908201526101e0614eaa838201614d76565b90820152610200614ebc838201614d76565b90820152610220614ece83820161485b565b90820152610240614ee0838201614d6b565b9082015292915050565b5f80828403610380811215614efd575f80fd5b61012080821215614f0c575f80fd5b614f14614471565b9150614f1f85614d55565b8252614f2d60208601614d55565b6020830152614f3e60408601614d55565b6040830152614f4f60608601614d55565b6060830152614f6060808601614b28565b6080830152614f7160a08601614d60565b60a0830152614f8260c08601614b28565b60c0830152614f9360e0860161485b565b60e0830152610100808601518184015250819350614fb386828701614d81565b925050509250929050565b6001600160a01b03858116825284166020820152604081018390526080606082018190525f90611a6590830184613fd9565b5f60208284031215615000575f80fd5b815161179f81613f70565b5f8085851115615019575f80fd5b83861115615025575f80fd5b5050820193919092039150565b6bffffffffffffffffffffffff19813581811691601485101561505f5780818660140360031b1b83161692505b505092915050565b85815260018060a01b0385166020820152836040820152821515606082015260c06080820152600f60c08201526e2830bcb4b7339037b333103637b0b760891b60e08201525f6101008060a0840152614a9d81840185613fd9565b634e487b7160e01b5f52603260045260245ffd5b5f6080820186835260206080602085015281875180845260a0860191506020890193505f5b8181101561513f57845180516001600160a01b031684528481015160ff168585015260409081015163ffffffff1690840152938301936060909201916001016150fb565b505060408501969096525050506060015292915050565b600181815b8085111561519057815f19048211156151765761517661470d565b8085161561518357918102915b93841c939080029061515b565b509250929050565b5f826151a657506001610900565b816151b257505f610900565b81600181146151c857600281146151d2576151ee565b6001915050610900565b60ff8411156151e3576151e361470d565b50506001821b610900565b5060208310610133831016604e8410600b8410161715615211575081810a610900565b61521b8383615156565b805f190482111561522e5761522e61470d565b029392505050565b5f61179f838361519856fea26469706673582212204fb711e9753cc04b67aad7b6cbe53cebf306b53583c036e2a8b8fbd3d993235164736f6c63430008170033",
	"deployedBytecode": "0x608060405260043610610252575f3560e01c806370a0823111610137578063b88d4fde116100af578063e4ba13c711610076578063e4ba13c7146107c6578063e985e9c5146107f2578063ee0fc12114610811578063f2fde38b14610844578063f8231e3914610863578063fe91edd61461088257005b8063b88d4fde146106ff578063c4d8ea3c1461071e578063c87b56dd14610749578063ddad527114610768578063e131fc0c146107a757005b80638da5cb5b116100fe5780638da5cb5b1461064557806395d89b4114610662578063a21cd6f814610676578063a22cb465146106a2578063a33853d1146106c1578063a4a0481a146106e057005b806370a082311461058e578063715018a6146105ad5780637da0a877146105c157806383b4cf2f146105f357806388bc2ef31461061257005b80632cc2cb63116101ca578063501158691161019157806350115869146104a2578063572b6c05146104de5780636352211e146104fd578063667079891461051c5780636a57728f146105475780636afdd8501461055b57005b80632cc2cb631461041057806331011c5414610425578063325eefd9146104585780633e73ec331461046c57806342842e0e1461048357005b806309c586211161021957806309c58621146103285780630ba8827d146103495780631eabcd341461036c57806323b872dd1461039f5780632407497e146103be578063293c4999146103dd57005b806301ffc9a71461025b5780630582928e1461028f57806306fdde03146102bc578063081812fc146102dd578063095ea7b31461030957005b3661025957005b005b348015610266575f80fd5b5061027a610275366004613f85565b6108b5565b60405190151581526020015b60405180910390f35b34801561029a575f80fd5b506102ae6102a9366004613fa0565b610906565b604051908152602001610286565b3480156102c7575f80fd5b506102d0610916565b6040516102869190614004565b3480156102e8575f80fd5b506102fc6102f7366004613fa0565b6109a5565b6040516102869190614016565b348015610314575f80fd5b5061025961032336600461403e565b6109cc565b61033b610336366004614068565b6109e2565b604051610286929190614148565b61035c610357366004614173565b610c8e565b60405161028694939291906141d7565b348015610377575f80fd5b506102fc7f0000000000000000000000009b90e507cf6b7eb681a506b111f6f50245e614c481565b3480156103aa575f80fd5b506102596103b9366004614201565b610e70565b3480156103c9575f80fd5b506102596103d836600461423f565b610f00565b3480156103e8575f80fd5b506102fc7f000000000000000000000000885f707efa18d2cb12f05a3a8eba6b4b26c8c1d481565b34801561041b575f80fd5b506102ae6101f481565b348015610430575f80fd5b506102ae7f000000000000000000000000000000000000000000000000000000000000000381565b348015610463575f80fd5b506102ae601981565b348015610477575f80fd5b506102ae6312cc030081565b34801561048e575f80fd5b5061025961049d366004614201565b610f67565b3480156104ad575f80fd5b506102ae6104bc36600461425a565b600a60209081525f938452604080852082529284528284209052825290205481565b3480156104e9575f80fd5b5061027a6104f836600461423f565b610f86565b348015610508575f80fd5b506102fc610517366004613fa0565b610fb8565b348015610527575f80fd5b506102ae610536366004613fa0565b600b6020525f908152604090205481565b348015610552575f80fd5b506102ae600a81565b348015610566575f80fd5b506102fc7f000000000000000000000000000000000022d473030f116ddee9f6b43ac78ba381565b348015610599575f80fd5b506102ae6105a836600461423f565b610fc2565b3480156105b8575f80fd5b50610259611007565b3480156105cc575f80fd5b507f000000000000000000000000c29d6995ab3b0df4650ad643adeac55e7acbb5666102fc565b3480156105fe575f80fd5b5061033b61060d366004614299565b61101a565b34801561061d575f80fd5b506102fc7f0000000000000000000000000061e516886a0540f63157f112c0588ee0651dcf81565b348015610650575f80fd5b506006546001600160a01b03166102fc565b34801561066d575f80fd5b506102d061137b565b348015610681575f80fd5b50610695610690366004613fa0565b61138a565b60405161028691906142f2565b3480156106ad575f80fd5b506102596106bc366004614361565b611411565b3480156106cc575f80fd5b506102596106db366004614398565b611423565b3480156106eb575f80fd5b506102ae6106fa3660046143c1565b611647565b34801561070a575f80fd5b5061025961071936600461453c565b6116ee565b348015610729575f80fd5b506102ae610738366004613fa0565b60086020525f908152604090205481565b348015610754575f80fd5b506102d0610763366004613fa0565b61170d565b348015610773575f80fd5b5061027a61078236600461425a565b600760209081525f938452604080852082529284528284209052825290205460ff1681565b3480156107b2575f80fd5b506009546102fc906001600160a01b031681565b3480156107d1575f80fd5b506107e56107e0366004613fa0565b6117a6565b60405161028691906145a3565b3480156107fd575f80fd5b5061027a61080c3660046145b1565b61184d565b34801561081c575f80fd5b506102fc7f00000000000000000000000027da30646502e2f642be5281322ae8c394f7668a81565b34801561084f575f80fd5b5061025961085e36600461423f565b61187a565b34801561086e575f80fd5b506102ae61087d366004614624565b6118b7565b34801561088d575f80fd5b506102fc7f0000000000000000000000002ca27bde7e7d33e353b44c27acfcf6c78dde251d81565b5f6001600160e01b031982166380ac58cd60e01b14806108e557506001600160e01b03198216635b5e139f60e01b145b8061090057506301ffc9a760e01b6001600160e01b03198316145b92915050565b5f61090064e8d4a5100083614721565b60605f805461092490614740565b80601f016020809104026020016040519081016040528092919081815260200182805461095090614740565b801561099b5780601f106109725761010080835404028352916020019161099b565b820191905f5260205f20905b81548152906001019060200180831161097e57829003601f168201915b5050505050905090565b5f6109af826118c2565b505f828152600460205260409020546001600160a01b0316610900565b6109de82826109d96118f9565b611907565b5050565b5f6109eb613f2f565b6109f36118f9565b6001600160a01b0316610a0588611914565b6001600160a01b031614610a4857610a1b6118f9565b610a2488611914565b6040516318d514bd60e21b8152600401610a3f929190614772565b60405180910390fd5b5f878152600d602052604090208054600160701b90046001600160701b0316861115610aa257805460405163b9c5041760e01b815260048101889052600160701b9091046001600160701b03166024820152604401610a3f565b5f610aac89610906565b82549091505f90610adb9084908490610ad6908c90600160701b90046001600160701b031661478c565b61192e565b83549091506001600160701b0316811115610b1e5782546040516395e361d560e01b8152600481018390526001600160701b039091166024820152604401610a3f565b82545f90610b369083906001600160701b031661478c565b6040805160c08101825286546001600160701b038082168352600160701b90910416602080830191909152600188015465ffffffffffff811683850152600160301b810461ffff166060840152600160401b900463ffffffff166080830152825180840190935260028801546001600160a01b0390811684526003890154169083015260a08101919091529091505f90610bd09083611a6f565b9050610bdc818361479f565b6002860154909250610c00906001600160a01b03168c610bfb8b6147b2565b611b6d565b9a508a821115610c2d5760405163c4d4ea0d60e01b8152600481018c905260248101839052604401610a3f565b610c3c8c868685858f8f611d39565b9097509550818b1115610c7f57610c7f30610c556118f9565b876002015f015f9054906101000a90046001600160a01b0316858f610c7a919061478c565b6120ad565b50505050509550959350505050565b5f80610c98613f2f565b610ca0613f2f565b610ca86118f9565b6001600160a01b0316610cba8c611914565b6001600160a01b031614610cd957610cd06118f9565b610a248c611914565b5f610ce38c610906565b9050610cf08c828d612243565b806040518060c00160405290815f82015f9054906101000a90046001600160701b03166001600160701b03166001600160701b031681526020015f8201600e9054906101000a90046001600160701b03166001600160701b03166001600160701b03168152602001600182015f9054906101000a900465ffffffffffff1665ffffffffffff1665ffffffffffff1681526020016001820160069054906101000a900461ffff1661ffff1661ffff1681526020016001820160089054906101000a900463ffffffff1663ffffffff1663ffffffff168152602001600282016040518060400160405290815f82015f9054906101000a90046001600160a01b03166001600160a01b03166001600160a01b03168152602001600182015f9054906101000a90046001600160a01b03166001600160a01b03166001600160a01b0316815250508152505090508094508196505050610e5a818b8b8b8f610e53919061479f565b8b8b61101a565b959d909c50929a50939850909650505050505050565b6001600160a01b038216610e99575f604051633250574960e11b8152600401610a3f9190614016565b5f610eac8383610ea76118f9565b612493565b9050836001600160a01b0316816001600160a01b031614610efa576040516364283d7b60e01b81526001600160a01b0380861660048301526024820184905282166044820152606401610a3f565b50505050565b610f08612580565b600980546001600160a01b0319166001600160a01b0383169081179091557fe7784d93cfbfa4408e19577e6cc0436f4dbb51214b70e100905dfce9def88c16610f4f6118f9565b604051610f5c9190614016565b60405180910390a250565b610f8183838360405180602001604052805f8152506116ee565b505050565b7f000000000000000000000000c29d6995ab3b0df4650ad643adeac55e7acbb5666001600160a01b0390811691161490565b5f610900826118c2565b5f6001600160a01b038216610fec575f6040516322718ad960e21b8152600401610a3f9190614016565b506001600160a01b03165f9081526003602052604090205490565b61100f612580565b6110185f6125d3565b565b5f611023613f2f565b6040516331a9108f60e11b8152600481018990525f907f000000000000000000000000885f707efa18d2cb12f05a3a8eba6b4b26c8c1d46001600160a01b031690636352211e90602401602060405180830381865afa158015611088573d5f803e3d5ffd5b505050506040513d601f19601f820116820180604052508101906110ac919061486b565b90507f0000000000000000000000002ca27bde7e7d33e353b44c27acfcf6c78dde251d6001600160a01b0316816001600160a01b03161461112457807f0000000000000000000000002ca27bde7e7d33e353b44c27acfcf6c78dde251d604051630128886560e71b8152600401610a3f929190614772565b855f0361114457604051631a39845d60e21b815260040160405180910390fd5b601984108061115457506101f484115b1561118457604051633a54873960e21b815260048101859052601960248201526101f46044820152606401610a3f565b5f89815260086020526040812080546111ad928c92916111a390614886565b9182905550612624565b5f818152600d6020526040902090935088600282016111cc82826148be565b505060018101805461ffff8716600160301b0267ffffffffffffffff1990911664ffffffffff421617179055611209856312cc03006101f461263f565b8160010160086101000a81548163ffffffff021916908363ffffffff1602179055505f611237828c8a61192e565b905088811015611264576040516304aefef560e51b8152600481018a905260248101829052604401610a3f565b5f61126f828861270e565b905061127f838d848c858d61271c565b61129061128a6118f9565b87612a32565b8b867f90ac858b09db4f44113a984e09c297b5c0529be26c65a23a1b8967d4124ca5e4858e868e878f6112c16118f9565b6040516112d4979695949392919061495f565b60405180910390a350506040805160c08101825282546001600160701b038082168352600160701b90910416602080830191909152600184015465ffffffffffff81168385015261ffff600160301b820416606084015263ffffffff600160401b909104166080830152825180840190935260028401546001600160a01b0390811684526003909401549093169282019290925260a0820152915050965096945050505050565b60606001805461092490614740565b6060600c5f8381526020019081526020015f20805480602002602001604051908101604052809291908181526020015f905b82821015611406575f848152602090819020604080518082019091526002850290910180546001600160a01b039081168352600191820154168284015290835290920191016113bc565b505050509050919050565b6109de61141c6118f9565b8383612a93565b5f5b81811015610efa575f6114418561143c848761479f565b612624565b5f818152600d60209081526040808320815160c08101835281546001600160701b038082168352600160701b9091041681850152600182015465ffffffffffff808216838601908152600160301b830461ffff166060850152600160401b90920463ffffffff166080840152845180860190955260028401546001600160a01b0390811686526003909401549093169484019490945260a08101929092529151939450921690036114f3575050610efa565b5f6114fd83611914565b90506001600160a01b038116158061153057506312cc0300826040015165ffffffffffff1661152c919061479f565b4211155b1561153d5750505061163f565b61154683612b28565b60208201516001600160701b03161561158c5781602001516001600160701b0316600b5f8981526020019081526020015f205f828254611586919061478c565b90915550505b81516001600160701b0316156115f95781515f888152600a6020908152604080832060a0870180518401516001600160a01b0390811686529184528285209051519091168452909152812080546001600160701b03909316929091906115f390849061478c565b90915550505b86837f2710408375e429523d39f7c37d7d73c1b816756d511f9cb07cd54215ead59f80846116256118f9565b6040516116339291906149d6565b60405180910390a35050505b600101611425565b5f6116e3858585857f0000000000000000000000000061e516886a0540f63157f112c0588ee0651dcf6001600160a01b031663d17541538b6040518263ffffffff1660e01b815260040161169d91815260200190565b5f60405180830381865afa1580156116b7573d5f803e3d5ffd5b505050506040513d5f823e601f3d908101601f191682016040526116de91908101906149fd565b612b60565b90505b949350505050565b6116f9848484610e70565b610efa6117046118f9565b85858585612d2b565b6009546060906001600160a01b03168061173657505060408051602081019091525f8152919050565b604051636d02a25560e11b8152600481018490526001600160a01b0382169063da0544aa906024015f60405180830381865afa158015611778573d5f803e3d5ffd5b505050506040513d5f823e601f3d908101601f1916820160405261179f9190810190614aa9565b9392505050565b6117ae613f2f565b505f908152600d6020908152604091829020825160c08101845281546001600160701b038082168352600160701b9091041681840152600182015465ffffffffffff811682860152600160301b810461ffff166060830152600160401b900463ffffffff166080820152835180850190945260028201546001600160a01b0390811685526003909201549091169183019190915260a081019190915290565b6001600160a01b039182165f90815260056020908152604080832093909416825291909152205460ff1690565b611882612580565b6001600160a01b0381166118ab575f604051631e4fbdf760e01b8152600401610a3f9190614016565b6118b4816125d3565b50565b5f61179f8383611a6f565b5f806118cd83611914565b90506001600160a01b03811661090057604051637e27328960e01b815260048101849052602401610a3f565b5f611902612e41565b905090565b610f818383836001612e91565b5f908152600260205260409020546001600160a01b031690565b5f815f0361193d57505f61179f565b60038401546002850154604051633a01714f60e01b81525f926001600160a01b0390811692633a01714f926119789289921690600401614b11565b606060405180830381865afa158015611993573d5f803e3d5ffd5b505050506040513d601f19601f820116820180604052508101906119b79190614b33565b60405163d175415360e01b8152600481018690529091505f906001600160a01b037f0000000000000000000000000061e516886a0540f63157f112c0588ee0651dcf169063d1754153906024015f60405180830381865afa158015611a1e573d5f803e3d5ffd5b505050506040513d5f823e601f3d908101601f19168201604052611a4591908101906149fd565b9050611a658585846020015160ff16856040015163ffffffff1685612b60565b9695505050505050565b5f80836040015165ffffffffffff1642611a89919061478c565b9050836080015163ffffffff168111611aa5575f915050610900565b6312cc0300811115611ad75760405163045be49160e01b8152600481018290526312cc03006024820152604401610a3f565b5f611af6855f01516001600160701b0316866060015161ffff1661270e565b90505f611b5482875f01516001600160701b0316611b14919061478c565b611b4f886080015163ffffffff1686611b2d919061478c565b60808a01516103e890611b4a9063ffffffff166312cc030061478c565b61263f565b61270e565b9050611a658186885f01516001600160701b031661263f565b5f61eeed196001600160a01b03851601611b8857503461179f565b3415611ba7576040516314ac44cf60e21b815260040160405180910390fd5b60208201516001600160a01b031615611cfd578282602001516001600160a01b03161015611bf0578160200151836040516335c2b2a360e21b8152600401610a3f929190614ba7565b6040805160e0810182526001600160a01b038087166060808401918252602087810151841660808601528786015165ffffffffffff90811660a08701529188015190911660c08501529083523090830152845192820192909252907f000000000000000000000000000000000022d473030f116ddee9f6b43ac78ba316632b67b570611c7a6118f9565b8386608001516040518463ffffffff1660e01b8152600401611c9e93929190614bc0565b5f604051808303815f87803b158015611cb5575f80fd5b505af1925050508015611cc6575060015b611cfb573d808015611cf3576040519150601f19603f3d011682016040523d82523d5f602084013e611cf8565b606091505b50505b505b5f611d0785612f8c565b9050611d1c611d146118f9565b3087876120ad565b80611d2686612f8c565b611d30919061478c565b95945050505050565b5f611d42613f2f565b611d4b89612b28565b8754600160701b90046001600160701b03168403611e5257611d7188885f80898861271c565b88878a7f791f716b9ed5747949be0a1d9657c61802806973871cbd7ffb8dbaff12b8b2c68b8c8b8b8b8b611da36118f9565b604051611db69796959493929190614c33565b60405180910390a450506040805160c08101825287546001600160701b038082168352600160701b90910416602080830191909152600189015465ffffffffffff811683850152600160301b810461ffff166060840152600160401b900463ffffffff166080830152825180840190935260028901546001600160a01b03908116845260038a0154169083015260a081019190915287906120a1565b5f8781526008602052604081208054611e72918a9184906111a390614886565b5f818152600d602052604090208a5481546001600160701b039182166001600160701b03198216811784558d546001600160e01b031990921617600160701b91829004909216021781556001808c018054918301805465ffffffffffff90931665ffffffffffff19841681178255825467ffffffffffffffff1990941617600160301b9384900461ffff1690930292909217808355905463ffffffff60401b19909116600160401b9182900463ffffffff169091021790556002808c015490820180546001600160a01b039283166001600160a01b0319918216179091556003808e01549084018054919093169116179055909150611faf818a611f768a8c61478c565b8454611f8b91906001600160701b031661478c565b8454611fa8908b90600160701b90046001600160701b031661478c565b8b8a61271c565b611fc0611fba6118f9565b83612a32565b81898c7f791f716b9ed5747949be0a1d9657c61802806973871cbd7ffb8dbaff12b8b2c68d858d8d8d8d611ff26118f9565b6040516120059796959493929190614c33565b60405180910390a46040805160c08101825282546001600160701b038082168352600160701b90910416602080830191909152600184015465ffffffffffff811683850152600160301b810461ffff166060840152600160401b900463ffffffff166080830152825180840190935260028401546001600160a01b0390811684526003909401549093169282019290925260a082015290925090505b97509795505050505050565b306001600160a01b038516036120f35761eeed196001600160a01b038316016120df576120da8382613016565b610efa565b6120da6001600160a01b03831684836130a2565b604051636eb1769f60e11b815281906001600160a01b0384169063dd62ed3e906121239088903090600401614772565b602060405180830381865afa15801561213e573d5f803e3d5ffd5b505050506040513d601f19601f820116820180604052508101906121629190614c89565b1061217c576120da6001600160a01b0383168585846130fa565b6001600160a01b038111156121af57806001600160a01b03604051633459303960e01b8152600401610a3f929190614b11565b604051631b63c28b60e11b81526001600160a01b0385811660048301528481166024830152828116604483015283811660648301527f000000000000000000000000000000000022d473030f116ddee9f6b43ac78ba316906336c78516906084015f604051808303815f87803b158015612227575f80fd5b505af1158015612239573d5f803e3d5ffd5b5050505050505050565b5f8061224e85612b28565b5f858152600d602052604090208054600160701b90046001600160701b031684111561228d5760405163c459ec8360e01b815260040160405180910390fd5b80545f906122ac908690600160701b90046001600160701b031661478c565b90505f6122ba83888461192e565b83549091506001600160701b03168110156122fd578254604051631b5de0b760e31b8152600481018390526001600160701b039091166024820152604401610a3f565b5f878152600860205260408120805461231c928a92916111a390614886565b5f818152600d60205260408120855481546001600160701b031981166001600160701b0392831690811784558854600160701b908190048416026001600160e01b0319909216171780835560018089018054918501805465ffffffffffff19811665ffffffffffff9094169384178255825461ffff600160301b91829004160267ffffffffffffffff1990911690931792909217808355905463ffffffff600160401b91829004160263ffffffff60401b1990911617905560028089015490840180546001600160a01b03199081166001600160a01b03938416179091556003808b0154908601805490921692169190911790559398509096506124329287928b929190911690869061242d6118f9565b61271c565b61244361243d6118f9565b86612a32565b8487897f7d3a0daefe69f98b6718ad00d0a9cf2dd50902a8db1b484d4238a86fea6be7c6878a6124716118f9565b60405161248093929190614ca0565b60405180910390a4505050935093915050565b5f8061249e84611914565b90506001600160a01b038316156124ba576124ba818486613133565b6001600160a01b038116156124f4576124d55f855f80612e91565b6001600160a01b0381165f90815260036020526040902080545f190190555b6001600160a01b03851615612522576001600160a01b0385165f908152600360205260409020805460010190555b5f8481526002602052604080822080546001600160a01b0319166001600160a01b0389811691821790925591518793918516917fddf252ad1be2c89b69c2b068fc378daa952ba7f163c4a11628f55a4df523b3ef91a4949350505050565b6125886118f9565b6001600160a01b03166125a36006546001600160a01b031690565b6001600160a01b031614611018576125b96118f9565b60405163118cdaa760e01b8152600401610a3f9190614016565b600680546001600160a01b038381166001600160a01b0319831681179093556040519116919082907f8be0079c531659141344cd1fd0a4f28419497f9722a3daafe3b4186f6b6457e0905f90a35050565b5f8161263564e8d4a5100085614ccf565b61179f919061479f565b5f80805f19858709858702925082811083820303915050805f036126765783828161266c5761266c6146f9565b049250505061179f565b8381106126a757604051630c740aef60e31b8152600481018790526024810186905260448101859052606401610a3f565b5f8486880960026001871981018816978890046003810283188082028403028082028403028082028403028082028403028082028403029081029092039091025f889003889004909101858311909403939093029303949094049190911702949350505050565b5f61179f83836103e861263f565b85546001600160701b03168411156127d6576040805160c08101825287546001600160701b03808216808452600160701b9092041660208084019190915260018a015465ffffffffffff811684860152600160301b810461ffff166060850152600160401b900463ffffffff166080840152835180850190945260028a01546001600160a01b03908116855260038b0154169084015260a08201929092526127d19187906127ca908861478c565b8585613189565b61288a565b85546001600160701b031684101561288a576040805160c08101825287546001600160701b03808216808452600160701b9092041660208084019190915260018a015465ffffffffffff811684860152600160301b810461ffff166060850152600160401b900463ffffffff166080840152835180850190945260028a01546001600160a01b03908116855260038b0154169084015260a082019290925261288a91879061288590889061478c565b613642565b8554600160701b90046001600160701b03168311156128cf5785546128ca9086906128c590600160701b90046001600160701b03168661478c565b613763565b612911565b8554600160701b90046001600160701b031683101561291157855461291190869061290b908690600160701b90046001600160701b031661478c565b8361384e565b8115612a0557600386015460028701545f9161293a916001600160a01b03918216911685613941565b60038801546002890154604080517f000000000000000000000000000000000000000000000000000000000000000360208201529394506001600160a01b039283169363fef432579386938c93911691899189915f91016040516020818303038152906040526040518863ffffffff1660e01b81526004016129c196959493929190614ce6565b60206040518083038185885af11580156129dd573d5f803e3d5ffd5b50505050506040513d601f19601f82011682018060405250810190612a029190614c89565b50505b505083546001600160701b03918216600160701b026001600160e01b031990911691909216171790915550565b6001600160a01b038216612a5b575f604051633250574960e11b8152600401610a3f9190614016565b5f612a6783835f612493565b90506001600160a01b03811615610f81575f6040516339e3563760e11b8152600401610a3f9190614016565b6001600160a01b038216612abc5781604051630b61174360e31b8152600401610a3f9190614016565b6001600160a01b038381165f81815260056020908152604080832094871680845294825291829020805460ff191686151590811790915591519182527f17307eab39ab6107e8899845ad3d59bd9653f200f220920489ca2b5937696c31910160405180910390a3505050565b5f612b345f835f612493565b90506001600160a01b0381166109de57604051637e27328960e01b815260048101839052602401610a3f565b6040516320c94b1360e11b8152600481018690525f9081906001600160a01b037f00000000000000000000000027da30646502e2f642be5281322ae8c394f7668a169063419296269060240161038060405180830381865afa158015612bc8573d5f803e3d5ffd5b505050506040513d601f19601f82011682018060405250810190612bec9190614eea565b5090505f612c47888583604051908082528060200260200182016040528015612c3f57816020015b604080516060810182525f80825260208083018290529282015282525f19909201910181612c145790505b508989613979565b90505f612c55898888613a30565b604051634da781a960e01b8152600481018b90529091505f906001600160a01b037f00000000000000000000000027da30646502e2f642be5281322ae8c394f7668a1690634da781a990602401602060405180830381865afa158015612cbd573d5f803e3d5ffd5b505050506040513d601f19601f82011682018060405250810190612ce19190614c89565b5f8b8152600b6020526040902054909150612d1c612cff848661479f565b8b612d0a848661479f565b61010089015160141c61ffff16613c84565b9b9a5050505050505050505050565b6001600160a01b0383163b15612e3a57604051630a85bd0160e11b81526001600160a01b0384169063150b7a0290612d6d908890889087908790600401614fbe565b6020604051808303815f875af1925050508015612da7575060408051601f3d908101601f19168201909252612da491810190614ff0565b60015b612e05573d808015612dd4576040519150601f19603f3d011682016040523d82523d5f602084013e612dd9565b606091505b5080515f03612dfd5783604051633250574960e11b8152600401610a3f9190614016565b805181602001fd5b6001600160e01b03198116630a85bd0160e11b14612e385783604051633250574960e11b8152600401610a3f9190614016565b505b5050505050565b5f366014612e4e33610f86565b8015612e5a5750808210155b15612e89575f36612e6b838561478c565b612e7692829061500b565b612e7f91615032565b60601c9250505090565b339250505090565b8080612ea557506001600160a01b03821615155b15612f5d575f612eb4846118c2565b90506001600160a01b03831615801590612ee05750826001600160a01b0316816001600160a01b031614155b8015612ef35750612ef1818461184d565b155b15612f13578260405163a9fbf51f60e01b8152600401610a3f9190614016565b8115612f5b5783856001600160a01b0316826001600160a01b03167f8c5be1e5ebec7d5bd14f71427d1e84f3dd0314c0f7b2291e5b200ac8c7c3b92560405160405180910390a45b505b50505f90815260046020526040902080546001600160a01b0319166001600160a01b0392909216919091179055565b5f6001600160a01b03821661eeee1461300f576040516370a0823160e01b81526001600160a01b038316906370a0823190612fcb903090600401614016565b602060405180830381865afa158015612fe6573d5f803e3d5ffd5b505050506040513d601f19601f8201168201806040525081019061300a9190614c89565b610900565b4792915050565b804710156130405760405163cf47918160e01b815247600482015260248101829052604401610a3f565b5f80836001600160a01b0316836040515f6040518083038185875af1925050503d805f811461308a576040519150601f19603f3d011682016040523d82523d5f602084013e61308f565b606091505b509150915081610efa57610efa81613ced565b610f8183846001600160a01b031663a9059cbb85856040516024016130c8929190614ba7565b604051602081830303815290604052915060e01b6020820180516001600160e01b038381831617835250505050613d16565b6040516001600160a01b038481166024830152838116604483015260648201839052610efa9186918216906323b872dd906084016130c8565b61313e838383613d79565b610f81576001600160a01b03831661316c57604051637e27328960e01b815260048101829052602401610a3f565b818160405163177e802f60e01b8152600401610a3f929190614ba7565b5f84815260076020908152604080832060a0890180518401516001600160a01b039081168652918452828520905151909116845290915290205460ff16613274575f84815260076020908152604080832060a0890180518401516001600160a01b039081168652918452828520815151831686528452828520805460ff19166001908117909155898652600c85528386208451808601909552825151841685529151850151831684860190815282548083018455928752949095209251600290910290920180549282166001600160a01b031993841617815592519290930180549290931691161790555b5f848152600a6020908152604080832060a0890180518401516001600160a01b0390811686529184528285209051519091168452909152812080548592906132bd90849061479f565b909155505060a085015160208101519051604051633a01714f60e01b81525f9283926001600160a01b0390911691633a01714f91613300918a9190600401614b11565b606060405180830381865afa15801561331b573d5f803e3d5ffd5b505050506040513d601f19601f8201168201806040525081019061333f9190614b33565b60a0880151602081015190516040838101519051631d23a08760e21b8152600481018b90526001600160a01b039283166024820152604481018a905263ffffffff90911660648201525f60848201523060a482015286821660c482015261010060e482015260196101048201527f4c656e64696e67206f757420746f206120626f72726f77657200000000000000610124820152929350169063748e821c90610144016020604051808303815f875af11580156133fe573d5f803e3d5ffd5b505050506040513d601f19601f820116820180604052508101906134229190614c89565b60a088015151604051630862026560e41b81529193505f92506001600160a01b037f0000000000000000000000000061e516886a0540f63157f112c0588ee0651dcf169163862026509161349b917f00000000000000000000000000000000000000000000000000000000000000039190600401614b11565b602060405180830381865afa1580156134b6573d5f803e3d5ffd5b505050506040513d601f19601f820116820180604052508101906134da919061486b565b90505f6001600160a01b038216156134fc576134f786600a61270e565b6134fe565b5f5b9050801561361f575f81156135245761351f838a60a001515f015184613941565b613526565b5f5b9050826001600160a01b031663fef43257827f00000000000000000000000000000000000000000000000000000000000000038c60a001515f0151868a5f8f60405160200161357791815260200190565b6040516020818303038152906040526040518863ffffffff1660e01b81526004016135a796959493929190614ce6565b60206040518083038185885af1935050505080156135e2575060408051601f3d908101601f191682019092526135df91810190614c89565b60015b61361b573d80801561360f576040519150601f19603f3d011682016040523d82523d5f602084013e613614565b606091505b505061361d565b505b505b60a088015151612239903090869088613638868961478c565b610c7a919061478c565b5f828152600a6020908152604080832060a0870180518401516001600160a01b03908116865291845282852090515190911684529091528120805483929061368b90849061478c565b909155505060a0830151602081015190515f916136a89184613941565b90508360a00151602001516001600160a01b0316639e6eec0582858760a001515f0151865f7f000000000000000000000000000000000000000000000000000000000000000360405160200161370091815260200190565b6040516020818303038152906040526040518763ffffffff1660e01b815260040161372f959493929190615067565b5f604051808303818588803b158015613746575f80fd5b505af1158015613758573d5f803e3d5ffd5b505050505050505050565b5f828152600b60205260408120805483929061378090849061479f565b90915550506001600160a01b037f00000000000000000000000027da30646502e2f642be5281322ae8c394f7668a1663a2d532e66137bc6118f9565b6040516001600160e01b031960e084901b1681526001600160a01b039091166004820152602481018590526044810184905260806064820152601960848201527f416464696e6720636f6c6c61746572616c20746f206c6f616e0000000000000060a482015260c4015f604051808303815f87803b15801561383c575f80fd5b505af1158015612e38573d5f803e3d5ffd5b5f838152600b60205260408120805484929061386b90849061478c565b90915550506040516363fdc96f60e11b815260048101849052602481018390526001600160a01b03828116604483015260a06064830152601d60a48301527f52656d6f76696e6720636f6c6c61746572616c2066726f6d206c6f616e00000060c48301525f60848301527f00000000000000000000000027da30646502e2f642be5281322ae8c394f7668a169063c7fb92de9060e4016020604051808303815f875af115801561391d573d5f803e3d5ffd5b505050506040513d601f19601f82011682018060405250810190610efa9190614c89565b5f61eeed196001600160a01b0384160161395c57508061179f565b6139706001600160a01b0384168584613dda565b505f9392505050565b83515f90815b81811015613a2557868181518110613999576139996150c2565b60200260200101516001600160a01b031663edb40950898888886040518563ffffffff1660e01b81526004016139d294939291906150d6565b602060405180830381865afa1580156139ed573d5f803e3d5ffd5b505050506040513d601f19601f82011682018060405250810190613a119190614c89565b613a1b908461479f565b925060010161397f565b505095945050505050565b5f838152600c6020908152604080832080548251818502810185019093528083528493849084015b82821015613aa2575f848152602090819020604080518082019091526002850290910180546001600160a01b03908116835260019182015416828401529083529092019101613a58565b5050505090505f5b8151811015613c7b575f828281518110613ac657613ac66150c2565b602002602001015190505f81602001516001600160a01b0316633a01714f89845f01516040518363ffffffff1660e01b8152600401613b06929190614b11565b606060405180830381865afa158015613b21573d5f803e3d5ffd5b505050506040513d601f19601f82011682018060405250810190613b459190614b33565b90505f86826040015163ffffffff1614613c05576040828101519051631df139fd60e11b8152600481018b905263ffffffff909116602482015260448101889052606481018990527f0000000000000000000000009b90e507cf6b7eb681a506b111f6f50245e614c46001600160a01b031690633be273fa90608401602060405180830381865afa158015613bdc573d5f803e3d5ffd5b505050506040513d601f19601f82011682018060405250810190613c009190614c89565b613c10565b613c1088600a615236565b5f8a8152600a60208181526040808420888301516001600160a01b0390811686529083528185208951909116855290915290912054919250613c5f908290613c59908c90615236565b8461263f565b613c69908861479f565b96505060019093019250613aaa915050565b50509392505050565b5f61270f198201613c9657505f6116e6565b828410613ca45750836116e6565b5f613cb086868661263f565b9050825f03613cc05790506116e6565b611a6581613ccf85888861263f565b613cdb8661271061478c565b613ce5919061479f565b61271061263f565b805115613cfd5780518082602001fd5b60405163d6bda27560e01b815260040160405180910390fd5b5f8060205f8451602086015f885af180613d35576040513d5f823e3d81fd5b50505f513d91508115613d4c578060011415613d59565b6001600160a01b0384163b155b15610efa5783604051635274afe760e01b8152600401610a3f9190614016565b5f6001600160a01b038316158015906116e65750826001600160a01b0316846001600160a01b03161480613db25750613db2848461184d565b806116e65750505f908152600460205260409020546001600160a01b03908116911614919050565b604051636eb1769f60e11b81525f906001600160a01b0385169063dd62ed3e90613e0a9030908790600401614772565b602060405180830381865afa158015613e25573d5f803e3d5ffd5b505050506040513d601f19601f82011682018060405250810190613e499190614c89565b9050610efa8484613e5a858561479f565b5f836001600160a01b031663095ea7b38484604051602401613e7d929190614ba7565b604051602081830303815290604052915060e01b6020820180516001600160e01b0383818316178352505050509050613eb68482613eea565b610efa57613ee084856001600160a01b031663095ea7b3865f6040516024016130c8929190614ba7565b610efa8482613d16565b5f805f8060205f8651602088015f8a5af192503d91505f519050828015611a6557508115613f1b5780600114611a65565b50505050506001600160a01b03163b151590565b6040805160c0810182525f8082526020808301829052828401829052606083018290526080830182905283518085019094528184528301529060a082015290565b6001600160e01b0319811681146118b4575f80fd5b5f60208284031215613f95575f80fd5b813561179f81613f70565b5f60208284031215613fb0575f80fd5b5035919050565b5f5b83811015613fd1578181015183820152602001613fb9565b50505f910152565b5f8151808452613ff0816020860160208601613fb7565b601f01601f19169290920160200192915050565b602081525f61179f6020830184613fd9565b6001600160a01b0391909116815260200190565b6001600160a01b03811681146118b4575f80fd5b5f806040838503121561404f575f80fd5b823561405a8161402a565b946020939093013593505050565b5f805f805f60a0868803121561407c575f80fd5b853594506020860135935060408601359250606086013561409c8161402a565b915060808601356001600160401b038111156140b6575f80fd5b860160a081890312156140c7575f80fd5b809150509295509295909350565b6001600160701b038082511683528060208301511660208401525065ffffffffffff604082015116604083015261ffff606082015116606083015263ffffffff608082015116608083015260a0810151610f8160a084018280516001600160a01b03908116835260209182015116910152565b828152610100810161179f60208301846140d5565b5f6040828403121561416d575f80fd5b50919050565b5f805f805f805f610100888a03121561418a575f80fd5b87359650602088013595506141a28960408a0161415d565b94506080880135935060a0880135925060c08801356141c08161402a565b8092505060e0880135905092959891949750929550565b8481526020810184905261020081016141f360408301856140d5565b611d306101208301846140d5565b5f805f60608486031215614213575f80fd5b833561421e8161402a565b9250602084013561422e8161402a565b929592945050506040919091013590565b5f6020828403121561424f575f80fd5b813561179f8161402a565b5f805f6060848603121561426c575f80fd5b83359250602084013561427e8161402a565b9150604084013561428e8161402a565b809150509250925092565b5f805f805f8060e087890312156142ae575f80fd5b863595506142bf886020890161415d565b9450606087013593506080870135925060a08701356142dd8161402a565b8092505060c087013590509295509295509295565b602080825282518282018190525f919060409081850190868401855b828110156143475761433784835180516001600160a01b03908116835260209182015116910152565b928401929085019060010161430e565b5091979650505050505050565b80151581146118b4575f80fd5b5f8060408385031215614372575f80fd5b823561437d8161402a565b9150602083013561438d81614354565b809150509250929050565b5f805f606084860312156143aa575f80fd5b505081359360208301359350604090920135919050565b5f805f80608085870312156143d4575f80fd5b5050823594602084013594506040840135936060013592509050565b634e487b7160e01b5f52604160045260245ffd5b60405160c081016001600160401b0381118282101715614426576144266143f0565b60405290565b604080519081016001600160401b0381118282101715614426576144266143f0565b60405161026081016001600160401b0381118282101715614426576144266143f0565b60405161012081016001600160401b0381118282101715614426576144266143f0565b604051601f8201601f191681016001600160401b03811182821017156144bc576144bc6143f0565b604052919050565b5f6001600160401b038211156144dc576144dc6143f0565b50601f01601f191660200190565b5f82601f8301126144f9575f80fd5b813561450c614507826144c4565b614494565b818152846020838601011115614520575f80fd5b816020850160208301375f918101602001919091529392505050565b5f805f806080858703121561454f575f80fd5b843561455a8161402a565b9350602085013561456a8161402a565b92506040850135915060608501356001600160401b0381111561458b575f80fd5b614597878288016144ea565b91505092959194509250565b60e0810161090082846140d5565b5f80604083850312156145c2575f80fd5b82356145cd8161402a565b9150602083013561438d8161402a565b6001600160701b03811681146118b4575f80fd5b65ffffffffffff811681146118b4575f80fd5b61ffff811681146118b4575f80fd5b63ffffffff811681146118b4575f80fd5b5f80828403610100811215614637575f80fd5b60e0811215614644575f80fd5b61464c614404565b8435614657816145dd565b81526020850135614667816145dd565b6020820152604085013561467a816145f1565b6040820152606085013561468d81614604565b606082015260808501356146a081614613565b60808201526040609f19830112156146b6575f80fd5b6146be61442c565b915060a08501356146ce8161402a565b825260c08501356146de8161402a565b602083015260a08101919091529460e0939093013593505050565b634e487b7160e01b5f52601260045260245ffd5b634e487b7160e01b5f52601160045260245ffd5b5f8261473b57634e487b7160e01b5f52601260045260245ffd5b500490565b600181811c9082168061475457607f821691505b60208210810361416d57634e487b7160e01b5f52602260045260245ffd5b6001600160a01b0392831681529116602082015260400190565b818103818111156109005761090061470d565b808201808211156109005761090061470d565b5f60a082360312156147c2575f80fd5b60405160a081016001600160401b0382821081831117156147e5576147e56143f0565b8160405284358352602085013591506147fd8261402a565b81602084015260408501359150614813826145f1565b81604084015260608501359150614829826145f1565b8160608401526080850135915080821115614842575f80fd5b5061484f368286016144ea565b60808301525092915050565b80516148668161402a565b919050565b5f6020828403121561487b575f80fd5b815161179f8161402a565b5f600182016148975761489761470d565b5060010190565b80546001600160a01b0319166001600160a01b0392909216919091179055565b81356148c98161402a565b6148d3818361489e565b5060208201356148e28161402a565b610f81816001840161489e565b80546001600160701b03808216845260709190911c166020830152600181015465ffffffffffff8116604080850191909152603082901c61ffff1660608501521c63ffffffff16608083015260028101546001600160a01b0390811660a08401526003909101541660c090910152565b6101c0810161496e828a6148ef565b87356149798161402a565b6001600160a01b0390811660e08401526020890135906149988261402a565b8082166101008501528861012085015287610140850152866101608501528086166101808501528085166101a0850152505098975050505050505050565b61010081016149e582856140d5565b6001600160a01b039290921660e09190910152919050565b5f6020808385031215614a0e575f80fd5b82516001600160401b0380821115614a24575f80fd5b818501915085601f830112614a37575f80fd5b815181811115614a4957614a496143f0565b8060051b9150614a5a848301614494565b8181529183018401918481019088841115614a73575f80fd5b938501935b83851015614a9d5784519250614a8d8361402a565b8282529385019390850190614a78565b98975050505050505050565b5f60208284031215614ab9575f80fd5b81516001600160401b03811115614ace575f80fd5b8201601f81018413614ade575f80fd5b8051614aec614507826144c4565b818152856020838501011115614b00575f80fd5b611d30826020830160208601613fb7565b9182526001600160a01b0316602082015260400190565b805161486681614613565b5f60608284031215614b43575f80fd5b604051606081018181106001600160401b0382111715614b6557614b656143f0565b6040528251614b738161402a565b8152602083015160ff81168114614b88575f80fd5b60208201526040830151614b9b81614613565b60408201529392505050565b6001600160a01b03929092168252602082015260400190565b5f61010060018060a01b0380871684528551818151166020860152816020820151166040860152604081015165ffffffffffff80821660608801528060608401511660808801525050508060208701511660a085015250604085015160c08401528060e0840152611a6581840185613fd9565b6102608101614c42828a6148ef565b614c4f60e08301896148ef565b6101c08201969096526101e08101949094526102008401929092526001600160a01b03908116610220840152166102409091015292915050565b5f60208284031215614c99575f80fd5b5051919050565b6101208101614caf82866148ef565b60e08201939093526001600160a01b039190911661010090910152919050565b80820281158282048414176109005761090061470d565b8681525f60018060a01b03808816602084015286604084015280861660608401525083608083015260e060a0830152600d60e08301526c2332b290333937b6903637b0b760991b6101008301526101208060c0840152614d4881840185613fd9565b9998505050505050505050565b8051614866816145f1565b8051614866816145dd565b805161486681614604565b805161486681614354565b5f6102608284031215614d92575f80fd5b614d9a61444e565b9050614da582614d6b565b8152614db360208301614d6b565b6020820152614dc460408301614b28565b6040820152614dd560608301614d76565b6060820152614de660808301614d76565b6080820152614df760a08301614d76565b60a0820152614e0860c08301614d76565b60c0820152614e1960e08301614d76565b60e0820152610100614e2c818401614d76565b90820152610120614e3e838201614d76565b90820152610140614e50838201614d76565b90820152610160614e62838201614d76565b90820152610180614e74838201614d76565b908201526101a0614e86838201614d76565b908201526101c0614e98838201614d76565b908201526101e0614eaa838201614d76565b90820152610200614ebc838201614d76565b90820152610220614ece83820161485b565b90820152610240614ee0838201614d6b565b9082015292915050565b5f80828403610380811215614efd575f80fd5b61012080821215614f0c575f80fd5b614f14614471565b9150614f1f85614d55565b8252614f2d60208601614d55565b6020830152614f3e60408601614d55565b6040830152614f4f60608601614d55565b6060830152614f6060808601614b28565b6080830152614f7160a08601614d60565b60a0830152614f8260c08601614b28565b60c0830152614f9360e0860161485b565b60e0830152610100808601518184015250819350614fb386828701614d81565b925050509250929050565b6001600160a01b03858116825284166020820152604081018390526080606082018190525f90611a6590830184613fd9565b5f60208284031215615000575f80fd5b815161179f81613f70565b5f8085851115615019575f80fd5b83861115615025575f80fd5b5050820193919092039150565b6bffffffffffffffffffffffff19813581811691601485101561505f5780818660140360031b1b83161692505b505092915050565b85815260018060a01b0385166020820152836040820152821515606082015260c06080820152600f60c08201526e2830bcb4b7339037b333103637b0b760891b60e08201525f6101008060a0840152614a9d81840185613fd9565b634e487b7160e01b5f52603260045260245ffd5b5f6080820186835260206080602085015281875180845260a0860191506020890193505f5b8181101561513f57845180516001600160a01b031684528481015160ff168585015260409081015163ffffffff1690840152938301936060909201916001016150fb565b505060408501969096525050506060015292915050565b600181815b8085111561519057815f19048211156151765761517661470d565b8085161561518357918102915b93841c939080029061515b565b509250929050565b5f826151a657506001610900565b816151b257505f610900565b81600181146151c857600281146151d2576151ee565b6001915050610900565b60ff8411156151e3576151e361470d565b50506001821b610900565b5060208310610133831016604e8410600b8410161715615211575081810a610900565b61521b8383615156565b805f190482111561522e5761522e61470d565b029392505050565b5f61179f838361519856fea26469706673582212204fb711e9753cc04b67aad7b6cbe53cebf306b53583c036e2a8b8fbd3d993235164736f6c63430008170033",
	"gitCommit": "f2d3b9e48d34c4c7b1b3b360032750c1dde1aeec",
	"history": []
}